:020000040000fa
:080000000001040000000000f3
:020000040000fa
:100200000f86200080ff2000000188000000000011
:10021000050007000c00070080010200000000003c
:100220000040da000000fe004440a900c01a20008f
:100230000000e0000300320000002000a001880060
:100240004440a8000000060000d820000100200063
:100250001600370062004000e080480091018800ed
:100260009001ba0062004000e080480091018800df
:100270009002ba0062004000e08048000002eb00fb
:100280006028e10005003a008301e900070033001f
:10029000038009000059eb00040037006128e100e9
:1002a000010032000082eb00050007009101880088
:1002b0001001ba000200e000e6ff3a00000005006d
:1002c000910188008002780062004000e0804800d0
:1002d0003559ba008301e900080032002559ba00f7
:1002e0008301e900050032000400e000f4ff320061
:1002f00015d9ba008301e900f1ff3a0000000600b9
:100300000200fa0011e1a80000003700870507008d
:100310000041880000418000000f78001e00780036
:10032000e30f5000270032001e007800e30f50005a
:1003300007003e001e007800e10f5000130032005d
:100340001e007800e10f50001c003e000d00370039
:100350001e007800e50f5000350032001e007800c6
:10036000e50f5000210039001e007800e60f500014
:10037000350032001e007800e70f50003f003200c9
:10038000e2ff37005b000700e0ff370010c0b3005a
:10039000fc000700a0ca280002020700a0002000fd
:1003a000a900070000ccb300f6000700a0cb28008e
:1003b000fc0107000a040700d4ff370018040700f7
:1003c000d2ff370010c0b300ee000700b0cc280009
:1003d000f401070024040700401f20009a000700d2
:1003e0005205070008020700c8ff3700200320005d
:1003f00095000700b04280000000e800b04288008d
:10040000b0428000f40f500005003600500120007b
:10041000b0428800500020004805070011e1a80004
:10042000b0428000ad030700b6030700b7ff3700f6
:1004300010c0b300d3000700a0cd2800d9010700e9
:1004400022040700b1ff370010c0b300cd00070041
:1004500090ce2800d30107009c030700ea010700a3
:10046000904280000000e000a8ff3a003504070039
:10047000a003070090428800a4ff370010c0b3001b
:10048000c000070020cf2800c601070000ccb30041
:10049000bc000700803e20006b000700e0cf280072
:1004a000c0010700803e20006700070010d0280030
:1004b000bc010700803e20006300070040d02800f8
:1004c000b8010700803e20005f00070070d02800c0
:1004d000b4010700803e20005b000700a0d0280088
:1004e000b001070011e1a90030002000130507004a
:1004f00086ff37000000fa0078000700a000200007
:100500005100070084000700a00020004e000700f3
:10051000d0d02800a301070000ccb3009900070049
:1005200030732000eb010700800c2000460007001c
:1005300090d128009b010700401f200042000700c7
:10054000d0d12800970107002b030700800c200062
:100550003d000700d0d128009201070004000700e9
:1005600010002000f50407000080fa0000000600db
:100570000000fa0097c0bf007040b30097e0b700da
:100580000111200091407800f0ccb30000c0600061
:1005900010e1b7000000eb003008880000002900df
:1005a0006008880084c0a9008cc0a80011e1a900df
:1005b0000080fa00000006003600f800809fbe00b0
:1005c000829fbe00849fbe00869fbe003400f8005c
:1005d00000c0b300a00188000000fa000000eb009a
:1005e000300888004703070090428000e10f500068
:1005f0000c003a00db02a800a04280000000e800e6
:10060000a0428800a0428000f90f500005003a0087
:100610000000eb00a04288000000eb009042880040
:10062000db02a90084c0a9000080fa003400f900b0
:100630004f03be004f02be004f01be004f00be0080
:100640003600f900004006000200fa00000f7800b2
:1006500005e1a800060037000000eb000008880054
:100660000108800020732000808f5000fcff3600be
:100670001e0fe9000080eb009e0f1000f6ff3a000d
:1006800005e1a9000000eb00000888000080fa00e6
:10069000000006000200fa00000f780005e1a80043
:1006a000050037000000eb0000088800000880000b
:1006b000e10f5000fdff36001e0fe9000080eb0047
:1006c0009e0f1000f7ff3a0005e1a9000000eb00c3
:1006d000000888000080fa00000006000000fa0010
:1006e000ca42a900ca62a900ca82a900caa2a90076
:1006f000c642a900c662a900c682a900c6a2a90076
:10070000ca22a900c622a900ca02a900c602a900dd
:100710000080fa00000006000000fa0020c0b300cc
:100720001800070010002000c7ff070080c2b300b8
:100730001400070010002000c3ff070080c0b300b2
:100740001000070010002000bfff070060c0b300ca
:100750000c00070010002000bbff0700f0c0b30032
:100760000800070010002000b7ff070010c0b3000a
:100770000400070050002000b3ff07000080fa00cb
:10078000000006000200fa00004f7800ca02a9002b
:100790009e80fb0000082000008060004780de0093
:1007a0006140600061406000004040000040400047
:1007b000004040000040400000414000a12c2000cb
:1007c00091407800f0cdb30000c06000024070009e
:1007d000cae2b7009e80fb00000420000080600099
:1007e0004680de00614060006140600000404000e3
:1007f000004040000040400000414000a12c20008b
:1008000091407800f0ceb30000c06000024070005c
:10081000cae2b7009e80fb0000022000008060005a
:100820004580de00614060006140600000404000a3
:100830000040400000414000a12c20009140780081
:1008400070cfb30000c0600002407000cae2b70081
:100850001e80fb00700060004480de00614060008c
:10086000614060000040400000414000a12c200099
:1008700091407800b0cfb30000c06000024070002b
:10088000cae2b700ca22a8004001200081ff070089
:10089000ca22a9001e80fb00680060004380de00c1
:1008a0006140600061406000004040000040400046
:1008b000004040000040400000414000a12c2000ca
:1008c00091407800f0cdb30000c06000024070009d
:1008d000cae2b7001e80fb00640060004280de00b8
:1008e0006140600061406000004040000040400006
:1008f0000040400000414000a12c200091407800c1
:10090000f0ceb30000c0600002407000cae2b70041
:100910001e80fb00620060000080d100614060002a
:100920006140600000404000004040000041400045
:10093000a12c20009140780070cfb30000c060006f
:1009400002407000cae2b7009e40780061c06000bb
:100950006140600061406000614060000040400014
:1009600000414000a12c200091407800b0cfb3009e
:1009700000c0600002407000cae2b700ca22a800ae
:100980004001200043ff0700ca22a9000080fa00ae
:10099000000006000200fa00004f7800ca02a8001a
:1009a0009e80fb0000082000008060004780de0081
:1009b0006140600061406000004040000040400035
:1009c000004040000040400000414000a12c2000b9
:1009d00091407800f0cdb30000c06000024070008c
:1009e000cae2b7009e80fb00000420000080600087
:1009f0004680de00614060006140600000404000d1
:100a0000004040000040400000414000a12c200078
:100a100091407800f0ceb30000c06000024070004a
:100a2000cae2b7009e80fb00000220000080600048
:100a30004580de0061406000614060000040400091
:100a40000040400000414000a12c2000914078006f
:100a500070cfb30000c0600002407000cae2b7006f
:100a60001e80fb00700060004480de00614060007a
:100a7000614060000040400000414000a12c200087
:100a800091407800b0cfb30000c060000240700019
:100a9000cae2b700ca22a80040012000fdfe0700fc
:100aa000ca22a9001e80fb00680060004380de00af
:100ab0006140600061406000004040000040400034
:100ac000004040000040400000414000a12c2000b8
:100ad00091407800f0cdb30000c06000024070008b
:100ae000cae2b7001e80fb00640060004280de00a6
:100af00061406000614060000040400000404000f4
:100b00000040400000414000a12c200091407800ae
:100b1000f0ceb30000c0600002407000cae2b7002f
:100b20001e80fb00620060000080d1006140600018
:100b30006140600000404000004040000041400033
:100b4000a12c20009140780070cfb30000c060005d
:100b500002407000cae2b7009e40780061c06000a9
:100b60006140600061406000614060000040400002
:100b700000414000a12c200091407800b0cfb3008c
:100b800000c0600002407000cae2b700ca22a8009c
:100b900040012000bffe0700ca22a9000080fa0021
:100ba000000006000400fa0010079800a0002000d2
:100bb000a5fe07000000eb00000f780009003700d9
:100bc0001e007800800078001e0090000080400029
:100bd000104078001e0fe8006eff0700a000200004
:100be00099fe07001e007800800078001e0090002b
:100bf00000804000104078000004e000f0ff3a0060
:100c00000080fa00000006000a00fa004007980081
:100c10000e80e80021d22800050009003158780034
:100c20006000b1006100b1000000eb00000f78002f
:100c3000110037009e0178004e009000a2002000b5
:100c4000110009000280d8008000fd0002c3b3003b
:100c5000824040000e80e80000804100014878009a
:100c60001e0fe8004e009000a200200011000900b5
:100c70000280d800400798004e0090000000e0007d
:100c8000ecff3a00080037001e0fe9009e007800d4
:100c90000e80e80000804000104078003dff070013
:100ca000a000200068fe07001e00e000f6ff3c00e8
:100cb0000080fa00000006000000fa000000eb00cf
:100cc000e01688000000eb00c01688000080fa00e3
:100cd000000006000200fa00000f7800f01f21005b
:100ce000d04288001e007800e0428800e042800088
:100cf000c0428800f0ff0700070007001800070047
:100d000000002800000e8800daa2a8001fe1a80059
:100d10000080fa00000006000000fa00d0428000c7
:100d2000200e8800f0702000400e880000f02f0098
:100d3000a00e8800e042800000004000b00e880055
:100d4000e042800000004000c00e8800e0428000c9
:100d500000004000d00e88000080fa00000006006d
:100d60000000fa00e109200091407800f0c8b300cb
:100d700000c0600001c6b300014070009ee0b700f3
:100d8000e111200091407800f0ccb30000c0600079
:100d90001ee1b7000000eb00a0088800c042800000
:100da000d008880086a0a9008ea0a8001fe1a90095
:100db0000080fa00000006000400fa00000f78002e
:100dc000110798001e0078007300b90080007800b9
:100dd000e0428000808040001e00900000804000c3
:100de000000040006002b000b00e88000080fa00f1
:100df000000006000400fa00000f780011079800b8
:100e00001e0078007300b90080007800e042800086
:100e1000808040001e0090000080400000004000e4
:100e2000c00e88000080fa00000006000400fa00ee
:100e3000000f7800110798001e0078007300b900b9
:100e400080007800e0428000808040001e0090001a
:100e50000080400000004000801cb000d00e8800e0
:100e60000080fa00000006000400fa00000f78007d
:100e7000110798001e0078007300b9008000780008
:100e8000e0428000808040001e0090000080400012
:100e90002007b000c04288000080fa000000060071
:100ea000809fbe003400f80000c0b300a00188009d
:100eb0000000fa000000eb00a0088800d14280008a
:100ec000c042800080805000d0088000808f500099
:100ed00004003a00c0428000d0088800daa2a800ce
:100ee00005003700d0428000c14280000100500060
:100ef000d0088800daa2a90086a0a9000080fa0024
:100f00003400f9004f00be00004006000200fa0065
:100f1000881f7800000f780080d22800cd000700dd
:100f2000e1000700804078001e007800014878004a
:100f30001e04e800dc000700004c7800b0d2280056
:100f4000c40007001e84e800d7000700004c7800aa
:100f50001e00780063044000d3000700004c7800b6
:100f60001e00780064044000cf000700004c7800a9
:100f70001e00780065044000cb000700004c78009c
:100f80001e00780066044000c7000700004c78008f
:100f90001e00780067044000c3000700004c780082
:100fa0001e00780068044000bf000700004c780075
:100fb00040d32800a70007001e0078006904400005
:100fc000b9000700004c78001e0078006a04400059
:100fd000b5000700004c78001e0078006b0440004c
:100fe000b1000700004c78001e0078006c0440003f
:100ff000ad000700004c78001e0078006d04400032
:10100000a9000700004c78001e0078006e04400024
:10101000a5000700004c78001e0078006f04400017
:10102000a1000700004c78001e007800700440000a
:101030009d000700004c78001e00780071044000fd
:1010400099000700004c780000d4280081000700b8
:101050001e0078007204400093000700004c7800e6
:101060001e007800730440008f000700004c7800d9
:101070001e007800740440008b000700004c7800cc
:101080001e0078007504400087000700004c7800bf
:101090001e0078007604400083000700004c7800b2
:1010a0001e007800770440007f000700004c7800a5
:1010b0001e007800780440007b000700004c780098
:1010c0001e0078007904400077000700004c78008b
:1010d0004f0478000080fa00000006000400fa00c7
:1010e000100798000000eb00000f7800090037009f
:1010f0001e007800800078001e00900000804000f4
:10110000104078001e0fe80022fe070010002000ab
:101110004dfd0700100020009e0f1000f4ff34006a
:10112000090037001e007800800078001e00900043
:1011300000804000104078001e0fe80015fe0700f8
:101140001000200040fd0700800020009e0f1000ce
:10115000f4ff340000ccb3008afd0700100020002b
:1011600039fd0700090037001e0078008000780074
:101170001e00900000804000104078001e0fe80024
:1011800004fe0700100020002ffd070010012000c2
:101190009e0f1000f4ff3400090037001e00780095
:1011a000800078001e009000008040001040780011
:1011b0001e0fe800f7fd07001000200022fd0700c9
:1011c000900120009e0f1000f4ff340080382100b1
:1011d0001dfd070010c0b3006afd070010002000cd
:1011e00019fd07000080fa00000006000000fa0068
:1011f0000080fa00000006000000fa00004028000d
:10120000601088000040200070108800200020003e
:10121000a01088000080fa00000006000200fa001a
:10122000000f78000080fa00000006000200fa00bb
:10123000004f78001e80fb00801088000fc2bf00a6
:10124000614060000004e000fcff32000080fa0012
:10125000000006000400fa00100798000000eb00f0
:10126000000f7800070037001e007800800078002b
:101270001e00900000804000104078001e0fe80023
:10128000eaff07001e007800800078001e00900032
:1012900000804000104078000004e000f2ff3a00b7
:1012a0000080fa00000006000000fa000ec2bf0035
:1012b000614060000004e000fcff320090108000fc
:1012c0000080fb000080fa00000006000000fa0029
:1012d000f04180000080fa00000006000200fa00e1
:1012e000000f78001e007800f04188000080fa00ae
:1012f000000006000000fa00f04080000080fa00c4
:10130000000006000000fa0000408000e10f5000dd
:1013100005003a000001eb008000eb000000eb004c
:10132000f20007002c00370010408000e10f500051
:1013300005003a000001eb008000eb000000eb002c
:10134000ea0007002400370040408000e10f500011
:1013500005003a000001eb008000eb004001200096
:10136000e20007001c00370050408000e10f5000f1
:1013700005003a000001eb008000eb00c0fe2f00ea
:10138000da0007001400370020408000e10f500011
:1013900005003a000001eb00410120000000eb00d5
:1013a000d20007000c00370030408000e10f5000f1
:1013b00005003a000001eb00c1fe2f000000eb0029
:1013c000ca000700040037000001eb008000eb00ba
:1013d0000000eb00c50007000080fa0000000600d6
:1013e0000000fa00b0ff07001ae8b700a181200052
:1013f00091407800e0c6b30080cf500006003a006c
:10140000300020004d01070010c0b300ddfc0700d4
:10141000c0d42800e3fd07000080fa0000000600a9
:101420000000fa00a0ff07001ae8b700a181200021
:101430009140780030c6b30080cf500008003a00d9
:10144000300020003d01070000ccb300cdfc0700b8
:10145000d0d52800d3fd0700401f20007afc0700ec
:101460000080fa00000006000000fa0000ccb30083
:10147000c4fc0700b0d62800cafd07008aff070099
:101480001ae8b70010d72800c6fd0700a181200088
:101490009140780060c6b30080cf500005003a004c
:1014a000400020002501070070d72800bdfd07007f
:1014b0000400370000ccb300b2fc0700c0d72800fe
:1014c000b8fd07000080fa00000006000000fa00e6
:1014d000fc00070074ff07001ae8b7008520a90088
:1014e000a181200091407800f0c6b30080cf500069
:1014f00012003a001000200000408800f0418000f7
:101500000000e800f0418800f0418000f60f500034
:101510000a0036000000eb00e04188006000200077
:1015200006010700f141800010062000808f500066
:101530000200360010062000f04188000080fa000a
:10154000000006000000fa00de00070056ff07005a
:101550001ae8b7008520a900a181200091407800f9
:10156000f0c6b30080cf500013003a0010002000f6
:1015700000408800f04180000000e800f041880051
:10158000f0418000f60f50003f0036000000eb00f5
:10159000e041880060002000e8000700f141800081
:1015a00010062000808f5000370036001006200003
:1015b000f041880034003700a1812000914078007c
:1015c00000c7b30080cf500010003a001000200088
:1015d00010408800f04180000000e900f0418800e0
:1015e000f0418000f50f500027003e007000200001
:1015f000d20007000000eb00e0418800500120000d
:10160000f0418800be0007001f003700a1812000c4
:101610009140780070c7b30080cf500003003a00bb
:10162000100020004040880017003700a1812000f2
:101630009140780030c7b30080cf500003003a00db
:1016400010002000504088000f003700a1812000ca
:101650009140780010c6b30080cf500003003a00dc
:10166000100020002040880007003700a1812000e2
:101670009140780040c6b30080cf500002003a008d
:10168000100020003040880000408000e10f500032
:101690000f00320010408000e10f50000c003200bb
:1016a00020408000e10f50000900320030408000ef
:1016b000e10f50000600320040408000e10f500072
:1016c0000300320050408000e10f500003003a0058
:1016d00010002000f0408800020037000000eb00fe
:1016e000f04088000080fa00000006000600fa00c2
:1016f000000f78001107980022079800e041800051
:10170000e10f500006003a00280007002e0190006b
:101710009e0090001e00780027000700110037008f
:1017200061408000804080000080500000428800be
:1017300071408000604080000080500010428800ae
:10174000814080006040800000804000204288008e
:10175000704080008000ea006040800000805000ff
:10176000304288000042800080007800f041800014
:1017700091fd07001042800080007800f041800059
:101780009cfd07002042800080007800f04180002e
:10179000a6fd07003042800080007800f041800004
:1017a000b1fd07000080fa00000006000000fa000a
:1017b0000080fa00000006000600fa00000f780022
:1017c0001107980022079800904080008000780060
:1017d0000002eb008001eb000001eb001e0078002e
:1017e0001300070070408800a0408000800078004f
:1017f0000002eb008001eb000001eb001e009000f6
:101800000b00070080408800b04080008000780016
:101810000002eb008001eb000001eb002e009000c5
:1018200003000700604088000080fa000000060006
:101830000a00fa00000f78001107980022079800ac
:1018400033079800440798001e0090001e00100007
:101850007042880081428000704280000080400019
:101860008042880070428000800078002e00900046
:101870000088b900404288008042800080007800e3
:101880003e0090000088b90050428800c0408000af
:10189000800078004e0090000088b9006042880007
:1018a00041428000504280008080400060428000c1
:1018b00000804000e0408800e04080000080fa00a6
:1018c000000006000000fa000000eb000040880065
:1018d0000000eb00104088000000eb002040880072
:1018e0000000eb00304088000000eb004040880022
:1018f0000000eb00504088000080fa000000060065
:101900000000fa000000eb00604088000000eb00df
:10191000704088000000eb00804088000000eb0071
:10192000c04088000080fa00000006000000fa00b5
:10193000f04280000080fa00000006000200fa0079
:10194000000f78001e007800f04288000080fa0046
:04195000000006008d
:020000040000fa
:0200000401f009
:04000000f4ff000009
:020000040000fa
:0200000401f009
:04000400ff7f00007a
:020000040000fa
:0200000401f009
:040008007fff000076
:020000040000fa
:0200000401f009
:04001400ffff0000ea
:020000040000fa
:10000800bc0d0000bc0d0000bc0d0000bc0d0000c4
:10001800bc0d0000bc0d0000bc0d0000bc0d0000b4
:10002800bc0d0000bc0d0000bc0d0000bc0d0000a4
:10003800bc0d0000bc0d0000dc020000bc0d00007f
:10004800bc0d0000bc0d0000bc0d0000bc0d000084
:10005800bc0d0000bc0d0000bc0d0000bc0d000074
:10006800bc0d0000bc0d0000bc0d0000bc0d000064
:10007800bc0d000050070000bc0d0000bc0d0000c6
:10008800bc0d0000bc0d0000bc0d0000bc0d000044
:10009800bc0d0000bc0d0000bc0d0000bc0d000034
:1000a800bc0d0000bc0d0000bc0d0000bc0d000024
:1000b800bc0d0000bc0d0000bc0d0000bc0d000014
:1000c800bc0d0000bc0d0000bc0d0000bc0d000004
:1000d800bc0d0000bc0d0000bc0d0000bc0d0000f4
:1000e800bc0d0000bc0d0000bc0d0000bc0d0000e4
:0800f800bc0d0000bc0d00006e
:020000040000fa
:10010800bc0d0000bc0d0000bc0d0000bc0d0000c3
:10011800bc0d0000bc0d0000bc0d0000bc0d0000b3
:10012800bc0d0000bc0d0000bc0d0000bc0d0000a3
:10013800bc0d0000bc0d0000dc020000bc0d00007e
:10014800bc0d0000bc0d0000bc0d0000bc0d000083
:10015800bc0d0000bc0d0000bc0d0000bc0d000073
:10016800bc0d0000bc0d0000bc0d0000bc0d000063
:10017800bc0d000050070000bc0d0000bc0d0000c5
:10018800bc0d0000bc0d0000bc0d0000bc0d000043
:10019800bc0d0000bc0d0000bc0d0000bc0d000033
:1001a800bc0d0000bc0d0000bc0d0000bc0d000023
:1001b800bc0d0000bc0d0000bc0d0000bc0d000013
:1001c800bc0d0000bc0d0000bc0d0000bc0d000003
:1001d800bc0d0000bc0d0000bc0d0000bc0d0000f3
:1001e800bc0d0000bc0d0000bc0d0000bc0d0000e3
:0801f800bc0d0000bc0d00006d
:020000040000fa
:10195400576500006c6300006f6d00006520000097
:10196400746f000020460000554600004f00000040
:10197400707200006573000073200000436f000064
:101984006e6e00006563000074200000646900004e
:1019940000500000726500007373000020530000c3
:1019a400746100007274000020640000690000008b
:1019b4004469000065750000206b00006869000040
:1019c400656e0000206400006921000000540000de
:1019d4006872000075730000742000003a00000073
:1019e400446f000069200000786900007520000041
:1019f400646900002100000035200000003400006c
:101a0400200000003320000000320000200000000d
:101a140031200000005000006c650000617300007c
:101a2400652000007761000069740000002e00004a
:101a34002e2e0000002e00002e2e00002e0000008e
:101a440041720000726100007900000041540000fe
:101a540000410000542b00004241000055440000a6
:101a640036000000415400002b4e0000414d0000a0
:101a740045460000554600004f0000004154000058
:101a84002b500000494e0000313200003334000076
:101a940000000000506800006f6e00006520000028
:101aa400636f00006e6e00006563000074650000e3
:101ab400642100000050000043200000636f000018
:101ac4006e6e000065630000746500006421000010
:101ad40000760000616f000020200000007100000b
:101ae40075610000202000000064000063200000f5
:0c1af400200000006c6f00006900000082
:020000040000fa
:101b00005208000006000000020000000000000073
:101b100000000000200800001c0000000000000081
:101b20005808000006000000000000003c0800000b
:101b3000160000000200000000000000000000008d
:101b40000000000000000000000000000000000095
:101b5000000000000000000000080000200000005d
:101b6000000000005e08000002000000020000000b
:081b700000000000000000006d
:020000040000fa
:041b78000000fe006b
:00000001FF
