:020000040000fa
:080000000001040000000000f3
:020000040000fa
:10020000af9d200080ff200000018800000000005a
:10021000050007000c0007005c0a02000000000057
:100220000040da000000fe004440a9000019200050
:100230000000e0000300320000002000a001880060
:100240004440a80000000600e0e922000100200070
:100250001600370062004000e080480091018800ed
:100260009001ba0062004000e080480091018800df
:100270009002ba0062004000e08048000002eb00fb
:100280006028e10005003a008301e900070033001f
:10029000038009000059eb00040037006128e100e9
:1002a000010032000082eb00050007009101880088
:1002b0001001ba000200e000e6ff3a00000005006d
:1002c000910188008002780062004000e0804800d0
:1002d0003559ba008301e900080032002559ba00f7
:1002e0008301e900050032000400e000f4ff320061
:1002f00015d9ba008301e900f1ff3a0000000600b9
:10030000811f78000100e00002003d006000100045
:10031000e08018000300e00002003d0060011100d1
:10032000e08119007f0207004f00e00002003b005f
:1003300060001000e080180000000600839f680045
:100340000100e00002003d0060001000e0801800a5
:100350000300e00002003d0060011100e08119008f
:100360007b0107004f00e00002003b00600010002e
:10037000e080180000000600889fbe008a9fbe0033
:10038000010578000100e0000400350008003c0091
:100390000000e0002000320005003700600010007f
:1003a000e080180002003b0001f02c001a0037002a
:1003b0000004be006011b8006b0920000982cf0064
:1003c000020039000882cf000441b00069425200a7
:1003d0000e00320008003b00828171006101640060
:1003e0008904d1000884d3008b05e8000442e800aa
:1003f000f9ff3a00050037000804440089844c00e6
:100400008b05e9000442e900fbff3a0048020700bf
:100410000af0a70001f0a0004f05be004f04be0087
:1004200000000600889fbe008a9fbe008c1f7800d7
:10043000650207006c02330003866c006450e10023
:10044000240032006420e100270032006150e10006
:10045000220032006120e100210032008b85420041
:10046000eb07b1000134b800003ab80008044200bc
:1004700089844a00013ab8000030b8008880400002
:1004800009014a0004003300000040008180480058
:10049000020149008b05e900c909dd0083017000f4
:1004a0000100320013002000c814de004814dd00f3
:1004b0004709de001200b200c808de0008847000a0
:1004c0001b02070001f0a1000cf0a70001f0a00042
:1004d0004e0237006120e100500232000801be00e8
:1004e0000200be00f7ff37006150e100fcff3a0058
:1004f0004a023700889fbe008a9fbe008c1f78008a
:10050000310207003802330003866c006450e100ba
:100510002e0032006420e100330032006150e1001f
:100520002f0032006120e100310032008585550046
:10053000eb07b00009002000080420000500370088
:100540000804440089844c000a003100060343007b
:1005500087834b000001530081815b00f8ff33006b
:100560000203be000800a0000804440089844c0077
:10057000f6ff3900c639dd00830173000100320047
:10058000130020008904d1000884d3000998a30037
:10059000050032000800a7000300a0008904d10074
:1005a0000884d3008b05e8008904d1000884d300b7
:1005b0000001eb000281d200dd01070001f0a10083
:1005c0000cf0a70001f0a000100237006420e10049
:1005d000120232000801be000200be00f7ff370021
:1005e0006120e1000d0232006000b800f3ff370027
:1005f0000000200001f82700f0ff37000001be00d6
:10060000090207000470a70003f0a1006509b1000a
:10061000160032000d0035006828e10006003500a4
:10062000f0ff2f00f1ff27000300e00013003b0064
:100630000100280000000500000040008180480003
:100640008502e900fcff3a0008003700f88f4200fd
:1006500002003c008000eb00000005008100d1009a
:100660000080d3008502e800fcff3a000300e000b0
:1006700002003b0060001000e0801800000006004f
:1006800003f0a200889fbe008a9fbe008c1f7800e6
:10069000cd010700d40133006450e1004f00320067
:1006a0006420e1005200320003826c0007003b002e
:1006b0000905d0000306d000820f54000c065d002f
:1006c0000200390002003200890178000306780038
:1006d0008582550004003d000003fd008103fd00fc
:1006e0008502ea008b854200840f720002003b0005
:1006f00060001000e08018006011b8000005eb00f9
:100700007a28e1000a00390006007800c75ddd00a4
:10071000f707b200878075002d00370082817100d5
:100720000a017800610560008180d1000080d3005b
:100730008502e900f9ff3b00060440008784480079
:1007400002003b0060041400e0841c000988a30040
:10075000070032008a8171008281710061016400aa
:100760008904d1000884d3008b05e8001700370006
:100770000978a30013003a000b00e00013003400d6
:100780008b05e9000804440089844c000a44740085
:100790000978a3000d003a000b00e00007003400c8
:1007a0008b05e9000804440089844c0001003a00ec
:1007b0000b0020000978a300f7ff32000001eb00d6
:1007c00002003700828171000a0178005801070099
:1007d0000cf0a70001f0a0008c0137006420e100bc
:1007e00002003a00838f6c008c0133000801be00c8
:1007f0000200be0085013700f4ff2f009f01370083
:10080000140020009d013700889fbe008a9fbe0013
:100810008c1f78000004be00830107000478a30049
:1008200026003a006120e1002500320009f8a3000b
:1008300025003a006420e10021003200f507b100f4
:100840000508a3000200320000004000818048003b
:100850006044b800031020000200200000004000a7
:10086000818048000805440089854c000a05410044
:100870008b8549000a0550008b8558000300330022
:100880000a00be0002047400838474008301d10056
:100890000281d300830f7100f0ff3a008904d10078
:1008a0000884d3006001490082017800c1adde00f8
:1008b000fb07b0001e010700540137000960a000cb
:1008c0000800be005101370012022000c24e88000d
:1008d000f0ff2f00f1ff27004c013700889fbe007a
:1008e0008a9fbe008c1f780037010700100220008d
:1008f00002003b00c04e88003b0137008a006200c6
:100900006408e10002003a00c04e8800430137004d
:100910006108e100fcff32000800be00030478001b
:10092000f4fe070001f0a1006f01070008f0a60027
:10093000040037000001be0091042400b0fd200037
:100940004fff070009f0a70001f0a2002f013700b8
:100950006022b800060220000000d0008180d20092
:100960000482d2008582d2000000a0000202520060
:1009700083825a0003003b000202420083824a0045
:100980000000a1000603e900f3ff3a0000000600a2
:100990000c00fa00889fbe008a9fbe008c9fbe009c
:1009a000090107000206be00840578000200be00af
:1009b00002002000b101070005003a008b02b300dd
:1009c00012002000ad01070001003a00f8856d001b
:1009d0000c01be00c60007000800be009b003200ec
:1009e0000b08a3009e003a000df0a7000be0a0004a
:1009f00009f0a7000bf0a00009f0a1000801be005b
:100a0000bb0007000bf0a6009500320001003c007f
:100a10000bd0a0008acf7500b20033006000b80090
:100a20006250e10099003900a1003e000b28a300ac
:100a3000a2003a000bf8a300060032000b58a300f6
:100a4000a70032000801be00a90007000800be0090
:100a5000940032000800be00af0107000004be0091
:100a6000050578000bf0a7000b30a6000bf0a100e5
:100a70005b079800324f200053f3230060ff07000c
:100a800005003d000800be0012002000af01070075
:100a90000004be000a05e9004a0798006150b90049
:100aa00035fe0700008fbe000c01be005dfe070092
:100ab000d2fe0700300798000100e00002003d0070
:100ac00060001000e0801800f2ff2700820f500045
:100ad000e08f580064003e000c00be00c7fe070017
:100ae00020079800f2072000820f5000e08f580086
:100af00005003c0012f82f00f3ff2f00820f50007a
:100b0000838f580009003d000a00e0000300320016
:100b100001003c000201ea00020578006000b80014
:100b2000200798003a079800190037003e0090000f
:100b30006100b90010fe0700809fbe000c00be00df
:100b40004109dd004811de007208b1004b010700c9
:100b50000005be001e01be0032fe07004f01be00b0
:100b6000c7fe0700809fbe000c00be000a01be0049
:100b7000c3fe07001e01be002afe07004f01be0093
:100b8000c0fe07008221270013f3230025fe070083
:100b90000005be002e0090006100b900f6fd0700c0
:100ba00001f0a2000c01be00b6fe07000006be0068
:100bb0000800be00870107000c01be0019fe0700f7
:100bc0000a01be00affe0700809fbe004a0007007a
:100bd0002e0590000af0a7000a05ea00050037007c
:100be0000800be000801be000efe07000004be00a3
:100bf0000c00be000801be000a00a70009fe0700a5
:100c00000006be000a05d100f5ff3a005e01900023
:100c100002e0a600030037000001be003600070016
:100c200034fe07000004be004f00be00c0010700f4
:100c30000801be00fbfd07003e01900043010700d4
:100c4000de0590000bf0a70001f0a2004f06be00e9
:100c50004f05be004f04be000080fa0000000600f1
:100c600025000700f9ff3700270007006000b800e3
:100c70000bd0a7000bc0a0000be0a7000bc0a20088
:100c80000bc0a70001f82700f0ff37000df8a30004
:100c9000020032001e000700190007000bf8a30035
:100ca000eaff32000b30a70001f0a200e7ff370097
:100cb0000df8a300f9ff3a00f7ff37000801be0066
:100cc0000b000700e6ff320001003c000df0a2001f
:100cd0006000b8000df0a70009000700dbff370037
:100ce0000b000700f1ff2700f0ff2f00d7ff3700b0
:100cf00001000700c2fe370001f8230000000500d4
:100d000001f8270000000500200220000100370044
:100d100010022000c04e88000000060004002000e1
:100d2000560037000aff07000400be00000006005e
:100d300081002000618055000b003d000b00200069
:100d400061fe2f000100e1001d003400828171006e
:100d5000610164008904d1000884d3000000e80028
:100d6000faff3a0071002000610064000300700087
:100d7000020060000900320061044400e0844c007d
:100d80000988a500050032008b05e8006808e1002d
:100d900002003a008904d1000884d300f20f200039
:100da0000258e10005003d00c75ddd00f907b20013
:100db0008980750008007800000006000bf8270005
:100dc0008b007800000005000004be00160007003c
:100dd0000003be000405be000200be0012000700b2
:100de000844f7500000006000200be006450e10060
:100df000050036006420e100020036000968a30007
:100e000001003a000800be000160a0004f06780013
:100e10004f05be004f04be0000000600f0ff2f008b
:100e2000f1ff2700f9ff3700c70ade00f107b20023
:100e3000f50fb20008003200e1cf4200020032009c
:100e40000170a00024000500810f70000100320035
:100e50000408050044000500810f700002003a00fc
:100e6000140005008502e9000000400081c0480030
:100e7000fcff3b000170a00024000500889fbe001d
:100e80008a9fbe00841f7800cfff07004f007800c4
:100e900011003300f0ff2f00838f6c0006003b0031
:100ea000040565000a00a7000800370009f0a60045
:100eb0001000200008003700820f5400838f5c0070
:100ec000030039001000200001003e000000200057
:100ed00009f0a7000000ea004f05be004f04be0065
:100ee0000000e00000000600889fbe008a9fbe0050
:100ef0008c9fbe000004be00cbff07000800be00b0
:100f0000890678006420e1000800390004003200fe
:100f10000160a00012022000c24e8800530037007a
:100f200091fc2300b0fd20004e0037000006eb00ce
:100f300009f0a10003f82300020020000800be0011
:100f40002ffe07000600340001f8230000002000f7
:100f50000801be0067fd07000004be002c00200051
:100f60000800be0093e82300320a230024fe070095
:100f7000120034000801be00d1fd2300703d2b009b
:100f8000c0fd07000005be00b3f32300f27a26007f
:100f90000800be0023fd070003f823000200200024
:100fa000b7fd07000801be00b6fd07000a01be003c
:100fb00050fd07000004be000c06e8000800be005b
:100fc00001f0a10002002000039823000cfe07009e
:100fd0000800be00160035000801be0011fd070024
:100fe0000005be0032cd2c0043fb2300a5fd070009
:100ff000809fbe001269280003d52b000a00be00a6
:1010000008fd0700620f210013ef2b009dfd070074
:101010000a01be0003fd07004f01be0035fd0700b9
:101020000801be00fffc07000801be0095fd070097
:101030000c00e0000b0032000c10a70001f0a20031
:10104000b2fd200093fc23006260e1000400320046
:1010500022a9200063f023000c10a70063f82300ee
:1010600088fd07000df0a70001f0a2004f06be00aa
:101070004f05be004f04be0000000600889fbe0062
:101080008a9fbe000003be0067ff07008505780049
:1010900082815200020020006220e10004003a0038
:1010a000f307b100040035007718e10004003500b3
:1010b0000600be00140037006000b8000f003700c3
:1010c000f50f2000faff2f008502d1000a85d3001a
:1010d0008301e900fcff3b0081846200000465009d
:1010e000890f7400f2ff32008582ea000a85ea0067
:1010f00081846200000465000dff070007f0a7006f
:1011000001f0a0000081eb000200e0004f05be00ee
:101110004f04be00000006000003be0042ff0700af
:101120006220e100020032000600be00050005005a
:10113000e507b100f107b20004f0230084807000dd
:1011400007f0a70001f0a000240005000003be0086
:1011500035ff07006220e100020032000600be00f9
:101160000000060085024100e30f20000328e10093
:1011700005003c00a3fe2f000328e10007003d000e
:101180000500200001003700f50f2000200220009c
:10119000c04e88006000b80008003700130020002f
:1011a0008381520005003d008100d1000080d30002
:1011b0008301e800fcff3a0005002000c72add009b
:1011c000f107b2008580700007f0a70001f0a000d1
:1011d00000000600889fbe008a9fbe008c9fbe0054
:1011e000cdff0700850478000005be006420e10003
:1011f00049003e006220e100030032000900350092
:101200000bf8a300440032000bf8a30008003200e2
:1012100010022000c04e8800f0ff2f00f1ff2700d1
:101220003d00370001f82f00000020003a00370091
:101230003d00070012fd07000006be000a00be00c8
:10124000324f200053f323006bfd070006003400eb
:101250000c00be003400070009fd07000006be00b8
:101260000a00be00020037008904e9000c00be003d
:101270002d0007006bfc07002b00070001fd070095
:101280000001be000c00be009afc07000005be0075
:101290000001be0063fc07000006be00a2f32300ad
:1012a000430d2c00f7fc0700809fbe000c00be0021
:1012b000d2e32700d3f02b005afc07004f01be00f9
:1012c0008cfc07000006be000a01be0055fc0700aa
:1012d0000a01be00ebfc07000006be006148b90031
:1012e00025fc07000005be0032082800e3952b000e
:1012f0004cfc07000c01be00e2fc07000006be002b
:101300000a00be000200280013f3230045fc07007a
:101310000c01be00dbfc07004f06be004f05be00ff
:101320004f04be000000060003f023000200050089
:10133000889fbe008a9fbe008c9fbe000004be0036
:10134000b9fe07000800be006420e10048003e002e
:101350005500320072212700132b240026fd0700c0
:1013600047003c000800be00c2ec2800e32c2c0023
:1013700023fd0700470035000800be0001f0a10072
:1013800002002000033823001dfd07004300350044
:101390000800be00b2a32a0083fb230021fc070043
:1013a0000200200003f0230001f0a70003f0a000da
:1013b000b4fc070091fc07000005be00eefb07002f
:1013c00001f0a2000006be000200280013f3230073
:1013d00014fc07000801be00aafc0700809fbe00a5
:1013e0000c00be0032082800e3952b000dfc07001e
:1013f0004f01be00a3fc07000006be000001be00b6
:1014000008fc0700809fbe004241250083b82300ee
:1014100004fc07000200200003e8230099fc0700f9
:101420000c01be00fffb07000006be004f00be001f
:10143000f2f92b00c3d42300fafb070002002000be
:1014400003f023008ffc07000c01be008cfc07009a
:101450000001be000c00be0026fc070002002000b8
:1014600003f0230087fc07006101450037ff0700f8
:101470004f06be004f05be004f04be000000060030
:1014800001f827000000200022022000c24e880040
:10149000f7ff37006000b800fbff370001f82300ba
:1014a00000002000f2ff370009f8a300f0ff32002f
:1014b0006000b800eeff37000200fa0000003700bd
:1014c00045090700f04c8800f04c8000000f7800c0
:1014d0001e007800e30f50002d0032001e0078003f
:1014e000e30f500007003e001e007800e10f50009f
:1014f000130032001e007800e10f50001e003e0075
:101500000d0037001e007800e50f50003600320055
:101510001e007800e50f5000230039001e007800ff
:10152000e60f5000360032001e007800e70f500032
:1015300042003200e2ff370046000700e0ff3700bc
:1015400010c0b3002f01070060dd2a00350207003c
:10155000a0002000dc00070000ccb3002901070038
:1015600060de2a002f0207003a0507001000200065
:10157000d7080700d2ff370010c0b30021010700d1
:1015800070df2a002702070012050700ccff370092
:1015900010c0b3001b01070070e02a002102070001
:1015a0003e050700c6ff3700150c0700e4040700de
:1015b000f04d8800f04d80000000e800f04d8800fc
:1015c000f14d800080022000808f50000200340026
:1015d00090022000f04d8800f04d8000dc040700f0
:1015e000ec040700b6ff370010c0b3000501070088
:1015f00050e12a000b0207003f050700b0ff37004b
:10160000404e8000e20f5000050034001000200022
:10161000bf0807002c0f07000000eb00404e8800b9
:10162000004e80000000e000a5ff3a0051050700d1
:10163000cd040700004e8800a1ff37001fe1a9007c
:10164000c1e1a90011e1a90030002000e60807006f
:101650009bff37000000fa00c0000700a000200038
:1016600099000700cc000700a000200096000700aa
:10167000f0e12a00eb01070000ccb300e100070015
:10168000a2020700800c20008f000700b0e22a00b1
:10169000e4010700401f20008b000700f0e22a0051
:1016a000e0010700b6030700800c20008600070059
:1016b000b0e22a00db010700f4090700800c2000db
:1016c0008100070040e32a00d60107003009070027
:1016d000800c20007c00070040e32a00d1010700b5
:1016e000c10a0700800c200077000700b0e22a0042
:1016f000cc010700ac0d0700800c20007200070031
:10170000b0e22a00c7010700050007001a00070021
:1017100010002000b40807000080fa000000060056
:101720000000fa00710920009140780080cfb300da
:1017300000c060006040b30097e0b70001112000d6
:1017400091407800f0ccb30000c060000044a000dd
:1017500010e1b7000000eb003008880000e2240030
:101760006008880084c0a9008cc0a80011e1a9000d
:101770000080fa00000006000000fa00211120009d
:1017800091407800f0ccb30000c060000044a0009d
:1017900012e1b7000000eb005008880013e1a80038
:1017a0000080fa00000006003600f800809fbe00ae
:1017b000829fbe00849fbe00869fbe003400f8005a
:1017c00000c0b300a00188000000fa0084c0a90096
:1017d000404e80000000e800404e8800504e8000df
:1017e0000000e800504e88000000eb003008880040
:1017f00068040700004e8000e10f500013003a001b
:10180000db02a800e04d80000000e800e04d880009
:10181000e14d800020032000808f50000b003a0033
:101820000000eb00e04d88000000eb00004e880057
:10183000dbc2bf00614060000004e0000200320033
:10184000db02a90001003700db02a8001c0807002a
:101850000000e00012003a00204e80000000e80086
:10186000204e8800214e8000800c2000808f500088
:101870000d003a000000eb00204e88000000eb0055
:101880001d0807000000eb00210807006000b800f9
:1018900039040700700020005308070002003700d9
:1018a0000000eb00204e88000080fa003400f900b0
:1018b0004f03be004f02be004f01be004f00be00ee
:1018c0003600f900004006000200fa00000f780020
:1018d00005e1a800060037000000eb0000088800c2
:1018e00001088000f0e72300808f5000fcff3600e5
:1018f0001e0fe9000080eb009e0f1000f6ff3a007b
:1019000005e1a9000000eb00000888000080fa0053
:10191000000006000200fa00000f780005e1a800b0
:10192000050037000000eb00000888000008800078
:10193000ef0f5000fdff36001e0fe9000080eb00a6
:101940009e0f1000f7ff3a0005e1a9000000eb0030
:10195000000888000080fa00000006000000fa007d
:10196000ca42a900ca62a900ca82a900caa2a900e3
:10197000c642a900c662a900c682a900c6a2a900e3
:10198000ca22a900c622a900ca02a900c602a9004b
:101990000080fa00000006000000fa0020c0b3003a
:1019a0001800070010002000c7ff070080c2b30026
:1019b0001400070010002000c3ff070080c0b30020
:1019c0001000070010002000bfff070060c0b30038
:1019d0000c00070010002000bbff0700f0c0b300a0
:1019e0000800070010002000b7ff070010c0b30078
:1019f0000400070050002000b3ff07000080fa0039
:101a0000000006000200fa00004f7800ca02a90098
:101a10009e80fb0000082000008060004780de0000
:101a200061406000614060000040400000404000b4
:101a3000004040000040400000414000a12c200038
:101a400091407800f0cdb30000c06000024070000b
:101a5000cae2b7009e80fb00000420000080600006
:101a60004680de0061406000614060000040400050
:101a7000004040000040400000414000a12c2000f8
:101a800091407800f0ceb30000c0600002407000ca
:101a9000cae2b7009e80fb000002200000806000c8
:101aa0004580de0061406000614060000040400011
:101ab0000040400000414000a12c200091407800ef
:101ac00070cfb30000c0600002407000cae2b700ef
:101ad0001e80fb00700060004480de0061406000fa
:101ae000614060000040400000414000a12c200007
:101af00091407800b0cfb30000c060000240700099
:101b0000cae2b700ca22a8004001200081ff0700f6
:101b1000ca22a9001e80fb00680060004380de002e
:101b200061406000614060000040400000404000b3
:101b3000004040000040400000414000a12c200037
:101b400091407800f0cdb30000c06000024070000a
:101b5000cae2b7001e80fb00640060004280de0025
:101b60006140600061406000004040000040400073
:101b70000040400000414000a12c2000914078002e
:101b8000f0ceb30000c0600002407000cae2b700af
:101b90001e80fb00620060000080d1006140600098
:101ba00061406000004040000040400000414000b3
:101bb000a12c20009140780070cfb30000c06000dd
:101bc00002407000cae2b7009e40780061c0600029
:101bd0006140600061406000614060000040400082
:101be00000414000a12c200091407800b0cfb3000c
:101bf00000c0600002407000cae2b700ca22a8001c
:101c00004001200043ff0700ca22a9000080fa001b
:101c1000000006000200fa00004f7800ca02a80087
:101c20009e80fb0000082000008060004780de00ee
:101c300061406000614060000040400000404000a2
:101c4000004040000040400000414000a12c200026
:101c500091407800f0cdb30000c0600002407000f9
:101c6000cae2b7009e80fb000004200000806000f4
:101c70004680de006140600061406000004040003e
:101c8000004040000040400000414000a12c2000e6
:101c900091407800f0ceb30000c0600002407000b8
:101ca000cae2b7009e80fb000002200000806000b6
:101cb0004580de00614060006140600000404000ff
:101cc0000040400000414000a12c200091407800dd
:101cd00070cfb30000c0600002407000cae2b700dd
:101ce0001e80fb00700060004480de0061406000e8
:101cf000614060000040400000414000a12c2000f5
:101d000091407800b0cfb30000c060000240700086
:101d1000cae2b700ca22a80040012000fdfe070069
:101d2000ca22a9001e80fb00680060004380de001c
:101d300061406000614060000040400000404000a1
:101d4000004040000040400000414000a12c200025
:101d500091407800f0cdb30000c0600002407000f8
:101d6000cae2b7001e80fb00640060004280de0013
:101d70006140600061406000004040000040400061
:101d80000040400000414000a12c2000914078001c
:101d9000f0ceb30000c0600002407000cae2b7009d
:101da0001e80fb00620060000080d1006140600086
:101db00061406000004040000040400000414000a1
:101dc000a12c20009140780070cfb30000c06000cb
:101dd00002407000cae2b7009e40780061c0600017
:101de0006140600061406000614060000040400070
:101df00000414000a12c200091407800b0cfb300fa
:101e000000c0600002407000cae2b700ca22a80009
:101e100040012000bffe0700ca22a9000080fa008e
:101e2000000006000400fa0010079800a00020003f
:101e3000a5fe07000000eb00000f78000900370046
:101e40001e007800800078001e0090000080400096
:101e5000104078001e0fe8006eff07001000200001
:101e600099fe07001e007800800078001e00900098
:101e700000804000104078000004e000f0ff3a00cd
:101e80000080fa00000006000a00fa0040079800ef
:101e90000e80e80081e32a0005000900315878002f
:101ea0006000b1006100b1000000eb00000f78009d
:101eb000110037009e0178004e009000a200200023
:101ec000110009000280d8008000fd0002c3b300a9
:101ed000824040000e80e800008041000148780008
:101ee0001e0fe8004e009000a20020001100090023
:101ef0000280d800400798004e0090000000e000eb
:101f0000ecff3a00080037001e0fe9009e00780041
:101f10000e80e80000804000104078003dff070080
:101f20001000200068fe07001e00e000f6ff3c00e5
:101f30000080fa00000006001400fa00100f98005c
:101f40000000eb00000f7800110037009e017800c0
:101f50001e089000a2002000110009000280d80095
:101f60008000fd0002c3b300824040000e80e80004
:101f700000804100014878001e0fe8001e08900014
:101f8000a2002000110009000280d800100f980064
:101f90001e0890000000e000ecff3a000800370047
:101fa0001e0fe9009e0078000e80e80000804000cf
:101fb0001040780017ff07001000200042fe0700c5
:101fc0001e00e000f6ff3c000080fa000000060062
:101fd0001600fa00881f7800100f9800210f980053
:101fe0000000eb00000f78001e089000ae08900083
:101ff000e00f5000e08f580018003d00d0c2b30041
:1020000004ff0700100020002ffe07001300370018
:102010001e0478001e089000ae089000a200200068
:1020200003002000b6f807000043b00080407800ad
:102030000e80e80000004400014878001e0fe80010
:102040001e089000ae089000a200200003002000af
:10205000baf80700100f9800210f98001e08900092
:10206000ae089000a200200003002000a4f80700a2
:10207000e00f5000e08f58000e0035001e08900061
:10208000ae089000e00f5000e08f5800e0ff3c00e9
:10209000080037001e0fe9009e0078000e80e8005f
:1020a0000080400010407800dafe07001000200099
:1020b00005fe07001e00e000f6ff3c004f0478001c
:1020c0000080fa00000006000000fa000000eb00ab
:1020d000e01688000000eb00c01688000080fa00bf
:1020e000000006000200fa00000f78001e007800d1
:1020f000604e88000080fa00000006000000fa0030
:10210000604e80000080fa00000006000000fa0027
:1021100000712200704e8800704e8000cf80de007b
:1021200095f8070002002000833c2400bdf807005a
:1021300002002000a3472400eef807002ff9070053
:10214000804e8800804e8000604e8800deff0700d1
:102150000600070028000700c1e1a800daa2a800d5
:102160001fe1a8000080fa00000006000000fa004d
:10217000704e80000000e900200e8800f070200002
:10218000400e880000f02f00a00e8800c1a1a90019
:10219000c0c1bf006f406000c0e1b700011c20005b
:1021a0009140780030cfb30000c060000024a00050
:1021b000c0e1b700011c200091407800c0cfb300ff
:1021c00000c06000c0e1b700804e80000000400009
:1021d000b00e8800804e800000004000c00e8800d5
:1021e000804e800000004000d00e8800c1e1a900b0
:1021f0000080fa00000006000000fa00e10920005b
:102200009140780000c7b30000c070009ee0b700a6
:10221000e111200091407800f0ccb30000c06000d4
:102220000044a0001ee1b7000000eb00a0088800f9
:10223000614e80004f08de00010040000080d100a8
:10224000d008880086a0a9008ea0a8001fe1a900e0
:102250000080fa00000006000600fa00000f780077
:102260001107980022079800a14e80001e007800f8
:102270000088b90080007800804e80008080400097
:10228000a04e8000808040001e00900080804000b2
:102290002e0090000080400000004000b00e88003a
:1022a0000080fa00000006000600fa00000f780027
:1022b0001107980022079800a14e80001e007800a8
:1022c0000088b90080007800804e80008080400047
:1022d0001e009000808040002e0090000080400092
:1022e00000004000c00e88000080fa0000000600d8
:1022f0000600fa00000f78001107980022079800e6
:102300001e007800ec004000a04e80000088b9005c
:1023100080007800804e8000808040001e00900089
:10232000808040002e0090000080400000004000af
:10233000d00e88000080fa00000006000600fa00b7
:10234000000f780011079800220798001e007800ff
:10235000e7004000a04e80000088b90080007800af
:10236000804e8000808040001e00900080804000f1
:102370002e00900000804000604e88000080fa002f
:1023800000000600809fbe00821f78003400f80025
:1023900000c0b300a00188000000fa000000eb00bc
:1023a000a0088800714e80004f08de000100400048
:1023b0000080d10000017800614e80004f08de00ef
:1023c000010040000080d100000051008000780032
:1023d000d0088000808f500007003a00614e8000d6
:1023e0004f08de00010040000080d100d0088800c6
:1023f000daa2a8000c003700714e80004f08de0002
:10240000010040000080d10000017800614e800092
:102410004f08de00010040000080d10000005100a4
:10242000d0088800daa2a90086a0a9000080fa00de
:102430003400f9004f0178004f00be000040060054
:102440000200fa00000f7800e0e32a006a000700ab
:1024500010e42a0068000700a0e42a0066000700d4
:1024600060e52a00640007000080fa000000060012
:102470000400fa001007980010c0b30061fd0700c7
:102480000000eb00000f7800090037001e00780004
:10249000800078001e00900000804000104078000e
:1024a0001e0fe800dbfd07001000200006fd0700fe
:1024b000100020009e0f1000f4ff340009003700c8
:1024c0001e007800800078001e0090000080400010
:1024d000104078001e0fe800cefd0700100020001d
:1024e000f9fc0700800020009e0f1000f4ff34006c
:1024f00000ccb30043fd070010002000f2fc0700f1
:10250000090037001e007800800078001e0090004f
:1025100000804000104078001e0fe800bdfd07005d
:1025200010002000e8fc0700100120009e0f1000a2
:10253000f4ff3400090037001e00780080007800a6
:102540001e00900000804000104078001e0fe80040
:10255000b0fd070010002000dbfc07009001200008
:102560009e0f1000f4ff340010c0b30025fd0700db
:1025700010002000d4fc07000080fa0000000600d4
:102580000000fa0000402800601088000040200091
:10259000701088008109200091407800f0c8b300d5
:1025a00000c0600001c3b3000140700098e0b700b4
:1025b0008540a9008d40a9008520a9008d20a90093
:1025c00080002000a01088000080fa0000000600b3
:1025d0000200fa00004f78001e80fb008010880087
:1025e0000fc2bf00614060000004e000fcff320049
:1025f0000080fa00000006000400fa0010079800ae
:102600000000eb00000f7800070037001e00780084
:10261000800078001e00900000804000104078008c
:102620001e0fe800eaff07001e0078008000780017
:102630001e00900000804000104078000004e00080
:10264000f2ff3a000080fa00000006000c00fa00d9
:10265000500798000000eb00000f78005e0090002b
:102660000000e0001f003d00de0090000080eb0055
:102670000088b900500798001a0037003000200089
:102680009e0f100006003a009e0078000e80e800c1
:1026900080804000e0c2b300804878001e0fe80050
:1026a0009e0178005e009000a20020001100090049
:1026b0000200d8008000fd000043b0008040780098
:1026c0000e80e80000804100014878001e0fe800fd
:1026d0005e009000a2002000110009000200d80056
:1026e000500798005e009000a20020001100090031
:1026f0000200d8008000fd000000e0000a00350064
:102700005e0090000000e000dcff3c0006003700a7
:102710009e0078000e80e8008080400000c3b30077
:10272000804878001e0fe800600020009e0f100017
:10273000f7ff34000e80e800b040900000c3b30003
:1027400080cf50000a003a008e80e800e0c2b3005b
:10275000b0409800060037001e0fe9009e00780088
:102760000e80e800008040001040780098ff0700cd
:102770001e00e000f8ff3c000080fa0000000600a8
:102780000e00fa00881f7800500798006107980033
:102790000000eb00000f78005e009000ee0090005b
:1027a000e00f5000e08f58002c003d00de0090004c
:1027b0000080eb00000ab800de0090000080eb0013
:1027c0000088b9000501780000014100ee0090008a
:1027d0000080eb000088b90000014100820278000f
:1027e00054079800650798001c003700300020004f
:1027f0009e0f100006003a009e0078000e80e80050
:1028000080804000e0c2b300804878001e0fe800de
:102810001e0478005e009000ee009000a2002000f0
:1028200003002000b6f607000043b00080407800a7
:102830000e80e80000004400014878001e0fe80008
:102840005e009000ee009000a20020000300200037
:10285000baf6070050079800610798005e009000e4
:10286000ee009000a200200003002000a4f6070064
:10287000e00f5000e08f58000c0035005e00900023
:10288000ee009000e00f5000e08f5800d7ff3c00b2
:10289000060037009e0078000e80e800808040002f
:1028a00000c3b300804878001e0fe80060002000dd
:1028b0009e0f1000f7ff34000e80e800b04090003b
:1028c00000c3b30080cf50000a003a008e80e800b9
:1028d000e0c2b300b0409800060037001e0fe900c8
:1028e0009e0078000e80e8000080400010407800d4
:1028f00037ff07001e00e000f8ff3c004f0478009f
:102900000080fa00000006000200fa000ec2bf00bc
:10291000614060000004e00004003200901080007c
:102920000080fb00000f780002003700000220004a
:10293000000f78001e0078000080fa0000000600fa
:102940000000fa00104080000080fa00000006003d
:102950000200fa00000f78001e0078001040880086
:102960000080fa00000006000000fa00b047800076
:102970000080fa00000006000400fa00008fbe008c
:102980001e00be0000478800114788000080fa0042
:10299000000006000000fa00889fbe00f0428000a0
:1029a00001438000c2428000d3428000a8428000e0
:1029b000b94280000003be000400200005f82b008f
:1029c0000800be00410107004f04be000080fa006d
:1029d000000006000000fa00cbff0700e4e8b700a3
:1029e000418e200091407800e0c6b30080cf5000b7
:1029f00009003a0030002000fb03070010c0b300bc
:102a000000fc070020e62a0006fd0700401f20000a
:102a1000adfb07000d003700418e2000914078008b
:102a200030c6b30080cf500008003a0030002000cc
:102a3000ed03070010c0b300f2fb070030e72a00e7
:102a4000f8fc0700401f20009ffb07000080fa00f1
:102a5000000006000000fa00abff0700e4e8b70042
:102a6000418e20009140780080c6b30080cf500096
:102a700008003a0020002000db03070010c0b3006c
:102a8000e0fb070010e82a00e6fc0700401f2000da
:102a90008dfb07000080fa00000006000000fa002d
:102aa00099ff0700e4e8b700418e200091407800cc
:102ab00060c6b30080cf500007003a0066030700ed
:102ac000740307005103070040002000c6030700fd
:102ad000db02a8000600370000ccb300c9fb0700ea
:102ae00060e92a00cffc07000000eb00b047880037
:102af0000080fa00000006000000fa00430307000f
:102b000081ff0700e4e8b7008520a900418e20007e
:102b100091407800f0c6b30080cf500013003a0017
:102b2000db02a80010002000204688000000eb0017
:102b3000e0428800100020006f0307001000200012
:102b40007303070011e1a80060002000a60307003e
:102b500090c7b3009efe0700d0c0b3009cfe0700e4
:102b6000a0c0b3009afe0700db02a9000080fa00b3
:102b7000000006000000fa00240307000000eb003c
:102b80005303070060ff0700e4e8b7008520a900b1
:102b9000418e200091407800f0c6b30080cf5000f5
:102ba00011003a001000200020468800f04280000a
:102bb000014380000200200003e82300b1f6070073
:102bc000f042880001438800104080000000e800c7
:102bd0001040880010002000b0478800100020003e
:102be0003b030700ab003700418e20009140780086
:102bf00000c7b30080cf500011003a001000200041
:102c000030468800f042800001438000020020002e
:102c100003e823009af60700f04288000143880089
:102c2000104080000000e9001040880010002000e3
:102c3000b0478800100020002503070095003700ea
:102c4000418e20009140780070c7b30080cf5000c3
:102c50000e003a001000200080468800c04280002c
:102c6000d1428000d2cc2c00c3dc230085f60700c3
:102c7000c0428800d142880010002000b047880080
:102c8000100020001203070082003700418e200050
:102c90009140780030c7b30080cf50000e003a005a
:102ca0001000200090468800c0428000d142800081
:102cb000d2cc2c00c3dc230071f60700c042880090
:102cc000d142880010002000b0478800100020008a
:102cd000ff0207006f003700418e2000914078000e
:102ce00010c6b30080cf50000e003a001000200044
:102cf00040468800a0428000b1428000d2cc2c0027
:102d0000c3dc23005ff60700a0428800b1428800c0
:102d100010002000b047880010002000ec020700df
:102d20005c003700418e20009140780040c6b3001f
:102d300080cf50000e003a0010002000504688005e
:102d4000a0428000b1428000d2cc2c00c3dc230022
:102d50004bf60700a0428800b14288001000200016
:102d6000b047880010002000d90207004900370052
:102d7000418e200091407800e0c6b30080cf500023
:102d80000e003a00100020006046880010438000ca
:102d9000214380000200200003f0230039f60700e1
:102da000104388002143880010002000b0478800ad
:102db00010002000c602070036003700418e2000b8
:102dc00091407800b0c6b30080cf50000e003a00aa
:102dd00010002000704688001043800021438000ce
:102de0000200200003f0230025f6070010438800ae
:102df0002143880010002000b04788001000200008
:102e0000b302070023003700418e20009140780074
:102e100060c6b30080cf500012003a00db02a80069
:102e20000000eb00b40207000000eb00b80207004e
:102e30006000b800d0fe070070002000ea02070022
:102e400030c5b300e2fd070030c5b300e0fd070068
:102e500010002000b0478800100020009c020700ee
:102e60000c003700418e20009140780090c7b300dd
:102e700080cf500005003a0010002000b0478800c5
:102e80001000200092020700020037000000eb0053
:102e9000b0478800a0428000b142800020428800f4
:102ea00031428800c0428000d14280004042880008
:102eb00051428800104380002143800080488800f0
:102ec000914888000080fa00000006001000fa0017
:102ed000008fbe002207980033079800440798002f
:102ee0005507980066079800770798007e0207004c
:102ef000e10f500009003a00570507006e039000eb
:102f0000fe0390004e029000de0290002e01900021
:102f1000be0190001e00be0051000700e046800088
:102f2000f1468000a2468000b3468000d5f5070038
:102f3000b2f5070020408800c0468000d1468000de
:102f4000a2468000b3468000cdf50700abf5070030
:102f500030408800a0468000b1468000e2468000f4
:102f6000f3468000c6f50700a4f50700404088003e
:102f7000c0468000d146800001f0a200a246800039
:102f8000b3468000bef507009cf50700504088005e
:102f9000004780001147800002002000a347240062
:102fa00015f607000000e00001003d0004003700b6
:102fb00000002000a1472400004788001147880036
:102fc00000478000114780006011b8000cf6070030
:102fd0000000e00001003400030037006000b8008a
:102fe0000047880011478800004780001147800093
:102ff00082f5070000017800214080001040800029
:1030000095fc070000478000114780007bf5070012
:10301000000178003140800010408000a2fc0700d1
:10302000004780001147800074f507000001780018
:103030004140800010408000adfc07000047800048
:10304000114780006df507000001780051408000b5
:1030500010408000b9fc07000080fa000000060064
:103060003000fa00001798001117980022179800f6
:103070003317980044179800551798006617980062
:103080007717980075020700600f9800710f98007d
:103090007e020700400f9800510f9800870207003a
:1030a000200f9800310f980090020700000f980041
:1030b000110f9800990207006007980071079800a7
:1030c000a202070040079800510798005d0a070018
:1030d00020079800310798004e089000de08900005
:1030e00080428800914288006e089000fe0890009f
:1030f00060428800714288002e009000be0090005f
:1031000020488800314888000200200003222c005b
:103110004e089000de089000b9f507000000e000be
:103120001600340002002000032224004e08900004
:10313000de089000b0f507000000e0000f003d0041
:103140000200200003222c006e089000fe08900070
:10315000abf507000000e00008003400020020008a
:10316000032224006e089000fe089000a2f50700dc
:103170000000e00001003d000b0037001fe1a90046
:10318000c1e1a90070c4b30011fd070070c4b30011
:103190000ffd07000000eb00d701070011e1a900b7
:1031a00030002000100207001043800021438000ff
:1031b000809fbe000000200001172400809fbe00f9
:1031c00006002000871524006e029000fe02900089
:1031d0006e099000fe0990000e1090009e10900065
:1031e000c9000700e8875700c0468800d14688001c
:1031f00030332300310a2400809fbe0000002000ed
:1032000001172400809fbe000600200087152400bf
:103210000e0a90009e0a90004e099000de09900070
:103220002e109000be1090007b000700e88757002a
:10323000e0468800f1468800606626006119240097
:10324000809fbe006000b800809fbe006033b80061
:103250004e029000de0290002e099000be09900000
:103260004e109000de109000e3000700e887570042
:10327000a0468800b1468800ab010700e10f50006e
:1032800002003a000000eb00a10107006000b80056
:10329000004788001147880040428000514280006a
:1032a0006011b80056f507000000e000010035008d
:1032b00002003700d0c2b300c5fc070040428000c6
:1032c0005142800002002000832c240055f40700a6
:1032d000caf40700ddfc070090c0b300bcfc070087
:1032e00020428000314280006011b80044f50700a0
:1032f0000000e0000100350002003700d0c2b3003a
:10330000b3fc070020428000314280000200200010
:10331000832c240043f40700b8f40700cbfc07001b
:1033200090c0b300aafc070020488000314880000c
:103330006011b80032f507000000e0000100350020
:1033400002003700d0c2b300a1fc07002048800073
:103350003148800002002000a347240031f4070018
:10336000a6f40700b9fc070090c0b30098fc070062
:1033700080428000914280006011b80020f5070073
:103380000000e0000100350002003700d0c2b300a9
:103390008ffc0700804280009142800002002000e4
:1033a000832c24001ff4070094f40700a7fc0700f7
:1033b00090c0b30086fc07008048800091488000e0
:1033c0006011b8000ef507000000e00001003500b4
:1033d00002003700d0c2b3007dfc070080488000a7
:1033e0009148800002002000832c24000df4070087
:1033f00082f4070095fc070090c0b30074fc07003e
:10340000d0c0b30072fc0700a0c0b30070fc07007e
:103410000080fa00000006001000fa00008fbe00d5
:103420002207980033079800440798005507980032
:1034300066079800770798002e019000be01900063
:103440001e00be008ef40700c0408800d1408800f6
:103450004041800051418000c2408000d340800044
:1034600088f407004041880051418800c040800036
:10347000d14080006e019000fe019000e9f307004a
:1034800060408800714088004041800051418000c8
:103490003eb99700ceb99700e2f30700a2702d0065
:1034a00033c22300dff3070080408800914088008a
:1034b0004e019000de0190001eb89700aeb8970054
:1034c000d8f3070001f0a200a0408800b1408800b6
:1034d0006040800071408000824080009340800006
:1034e00068f40700a2408000b340800065f4070044
:1034f00030478800414788003047800041478000be
:103500000080fa00000006001000fa00008fbe00e4
:103510002207980033079800440798005507980041
:1035200066079800770798002e019000be01900072
:103530001e00be0052f40700e0408800f140880001
:103540006041800071418000e2408000f3408000d3
:103550004cf407006041880071418800e040800021
:10356000f14080006e019000fe019000adf3070075
:103570006040880071408800604180007141800097
:103580003eb99700ceb99700a6f30700a2702d00b0
:1035900033c22300a3f307008040880091408800d5
:1035a0004e019000de0190001eb89700aeb8970063
:1035b0009cf3070001f0a200a0408800b140880001
:1035c0006040800071408000824080009340800015
:1035d0002cf40700a2408000b340800029f40700cb
:1035e000504788006147880050478000614780004d
:1035f0000080fa00000006001000fa00008fbe00f4
:103600002207980033079800440798005507980050
:1036100066079800770798002e019000be01900081
:103620001e00be0016f4070000418800114188000a
:103630008041800091418000024180001341800060
:1036400010f407008041880091418800004180000b
:10365000114180006e019000fe01900071f307009f
:103660006040880071408800804180009141800066
:103670003eb99700ceb997006af30700a2702d00fb
:1036800033c2230067f30700804088009140880020
:103690004e019000de0190001eb89700aeb8970072
:1036a00060f3070001f0a200a0408800b14088004c
:1036b0006040800071408000824080009340800024
:1036c000f0f30700a2408000b3408000edf3070054
:1036d00070478800814788007047800081478000dc
:1036e0000080fa00000006001000fa00008fbe0003
:1036f0002207980033079800440798005507980060
:1037000066079800770798002e019000be01900090
:103710001e00be00daf30700204188003141880016
:103720002e009000be009000c0418800d14188006a
:10373000a0418000b14180002241800033418000df
:10374000d0f30700a0418800b141880020418000eb
:10375000314180004e019000de01900031f30700fe
:103760006040880071408800a0418000b141800025
:103770006e019000fe0190002af30700a2702d0058
:1037800033d2230027f3070080408800914088004f
:10379000e0418000f1418000c2418000d3418000bf
:1037a000b7f307003eb99700ceb997001df30700a5
:1037b00002002000831c24001af30700a0408800a8
:1037c000b1408800c0418000d1418000e0418800c4
:1037d000f14188006040800071408000824080009c
:1037e00093408000a7f30700a2408000b340800010
:1037f000a4f30700004288001142880000428000c4
:10380000114280000080fa00000006000000fa006b
:103810000000eb00204688000000eb0030468800e6
:103820000000eb00404688000000eb006046880086
:103830000000eb00504688000000eb007046880056
:103840000000eb00804688000000eb0090468800f6
:103850000080fa00000006000000fa006000b800d6
:10386000a0468800b14688006000b800c0468800c5
:10387000d14688006000b800e0468800f146880024
:103880006000b80000478800114788000080fa00f7
:10389000000006000000fa000000eb002040880055
:1038a0000000eb00304088000000eb004040880042
:1038b0000000eb00504088000080fa000000060085
:1038c0000000fa00b04e80000080fa000000060000
:1038d0000200fa00000f78001e007800b04e880049
:1038e0000080fa00000006000000fa00004c800092
:1038f0000080fa00000006000200fa00000f7800c5
:103900001e007800004c88000080fa0000000600cd
:103910000200fa00000f78001e007800104c8800aa
:103920000080fa00000006000000fa00104c800041
:103930000080fa00000006000200fa00000f780084
:103940001e007800c04b88000080fa0000000600ce
:103950000000fa00c04b80000080fa000000060062
:103960000200fa00000f78001e007800d04b88009b
:103970000080fa00000006000000fa00d04b800032
:103980000080fa00000006000200fa00000f780034
:103990001e007800e04b88000080fa00000006005e
:1039a0000000fa00e04b80000080fa0000000600f2
:1039b0000200fa00000f78001e007800f04b88002b
:1039c0000080fa00000006000000fa00f04b8000c2
:1039d0000080fa00000006000000fa00d04a8000d3
:1039e0000080fa00000006000200fa00000f7800d4
:1039f0001e007800d04a88000080fa00000006000f
:103a00000200fa00000f78001e0078006101b80083
:103a100000e823000012b8006010b9000503780028
:103a20000003430000e823000098b90000034300ae
:103a300086027800040078000080fa00000006008a
:103a40000400fa00008fbe001e00be00e04a88009d
:103a5000f14a88000080fa00000006000000fa0029
:103a6000e04a8000f14a80000080fa000000060071
:103a70000400fa00008fbe001e00be00004b88004c
:103a8000114b88000080fa00000006000000fa00d8
:103a9000004b8000114b80000080fa0000000600ff
:103aa0000400fa00008fbe001e00be00204b8800fc
:103ab000314b88000080fa00000006000000fa0088
:103ac000204b8000314b80000080fa00000006008f
:103ad0000400fa00008fbe001e00be00404b8800ac
:103ae000514b88000080fa00000006000000fa0038
:103af000404b8000514b80000080fa00000006001f
:103b00000400fa00008fbe001e00be00604b88005b
:103b1000714b88000080fa00000006000000fa00e7
:103b2000604b8000714b80000080fa0000000600ae
:103b30000400fa00008fbe001e00be00804b88000b
:103b4000914b88000080fa00000006000000fa0097
:103b5000804b8000914b80000080fa00000006003e
:103b60000400fa00008fbe001e00be00a04b8800bb
:103b7000b14b88000080fa00000006000000fa0047
:103b8000a04b8000b14b80000080fa0000000600ce
:103b90000200fa000040eb00004f7800b2c0b30012
:103ba00011c3b30030c5b300c70007001e4f40006b
:103bb00082c0b300d1c2b30030c5b300c200070059
:103bc0001e4f4000a2c0b300c1c2b30030c5b30055
:103bd000bd0007001e4f40001e80fb000080fa0061
:103be000000006000a00fa00400798000040eb00c1
:103bf000004f78000e01e80063c0b30021c3b3009a
:103c000030c5b300210107001e4f40000e00e80040
:103c1000104090000080fb000000400000004000c9
:103c20000000400000004000000040000000400094
:103c30000000400000004000800078000e00e80016
:103c4000104078000080fb00008070008000780049
:103c5000f0ff2100808060004e0090000108780095
:103c60004e0090000081e8000e00e8003040900017
:103c70000080fb0000004000000040000000400009
:103c80000000400000004000000040000000400034
:103c900000004000800078000e00e8002040900006
:103ca0000080fb000080700080007800f0ff2100a1
:103cb00000806000000978004e0090006401400020
:103cc0000e00e800504090000080fb000000400023
:103cd00000004000000040000000400000004000e4
:103ce000000040000000400000004000800078001c
:103cf0000e00e800404090000080fb000080700053
:103d000080007800f0ff210000806000000978004a
:103d10001e80fb000080fa00000006000000fa0090
:103d20000602a80006c2bf00614060000004e00077
:103d3000fcff3a000080fa00000006000000fa00d4
:103d40000622a80006c2bf00624060000004e00036
:103d5000fcff3a000080fa00000006000000fa00b4
:103d60000642a80006c2bf00644060000004e000f4
:103d7000fcff3a000080fa00000006000000fa0094
:103d800006a2a9000682a80006c2bf00704060001b
:103d90000004e000fcff3a000080fa00000006008a
:103da0000000fa0006a2a8000682a80006c2bf0012
:103db000704060000004e000fcff3a0006a2a90089
:103dc0000080fa00000006000200fa0009c2bf00ed
:103dd0008000eb00010f78000004e00002003500d5
:103de00010002000000f78001e0078000080fa000c
:103df000000006000200fa00004f78001e40780024
:103e000002e2b70008c2bf00614060000004e000a9
:103e1000fcff3a000080fa00000006000400fa00ef
:103e2000004f78001e40780002e2b70009c2bf00d0
:103e30000044b2000004e000fcff3a0009c2bf00e9
:103e40008000eb00110798000004e000020035003c
:103e500010002000100798001e0090000080fa005b
:103e6000000006000000fa000662a80008c2bf00b9
:103e7000624060000004e000fcff320000c2bf00ae
:103e80000080fb000080fa00000006000000fa003d
:103e90000020280030108800100920002010880021
:103ea0000080fa00000006000000fa0085c0bf0094
:103eb0000044b2000004e000fcff320085c0a9000d
:103ec0000080fa00000006000800fa002047980071
:103ed00031479800424798000040eb00004f7800bf
:103ee0008eff07002e40900000404000cbff0700ef
:103ef0008040eb00714798000004e00002003a00a7
:103f000010c0b300704798001e407800fe4090003b
:103f100000c04000004f78003e409000bfff070007
:103f20008040eb00614798000004e00002003a0086
:103f300010c0b300604798001e407800ee4090002b
:103f400000c04000004f78004e409000b3ff0700d3
:103f50008040eb00514798000004e00002003a0066
:103f600010c0b300504798001e407800de4090001b
:103f700000c04000004f780078ff07001e80fb0063
:103f80000080fa00000006000c00fa0020479800ac
:103f900031479800220798000040eb00004f78005e
:103fa0005eff07002e409000004040009bff07008e
:103fb0008040eb00214f98000004e00002003a002e
:103fc00010c0b300204f98001e407800ae4890000b
:103fd00000c04000004f78003e4090008fff070077
:103fe0008040eb00114f98000004e00002003a000e
:103ff00010c0b300104f98001e4078009e489000fb
:1040000000c04000004f78004cff07002e40900099
:104010000080fb00000040000004a0007fff0700bc
:104020008040eb00014f98000004e00002003a00dd
:1040300010c0b300004f98001e4078008e489000da
:1040400000c04000004f78001e04e0000400320071
:1040500042ff07001e80fb00300798000800370071
:1040600080ff0700804078002e0090000148780013
:104070004bff070039ff07009e80fb0031079800c7
:104080003e0090000080fa00000006000e00fa00da
:10409000204798003147980022079800634798000e
:1040a0000040eb00004f78001cff07002e409000fe
:1040b0000040400059ff07008040eb00414f98004e
:1040c0000004e00002003a0010c0b300404f980026
:1040d0001e407800ce48900000c04000004f78009d
:1040e0003e4090004dff07008040eb00314f9800ac
:1040f0000004e00002003a0010c0b300304f980006
:104100001e407800be48900000c04000004f78007c
:104110000aff07002e4090000080fb0000004000d6
:104120000004a0003dff07008040eb00214f9800f5
:104130000004e00002003a0010c0b300204f9800d5
:104140001e407800ae48900000c04000004f78004c
:104150001e04e0000c00320000ff07001e80fb0080
:10416000400798001d0037003eff070080407800a0
:104170002e009000014878002e0090000000e8001a
:1041800020079800fdfe07008040eb007147980073
:104190006e409000e14f50000200360010c0b300a6
:1041a000704798006e4090000040e900604798001a
:1041b000fe4090000104e000ebff3a0029ff0700f9
:1041c000804078002e00900001487800f4fe07003f
:1041d000e2fe07001e80fb00400798004e009000a2
:1041e0000080fa00000006000200fa000040eb0028
:1041f000004f7800f2c1b30001c2b30090c6b30013
:1042000031ff07001e4f40001e80fb000080fa00b7
:10421000000006000600fa00200798000040eb00ae
:10422000004f78000e01e80081c2b30090c6b300d1
:1042300055ff07001e4f40000e81e80091c2b300f9
:1042400090c6b30050ff07001e4f40002e40900064
:104250000080fb0000004000000040000000400023
:10426000000040000000400000004000000040004e
:1042700000004000800078001e4090000080fb009d
:1042800000807000800078002e0090000108780007
:104290000e01e800a1c2b30090c6b3003aff0700c8
:1042a0001e4f40000e81e800b1c2b30090c6b300bb
:1042b00035ff07001e4f40002e0090000081e800ef
:1042c0002e4090000080fb000000400000004000f5
:1042d00000004000000040000000400000004000de
:1042e0000000400000004000800078001e40900068
:1042f0000080fb0000807000000978000e01e800db
:10430000c1c2b30090c6b3001fff07001e4f40009c
:104310000e81e800d1c2b30090c6b3001aff0700b7
:104320001e4f40002e009000640140002e4090007f
:104330000080fb0000004000000040000000400042
:10434000000040000000400000004000000040006d
:1043500000004000800078001e4090000080fb00bc
:1043600000807000000978001e80fb000080fa00c9
:10437000000006000000fa00889fbe003f01070011
:10438000fa000700e0438000f1438000a2702d0096
:1043900033c2230023f007000002be0080448000e7
:1043a000914480000001be000400be00b5f007008b
:1043b00082142e00a3f723001af007000004be00a9
:1043c000804480009144800002702d0033ca230095
:1043d00014f007000001be000800be00a9f00700ad
:1043e0002045880031458800c0438000d1438000cb
:1043f000a2702d0033c223000af007000002be00a5
:10440000a0448000b14480000001be000400be0052
:104410009cf0070082142e00a3f7230001f0070090
:104420000004be00a0448000b144800002702d0052
:1044300033ca2300fbef07000001be000800be00e6
:1044400090f0070040458800514588004f04be00a9
:104450000080fa00000006000000fa00889fbe00fd
:1044600006010700c1000700e0438000f14380001f
:10447000a2702d0033c22300eaef07000002be0045
:1044800020458000314580000001be000400be00d0
:104490007cf0070082142e00a3f72300e1ef070051
:1044a0000004be00804480009144800002702d0012
:1044b00033ca2300dbef07000001be000800be0086
:1044c00070f007002045880031458800c043800017
:1044d000d1438000a2702d0033c22300d1ef07002a
:1044e0000002be0040458000514580000001be0032
:1044f0000400be0063f0070082142e00a3f723001f
:10450000c8ef07000004be00a0448000b144800052
:1045100002702d0033ca2300c2ef07000001be0065
:104520000800be0057f0070040458800514588004c
:104530000044800011448000a2702d0033c223008b
:10454000b8ef07000002be006045800071458000a2
:104550000001be000400be004af0070082142e00d5
:10456000a3f72300afef070060458800714588007e
:10457000604580007145800002002000433b24001c
:104580009df007000000e00001003c00070037003c
:10459000604580007145800002002000433b2400fc
:1045a00037f007006045880071458800c0438000ef
:1045b000d143800046fd0700e0438000f1438000c6
:1045c0004ffd0700004480001144800058fd0700a3
:1045d000204580003145800019fd070040458000de
:1045e0005145800022fd0700604580007145800034
:1045f0002bfd07004f04be000080fa0000000600fb
:104600000000fa00514d800030062000808f5000dd
:1046100054003e0080892000fefe0700c044800058
:104620000000e00005003500c144800060438000c8
:10463000008040006043880007003700c0448000cd
:104640008000780060438000808040000000eb0024
:104650000080500060438800d04480000000e000eb
:1046600005003500d1448000704380000080400088
:104670007043880007003700d04480008000780035
:1046800070438000808040000000eb0000805000fc
:1046900070438800e04480000000e0000500350021
:1046a000e144800080438000008040008043880017
:1046b00007003700e04480008000780080438000dd
:1046c000808040000000eb000080500080438800a4
:1046d000504d80000000e800504d8800504d800093
:1046e000a2002000110009000280d8008000fd0017
:1046f0000000e00002003a00a0e92a00c9f5070026
:10470000514d800040062000808f500015003a0077
:1047100060438000524d8000110009000280d800e3
:104720003043880070438000524d80001100090022
:104730000280d8004043880080438000524d8000b2
:10474000110009000280d800504388000000eb00ef
:10475000504d880007ff0700db02a9005000200031
:10476000a1fc07000080fa00000006000000fa002b
:1047700080892000a7fe0700c04480000000e00000
:1047800003003500c04480009043880005003700d6
:10479000c0448000800078000000eb0000805000e2
:1047a00090438800d04480000000e0000300350002
:1047b000d0448000a043880005003700d04480002a
:1047c000800078000000eb0000805000a0438800cb
:1047d000e04480000000e00003003500e044800079
:1047e000b043880005003700e04480008000780076
:1047f0000000eb0000805000b0438800914380002f
:104800003043800000805000cf80de00daee0700e9
:1048100092c22500f3c0230002ef0700c0438800c6
:10482000d1438800a14380004043800000805000b5
:10483000cf80de00d0ee070092c22500f3c0230037
:10484000f8ee0700e0438800f1438800b1438000a0
:104850005043800000805000cf80de00c6ee07008d
:1048600092c22500f3c02300eeee0700004488004a
:10487000114488000080fa00000006001800fa00c9
:10488000889fbe00e0892000d6fc0700f14480002c
:10489000f0ff2000808f500016003e00f84480009a
:1048a0006140b900b4ee0700200f9800310f980066
:1048b0000800e00007003d0002002000037824000b
:1048c0002e089000be0890006eef0700200f9800a1
:1048d000310f98002e089000be0890004272290007
:1048e000f3b72300cfee070020448800314488004e
:1048f00018003700f84480006140b9009eee0700c0
:10490000000f9800110f98000800e00007003d001c
:1049100002002000037824000e0890009e089000fa
:1049200058ef0700000f9800110f980002002000b8
:10493000036024000e0890009e08900050ef0700ce
:1049400042722900f3b72300b6ee07002044880026
:104950003144880001458000f0ff2000808f500026
:1049600016003e00084580006140b90082ee070055
:1049700060079800710798000800e00007003d00fc
:1049800002002000037824006e009000fe009000da
:104990003cef070060079800710798006e009000d8
:1049a000fe00900042722900f3b723009dee07003d
:1049b00040448800514488001800370008458000b2
:1049c0006140b9006cee070040079800510798005d
:1049d0000800e00007003d000200200003782400ea
:1049e0004e009000de00900026ef07004007980080
:1049f0005107980002002000036024004e00900040
:104a0000de0090001eef070042722900f3b723007a
:104a100084ee07004044880051448800114580001e
:104a2000f0ff2000808f500016003e0018458000e7
:104a30006140b90050ee0700200798003107980048
:104a40000800e00007003d00020020000378240079
:104a50002e009000be0090000aef0700200798008b
:104a6000310798002e009000be009000427229008d
:104a7000f3b723006bee07006044880071448800a0
:104a800014003700184580006140b9003aee070075
:104a9000008fbe000800e00005003d00020020007d
:104aa000037824001e00be00f6ee0700008fbe0053
:104ab00002002000036024001e00be00f0ee07008c
:104ac00042722900f3b7230056ee070060448800c5
:104ad0007144880040448000514480000001be00c1
:104ae00050ee07000004be00604480007144800066
:104af0000001be004bee07000001be000800be0032
:104b0000e0ee070040ef07000001be0020448000f7
:104b10003144800001f0a20070ef070022ee220075
:104b2000532624003fee070080448800914488000b
:104b300060448000714480000001be0039ee07002f
:104b40000004be0020448000314480000001be000b
:104b500034ee0700a2702d0033c2230031ee0700af
:104b60000001be000800be00c6ee070026ef0700e9
:104b70000001be00404480005144800057ef070010
:104b800022ee22005326240026ee0700a0448800cf
:104b9000b14488004f04be000080fa000000060007
:104ba0000000fa00889fbe0080458000914580008b
:104bb000a2702d0033c223001aee07000002be00cf
:104bc000a0458000b14580000001be000400be0089
:104bd000acee07000004be00c04d8000d14d800047
:104be000a2702d0033c223000eee0700a2702d002c
:104bf00033c223000bee0700020020000300240054
:104c00003cee07000001be000800be009dee07005c
:104c1000a0458800b1458800c04d8000d14d80007e
:104c2000a2702d0033c22300feed07000002be007b
:104c300080458000914580000001be000400be0058
:104c400090ee070080458800914588002044800050
:104c5000314480000001be00f2ed07000004be00f8
:104c600040448000514480000001be00eded07008b
:104c70000001be000800be0082ee07000004be0076
:104c800060448000714480000001be00e5ed070033
:104c90000001be000800be007aee0700daee070051
:104ca0000200200003f8230075ee0700d2cc2c0090
:104cb000c3112400dbed0700c04d8800d14d8800f2
:104cc000a0458000b1458000a5fb07004f04be0051
:104cd0000080fa00000006000800fa00889fbe006d
:104ce000008fbe002207980033079800e04580003f
:104cf000f14580002e019000be01900061ee07009a
:104d0000a24d8000b34d80005dee0700a2702d0023
:104d100033ca2300c3ed0700e0458800f145880051
:104d2000c0458000d1458000e2458000f345800009
:104d300054ee0700024680001346800050ee070044
:104d400082142e00a3f72300b6ed07000004be0076
:104d500002702d0033ca23001e00be00b1ed070013
:104d60000001be000800be0046ee0700c0458800f6
:104d7000d1458800e0458000f1458000004688006c
:104d8000114688002e009000be009000a04d8800c3
:104d9000b14d8800c0458000d14580004f04be0061
:104da0000080fa00000006001800fa003000200021
:104db000404988006000b800004a8800114a880015
:104dc0006000b800e0488800f1488800e0ca2d0083
:104dd00021e42300704a8800814a880063c1b3003f
:104de0000e017800a1cab30070c7b300a7fc07008a
:104df0001e4078000080fb000000400000004000e2
:104e000000004000000040000000400000004000a2
:104e10000000400000004000800078001e4090002c
:104e20000080fb0000807000504988002e409000f8
:104e30000080fb0000004000000040000000400037
:104e40000000400000004000000040000000400062
:104e500000004000800078003e4090000080fb0091
:104e600000807000604988004e4090000080fb0088
:104e70000000400000004000000040000000400032
:104e80000000400000004000000040000000400022
:104e9000800078005e4090000080fb000080700081
:104ea000704988006e4090000080fb0000004000c8
:104eb00000004000000040000000400000004000f2
:104ec000000040000000400000004000800078002a
:104ed0007e4090000080fb000080700080498800c8
:104ee0000e4890000080fb000000400000004000e1
:104ef00000004000000040000000400000004000b2
:104f00000000400000004000800078001e48900033
:104f10000080fb0000807000904988002e489000bf
:104f20000080fb0000004000000040000000400046
:104f30000000400000004000000040000000400071
:104f400000004000800078003e4890000080fb0098
:104f500000807000a04988004e4890000080fb004f
:104f60000000400000004000000040000000400041
:104f70000000400000004000000040000000400031
:104f8000800078005e4890000080fb000080700088
:104f9000b04988006e4890000080fb00000040008f
:104fa0000000400000004000000040000000400001
:104fb0000000400000004000000040008000780039
:104fc0007e4890000080fb0000807000c04988008f
:104fd0000e5090000080fb000000400000004000e8
:104fe00000004000000040000000400000004000c1
:104ff0000000400000004000800078001e5090003b
:105000000080fb0000807000d04988002e50900086
:105010000080fb0000004000000040000000400055
:105020000000400000004000000040000000400080
:1050300000004000800078003e5090000080fb009f
:1050400000807000e04988004e5090000080fb0016
:105050000000400000004000000040000000400050
:105060000000400000004000000040000000400040
:10507000800078005e5090000080fb00008070008f
:10508000f049880067000700500020000ef207007a
:105090000000eb00904a88000000eb00604a8800a6
:1050a00089000700a001200007f207008600070022
:1050b000a001200004f2070074020700030037007b
:1050c000a001200000f2070070020700c048800025
:1050d000d1488000e2488000f348800068ed070076
:1050e00046ed0700300f98003e0890000000e000f9
:1050f00003003d003e0890000000ea00300f9800d9
:105100003e089000ea0f5000edff3c00e0488000b0
:10511000f1488000a0488800b14888000080fa006b
:10512000000006000000fa00404980000000400036
:10513000000040000000400000004000000040006f
:10514000000040004043b0000041780041cfb30070
:1051500070c7b3005cfb07000080fa000000060087
:105160000400fa0033c0b3000e01780061cfb30031
:1051700070c7b300c5fb07001e4078000080fb002d
:1051800001002000c001dd00020020001e40900050
:105190000080fb00010020000000400081804800ea
:1051a00000004000818048000000400081804800ed
:1051b00000004000818048000000400081804800dd
:1051c00000004000818048000000400081804800cd
:1051d0000000400081804800000171008181710061
:1051e0002e4090000080fb000100200000017100b3
:1051f0008181710040498000680010000202be00f9
:10520000000378000603e900030033008582d10023
:105210000482d300fbff37000400be000080fa00c8
:10522000000006000000fa00e2c2b30041cfb30064
:1052300070c7b30024fb07000080fa0000000600de
:105240000200fa000e01780061cfb30070c7b3000e
:105250004dfb07000e01e80071cfb30070c7b3002b
:1052600049fb07001e4078000080fb000100200081
:10527000000040008180480000004000818048001c
:10528000000040008180480000004000818048000c
:1052900000004000818048000000400081804800fc
:1052a00000004000818048000000400081804800ec
:1052b000800078001e4090000080fb00008070009d
:1052c0000080fa00000006000000fa00030007005a
:1052d000270007000080fa00000006000000fa0026
:1052e000904a80000000e000180032009cff070098
:1052f00021ec0700a24a8000b34a8000e1ec0700dd
:10530000a04a8800b14a8800c04a80000000e80036
:10531000c04a8800604a8000e40f500006003a004e
:10532000c0ff07000000eb00604a88000000eb00af
:10533000904a88000c0037007aff0700604a80001e
:105340000000e800604a880007003700bcff070043
:1053500001002000404a8800514a880071ff070080
:1053600010002000904a88000080fa00000006002b
:105370002c00fa00889fbe00424a8000534a8000f9
:10538000a0498000010020000004510081845900e0
:10539000904980006101b8000243b80003c0b90021
:1053a00007027800000242000990b90000024200a2
:1053b000840378004139dd004f30de0000007100c9
:1053c000cfb8de002017980031179800e049800020
:1053d000cf80de00000040008180480000004000d7
:1053e00081804800000040008180480000004000ab
:1053f000818048000000400081804800000040009b
:10540000818048000000400081804800000040008a
:10541000818048000000400081804800000040007a
:105420008180480000004000818048000002be00ea
:10543000f04980006101b9002e109000be1090006c
:1054400002014000838148000400be00bbeb07005e
:1054500000179800111798002e119000be119000af
:105460000e1090009e1090000200400083804800c3
:10547000200f9800310f98002e089000be08900071
:1054800068004000e0804800cc09dd004400de00f8
:1054900000807100c488de002049880031498800fe
:1054a000c04a80000000e00063013200a84a80008a
:1054b000b94a8000c04a8000cf80de00aeeb070012
:1054c0000001be000800be000aec07004bec07001c
:1054d000204a8800314a88006000b800a04a88004d
:1054e000b14a88000000eb00c04a88002e099000f5
:1054f000be09900000062f00f1ff2f0002004000bf
:1055000083804800000f9800110f9800c049800068
:105510006104b9008e0890000e089000000ab800df
:105520008e0890001e0890000088b90005017800e0
:10553000000141008e0890001e0890000088b9000c
:1055400000014100820278004428dd004c21de0089
:1055500002017000cca9de000243b80003c0b9000c
:1055600007027800000242000990b90000024200e0
:10557000840378004539dd004b30de000000710007
:10558000cbb8de00201798003117980060498000e2
:105590006103b9000e0890000032b8001e089000a8
:1055a00000b0b90005017800000141000e0890002c
:1055b0000780b9000001410082027800c529dd00a2
:1055c0004b20de0000807100cba8de0000179800a1
:1055d000111798002e119000be1190000e1090002f
:1055e0009e1090000200400083804800600f9800e9
:1055f000710f980050498000cf80de00008fbe0000
:105600001e00be00000040008180480000004000f5
:10561000818048000001be006e089000fe089000e6
:105620000200400083804800424980000202780066
:105630000402e900030033000000400081804800bc
:10564000fbff3700008fbe00220020000300200077
:105650003e004100ae804900ce09dd004200de0080
:1056600000807100c288de00400f9800510f980042
:10567000704980006103b9000e0890000032b80044
:105680001e08900000b0b90005017800000141003b
:105690000e0890000780b9000001410082027800e6
:1056a0004329dd004d20de0000007100cda8de00a2
:1056b0002017980031179800b04980006104b900a4
:1056c0008e0890000e089000000ab8008e08900026
:1056d0001e0890000088b900050178000001410013
:1056e0008e0890001e0890000088b900000141005b
:1056f000820278004428dd004c21de0002017000a7
:10570000cca9de000243b80003c0b900070278004c
:10571000000242000990b9000002420084037800b0
:1057200040b8de00cf80de00001798001117980007
:105730002e119000be1190000e1090009e1090004f
:10574000020040008380480062004000e080480082
:105750004e09dd004200de0000007100c288de005c
:10576000600f9800710f9800804980006104b800b4
:105770006e099000fe099000000028000100200042
:1057800002004000838048000001be000243b800d0
:1057900003c0b90007027800000242000990b90076
:1057a0000002420084037800c139dd004f30de0082
:1057b00000807100cf38de00400798005107980044
:1057c000204a8000314a80000001be004e0890004f
:1057d000de08900000045100818459004249800095
:1057e00000352c0001002000020278000402e900cc
:1057f000030033008180d1000080d300fbff37001d
:105800000001be000243b80003c0b90007027800df
:10581000000242000990b9000002420084037800af
:1058200026079800370798002e009000be009000d1
:10583000e00f5000e08f58000a0035002e00900065
:10584000be00900000004000818048004e019000a2
:10585000de0190003eec07004017980051179800b9
:10586000090037004e019000de0190002e009000ec
:10587000be00900036ec0700000040008180480028
:1058800040179800511798004e109000de109000bd
:1058900060079800710798006e009000fe0090006d
:1058a000c88cde004809dd004804de0008047100f1
:1058b0006e009000fe009000c889de00480add00fe
:1058c0004801de00020172000243b80003c0b900c3
:1058d00007027800000242000990b900000242006d
:1058e000840378002617980037179800ae109000b0
:1058f000e0bd20000009b8002e1090006000b90043
:105900000302780000024200be109000e0bd2000bb
:105910000088b90000024200840178004098de004f
:10592000cf80de002017980031179800ee0090001d
:1059300030342e00000ab800ee0090000080eb002a
:105940000088b9000501780000014100fe009000c8
:1059500030342e000088b900000141008202780036
:1059600040a8de00cf80de000017980011179800d5
:105970002e119000be1190000e1090009e1090000d
:105980000201400083814800f0ec2000010020006b
:105990000200400083804800c489de004c0add001c
:1059a0004401de00020172006e009000fe009000d3
:1059b0000200400083804800004a8800114a8800a5
:1059c000784a8000894a8000004a8000114a80009d
:1059d00069ea070002682e00537c2400c5ea07002c
:1059e0000801be00eaeb07000001be000000200035
:1059f00001f8230022eb070002a02200d37224004a
:105a000088ea0700c0488800d14888000049800023
:105a100011498000a2488000b3488000c648800039
:105a2000d74880000002be000600be003500070017
:105a3000a0488800b14888004f04be000080fa00ea
:105a4000000006000000fa00a0488000b148800075
:105a5000e2488000f348800009eb07000080fa006c
:105a6000000006000000fa00a0488000b148800055
:105a70000080fa00000006000000fa00e048800004
:105a8000f14880000080fa00000006000600fa00dd
:105a90006000b80010079800210798000000eb0094
:105aa000000f78000b00370007fe0700c248800097
:105ab000d34880001e009000ae009000f1ea07007d
:105ac0001007980021079800a00120007eef070032
:105ad0001e0fe800800120009e0f1000f2ff34002e
:105ae00002002000831c24001e009000ae009000e5
:105af00080ea0700e0488800f14888000080fa004a
:105b0000000006001000fa00889fbe00008fbe0053
:105b1000220798003307980044079800550798001b
:105b20000200200003f823004e009000de009000e9
:105b30007aec07000000e00001003a001300370093
:105b40004e019000de0190000000200001f82300cb
:105b5000cbea07001e01be0032ea07000004be00c7
:105b60004e019000de0190002e009000be009000db
:105b70002cea07000001be000800be00c1ea0700d1
:105b80006007980071079800030037001e00be00f0
:105b900060079800710798006e009000fe0090006a
:0c5ba0004f04be000080fa000000060068
:020000040000fa
:0200000401f009
:04000000f6ff000007
:020000040000fa
:0200000401f009
:04000400ff7f00007a
:020000040000fa
:0200000401f009
:040008007fff000076
:020000040000fa
:0200000401f009
:04001400ffff0000ea
:020000040000fa
:10000800942f0000942f0000942f0000942f0000dc
:10001800942f0000942f0000942f0000942f0000cc
:10002800942f0000942f0000942f0000942f0000bc
:10003800942f0000942f0000d40b0000942f000090
:10004800942f0000942f0000942f0000942f00009c
:10005800942f0000942f0000942f0000942f00008c
:10006800942f0000942f0000942f0000942f00007c
:10007800942f0000c2110000942f0000942f00005c
:10008800942f0000942f0000942f0000942f00005c
:10009800942f0000942f0000942f0000942f00004c
:1000a800942f0000942f0000942f0000942f00003c
:1000b800942f0000942f0000942f0000942f00002c
:1000c800942f0000942f0000942f0000942f00001c
