:020000040000fa
:080000000001040000000000f3
:020000040000fa
:100200006f80200080ff20000001880000000000b7
:10021000050007000c00070080010200000000003c
:100220000040da000000fe004440a900c0002000a9
:100230000000e0000300320000002000a001880060
:100240004440a80000000600005b200001002000e0
:100250001600370062004000e080480091018800ed
:100260009001ba0062004000e080480091018800df
:100270009002ba0062004000e08048000002eb00fb
:100280006028e10005003a008301e900070033001f
:10029000038009000059eb00040037006128e100e9
:1002a000010032000082eb00050007009101880088
:1002b0001001ba000200e000e6ff3a00000005006d
:1002c000910188008002780062004000e0804800d0
:1002d0003559ba008301e900080032002559ba00f7
:1002e0008301e900050032000400e000f4ff320061
:1002f00015d9ba008301e900f1ff3a0000000600b9
:100300000000fa000b00070010c0b30065000700f2
:10031000803e200014000700db02a900204080007e
:1003200081010700803e20000f000700db02a800cb
:10033000f5ff37000000fa003173200000002200b2
:10034000ac010700204088002c000700a00020001e
:100350000500070038000700a00020000200070089
:100360000080fa00000006000200fa00000f78008a
:1003700005e1a800060037000000eb000008880037
:100380000108800020732000808f5000fcff3600a1
:100390001e0fe9000080eb009e0f1000f6ff3a00f0
:1003a00005e1a9000000eb00000888000080fa00c9
:1003b000000006000200fa00000f780005e1a80026
:1003c000050037000000eb000008880000088000ee
:1003d000e10f5000fdff36001e0fe9000080eb002a
:1003e0009e0f1000f7ff3a0005e1a9000000eb00a6
:1003f000000888000080fa00000006000000fa00f3
:10040000ca42a900ca62a900ca82a900caa2a90058
:10041000c642a900c662a900c682a900c6a2a90058
:10042000ca22a900c622a900ca02a900c602a900c0
:100430000080fa00000006000000fa0020c0b300af
:100440001800070010002000c7ff070080c2b3009b
:100450001400070010002000c3ff070080c0b30095
:100460001000070010002000bfff070060c0b300ad
:100470000c00070010002000bbff0700f0c0b30015
:100480000800070010002000b7ff070010c0b300ed
:100490000400070050002000b3ff07000080fa00ae
:1004a000000006000200fa00004f7800ca02a9000e
:1004b0009e80fb0000082000008060004780de0076
:1004c000614060006140600000404000004040002a
:1004d000004040000040400000414000a12c2000ae
:1004e00091407800f0cdb30000c060000240700081
:1004f000cae2b7009e80fb0000042000008060007c
:100500004680de00614060006140600000404000c5
:10051000004040000040400000414000a12c20006d
:1005200091407800f0ceb30000c06000024070003f
:10053000cae2b7009e80fb0000022000008060003d
:100540004580de0061406000614060000040400086
:100550000040400000414000a12c20009140780064
:1005600070cfb30000c0600002407000cae2b70064
:100570001e80fb00700060004480de00614060006f
:10058000614060000040400000414000a12c20007c
:1005900091407800b0cfb30000c06000024070000e
:1005a000cae2b700ca22a8004001200081ff07006c
:1005b000ca22a9001e80fb00680060004380de00a4
:1005c0006140600061406000004040000040400029
:1005d000004040000040400000414000a12c2000ad
:1005e00091407800f0cdb30000c060000240700080
:1005f000cae2b7001e80fb00640060004280de009b
:1006000061406000614060000040400000404000e8
:100610000040400000414000a12c200091407800a3
:10062000f0ceb30000c0600002407000cae2b70024
:100630001e80fb00620060000080d100614060000d
:100640006140600000404000004040000041400028
:10065000a12c20009140780070cfb30000c0600052
:1006600002407000cae2b7009e40780061c060009e
:1006700061406000614060006140600000404000f7
:1006800000414000a12c200091407800b0cfb30081
:1006900000c0600002407000cae2b700ca22a80091
:1006a0004001200043ff0700ca22a9000080fa0091
:1006b000000006000200fa00004f7800ca02a800fd
:1006c0009e80fb0000082000008060004780de0064
:1006d0006140600061406000004040000040400018
:1006e000004040000040400000414000a12c20009c
:1006f00091407800f0cdb30000c06000024070006f
:10070000cae2b7009e80fb00000420000080600069
:100710004680de00614060006140600000404000b3
:10072000004040000040400000414000a12c20005b
:1007300091407800f0ceb30000c06000024070002d
:10074000cae2b7009e80fb0000022000008060002b
:100750004580de0061406000614060000040400074
:100760000040400000414000a12c20009140780052
:1007700070cfb30000c0600002407000cae2b70052
:100780001e80fb00700060004480de00614060005d
:10079000614060000040400000414000a12c20006a
:1007a00091407800b0cfb30000c0600002407000fc
:1007b000cae2b700ca22a80040012000fdfe0700df
:1007c000ca22a9001e80fb00680060004380de0092
:1007d0006140600061406000004040000040400017
:1007e000004040000040400000414000a12c20009b
:1007f00091407800f0cdb30000c06000024070006e
:10080000cae2b7001e80fb00640060004280de0088
:1008100061406000614060000040400000404000d6
:100820000040400000414000a12c20009140780091
:10083000f0ceb30000c0600002407000cae2b70012
:100840001e80fb00620060000080d10061406000fb
:100850006140600000404000004040000041400016
:10086000a12c20009140780070cfb30000c0600040
:1008700002407000cae2b7009e40780061c060008c
:1008800061406000614060006140600000404000e5
:1008900000414000a12c200091407800b0cfb3006f
:1008a00000c0600002407000cae2b700ca22a8007f
:1008b00040012000bffe0700ca22a9000080fa0004
:1008c000000006000400fa0010079800a0002000b5
:1008d000a5fe07000000eb00000f780009003700bc
:1008e0001e007800800078001e009000008040000c
:1008f000104078001e0fe8006eff0700a0002000e7
:1009000099fe07001e007800800078001e0090000d
:1009100000804000104078000004e000f0ff3a0042
:100920000080fa00000006000a00fa004007980064
:100930000e80e800a15a280005000900315878000f
:100940006000b1006100b1000000eb00000f780012
:10095000110037009e0178004e009000a200200098
:10096000110009000280d8008000fd0002c3b3001e
:10097000824040000e80e80000804100014878007d
:100980001e0fe8004e009000a20020001100090098
:100990000280d800400798004e0090000000e00060
:1009a000ecff3a00080037001e0fe9009e007800b7
:1009b0000e80e80000804000104078003dff0700f6
:1009c000a000200068fe07001e00e000f6ff3c00cb
:1009d0000080fa00000006000000fa000000eb00b2
:1009e000e01688000000eb00c01688000080fa00c6
:1009f000000006000400fa00000f780011079800bc
:100a00001e00780022032000110009000280d80097
:100a10000000e900104088001e009000004088009f
:100a2000edff07001e009000080007001a000700f5
:100a300000002800000e8800daa2a8001fe1a8002c
:100a4000b00e80000080fa00000006000200fa00ec
:100a5000000f780010408000200e8800f070200009
:100a6000400e880000f02f00a00e88001e007800c5
:100a700000004000b00e88001e007800000040001a
:100a8000c00e88001e00780000004000d00e8800d4
:100a90000080fa00000006000000fa00e1092000d2
:100aa0009140780000c7b30000c070009ee0b7001e
:100ab000e111200091407800f0ccb30000c060004c
:100ac0001ee1b7000000eb00a00888000040800095
:100ad000d008880086a0a9008ea0a8001fe1a90068
:100ae0000080fa0000000600809fbe003400f8007d
:100af00000c0b300a00188000000fa0086a0a90091
:100b00001fe1a9001140800000408000808050005b
:100b1000d0088000808f500004003a000040800020
:100b2000d0088800daa2a800050037001040800035
:100b30000140800001005000d0088800daa2a9001e
:100b40001fe1a8000080fa003400f9004f00be0049
:040b5000004006005b
:020000040000fa
:0200000401f009
:04000000f4ff000009
:020000040000fa
:0200000401f009
:04000400ff7f00007a
:020000040000fa
:0200000401f009
:040008007fff000076
:020000040000fa
:0200000401f009
:04001400ffff0000ea
:020000040000fa
:10000800be050000be050000be050000be050000dc
:10001800be050000be050000be050000be050000cc
:10002800be050000be050000be050000be050000bc
:10003800be050000be050000be050000be050000ac
:10004800be050000be050000be050000be0500009c
:10005800be050000be050000be050000be0500008c
:10006800be050000be050000be050000be0500007c
:10007800be05000074050000be050000be050000b6
:10008800be050000be050000be050000be0500005c
:10009800be050000be050000be050000be0500004c
:1000a800be050000be050000be050000be0500003c
:1000b800be050000be050000be050000be0500002c
:1000c800be050000be050000be050000be0500001c
:1000d800be050000be050000be050000be0500000c
:1000e800be050000be050000be050000be050000fc
:0800f800be050000be0500007a
:020000040000fa
:10010800be050000be050000be050000be050000db
:10011800be050000be050000be050000be050000cb
:10012800be050000be050000be050000be050000bb
:10013800be050000be050000be050000be050000ab
:10014800be050000be050000be050000be0500009b
:10015800be050000be050000be050000be0500008b
:10016800be050000be050000be050000be0500007b
:10017800be05000074050000be050000be050000b5
:10018800be050000be050000be050000be0500005b
:10019800be050000be050000be050000be0500004b
:1001a800be050000be050000be050000be0500003b
:1001b800be050000be050000be050000be0500002b
:1001c800be050000be050000be050000be0500001b
:1001d800be050000be050000be050000be0500000b
:1001e800be050000be050000be050000be050000fb
:0801f800be050000be05000079
:020000040000fa
:0c0b540041720000726100007900000096
:020000040000fa
:100b6000040800000200000000000000000800006f
:0c0b700004000000000000000000000075
:020000040000fa
:040b7c000000fe0077
:00000001FF
