:020000040000fa
:080000000001040000000000f3
:020000040000fa
:100200008f85200080ff2000000188000000000092
:10021000050007000c00070080010200000000003c
:100220000040da000000fe004440a900c00b20009e
:100230000000e0000300320000002000a001880060
:100240004440a80000000600c0b2200001002000c9
:100250001600370062004000e080480091018800ed
:100260009001ba0062004000e080480091018800df
:100270009002ba0062004000e08048000002eb00fb
:100280006028e10005003a008301e900070033001f
:10029000038009000059eb00040037006128e100e9
:1002a000010032000082eb00050007009101880088
:1002b0001001ba000200e000e6ff3a00000005006d
:1002c000910188008002780062004000e0804800d0
:1002d0003559ba008301e900080032002559ba00f7
:1002e0008301e900050032000400e000f4ff320061
:1002f00015d9ba008301e900f1ff3a0000000600b9
:100300000000fa001600070010c0b300b500070097
:10031000e0ac2800bb010700c0122000620007000b
:100320000000370010c0b300ae000700e0ad2800a9
:10033000b40107007e030700cb01070000ccb30027
:10034000a8000700c00e8000c7010700a04280007f
:10035000e10f5000f3ff3a0071030700f1ff37008f
:100360000000fa0075000700a00020004e00070002
:1003700081000700a00020004b000700c0ae28004d
:10038000a001070000ccb3009600070030732000e6
:10039000e8010700800c20004300070080af280020
:1003a00098010700401f20003f000700c0af280051
:1003b0009401070025030700800c20003a00070085
:1003c000c0af28008f0107000080fa00000006007f
:1003d0000000fa00710920009140780080cfb3003e
:1003e00000c060006040b30097e0b700011120003a
:1003f00091407800f0ccb30000c0600010e1b7007d
:100400000000eb0030088800000029006008880028
:1004100084c0a9008cc0a80011e1a9000080fa00e6
:10042000000006003600f800809fbe00829fbe00dc
:10043000849fbe00869fbe003400f80000c0b30059
:10044000a00188000000fa000000eb0030088800de
:100450003b030700b04280000000e800b042880083
:100460000000eb00a0428800b0428000f90f50006d
:1004700004003a000000eb00b042880010002000a9
:10048000a042880084c0a9000080fa003400f9006e
:100490004f03be004f02be004f01be004f00be0022
:1004a0003600f900004006000200fa00000f780054
:1004b00005e1a800060037000000eb0000088800f6
:1004c0000108800020732000808f5000fcff360060
:1004d0001e0fe9000080eb009e0f1000f6ff3a00af
:1004e00005e1a9000000eb00000888000080fa0088
:1004f000000006000200fa00000f780005e1a800e5
:10050000050037000000eb000008880000088000ac
:10051000e10f5000fdff36001e0fe9000080eb00e8
:100520009e0f1000f7ff3a0005e1a9000000eb0064
:10053000000888000080fa00000006000000fa00b1
:10054000ca42a900ca62a900ca82a900caa2a90017
:10055000c642a900c662a900c682a900c6a2a90017
:10056000ca22a900c622a900ca02a900c602a9007f
:100570000080fa00000006000000fa0020c0b3006e
:100580001800070010002000c7ff070080c2b3005a
:100590001400070010002000c3ff070080c0b30054
:1005a0001000070010002000bfff070060c0b3006c
:1005b0000c00070010002000bbff0700f0c0b300d4
:1005c0000800070010002000b7ff070010c0b300ac
:1005d0000400070050002000b3ff07000080fa006d
:1005e000000006000200fa00004f7800ca02a900cd
:1005f0009e80fb0000082000008060004780de0035
:1006000061406000614060000040400000404000e8
:10061000004040000040400000414000a12c20006c
:1006200091407800f0cdb30000c06000024070003f
:10063000cae2b7009e80fb0000042000008060003a
:100640004680de0061406000614060000040400084
:10065000004040000040400000414000a12c20002c
:1006600091407800f0ceb30000c0600002407000fe
:10067000cae2b7009e80fb000002200000806000fc
:100680004580de0061406000614060000040400045
:100690000040400000414000a12c20009140780023
:1006a00070cfb30000c0600002407000cae2b70023
:1006b0001e80fb00700060004480de00614060002e
:1006c000614060000040400000414000a12c20003b
:1006d00091407800b0cfb30000c0600002407000cd
:1006e000cae2b700ca22a8004001200081ff07002b
:1006f000ca22a9001e80fb00680060004380de0063
:1007000061406000614060000040400000404000e7
:10071000004040000040400000414000a12c20006b
:1007200091407800f0cdb30000c06000024070003e
:10073000cae2b7001e80fb00640060004280de0059
:1007400061406000614060000040400000404000a7
:100750000040400000414000a12c20009140780062
:10076000f0ceb30000c0600002407000cae2b700e3
:100770001e80fb00620060000080d10061406000cc
:1007800061406000004040000040400000414000e7
:10079000a12c20009140780070cfb30000c0600011
:1007a00002407000cae2b7009e40780061c060005d
:1007b00061406000614060006140600000404000b6
:1007c00000414000a12c200091407800b0cfb30040
:1007d00000c0600002407000cae2b700ca22a80050
:1007e0004001200043ff0700ca22a9000080fa0050
:1007f000000006000200fa00004f7800ca02a800bc
:100800009e80fb0000082000008060004780de0022
:1008100061406000614060000040400000404000d6
:10082000004040000040400000414000a12c20005a
:1008300091407800f0cdb30000c06000024070002d
:10084000cae2b7009e80fb00000420000080600028
:100850004680de0061406000614060000040400072
:10086000004040000040400000414000a12c20001a
:1008700091407800f0ceb30000c0600002407000ec
:10088000cae2b7009e80fb000002200000806000ea
:100890004580de0061406000614060000040400033
:1008a0000040400000414000a12c20009140780011
:1008b00070cfb30000c0600002407000cae2b70011
:1008c0001e80fb00700060004480de00614060001c
:1008d000614060000040400000414000a12c200029
:1008e00091407800b0cfb30000c0600002407000bb
:1008f000cae2b700ca22a80040012000fdfe07009e
:10090000ca22a9001e80fb00680060004380de0050
:1009100061406000614060000040400000404000d5
:10092000004040000040400000414000a12c200059
:1009300091407800f0cdb30000c06000024070002c
:10094000cae2b7001e80fb00640060004280de0047
:100950006140600061406000004040000040400095
:100960000040400000414000a12c20009140780050
:10097000f0ceb30000c0600002407000cae2b700d1
:100980001e80fb00620060000080d10061406000ba
:1009900061406000004040000040400000414000d5
:1009a000a12c20009140780070cfb30000c06000ff
:1009b00002407000cae2b7009e40780061c060004b
:1009c00061406000614060006140600000404000a4
:1009d00000414000a12c200091407800b0cfb3002e
:1009e00000c0600002407000cae2b700ca22a8003e
:1009f00040012000bffe0700ca22a9000080fa00c3
:100a0000000006000400fa0010079800a000200073
:100a1000a5fe07000000eb00000f7800090037007a
:100a20001e007800800078001e00900000804000ca
:100a3000104078001e0fe8006eff0700a0002000a5
:100a400099fe07001e007800800078001e009000cc
:100a500000804000104078000004e000f0ff3a0001
:100a60000080fa00000006000a00fa004007980023
:100a70000e80e80021b028000500090031587800f8
:100a80006000b1006100b1000000eb00000f7800d1
:100a9000110037009e0178004e009000a200200057
:100aa000110009000280d8008000fd0002c3b300dd
:100ab000824040000e80e80000804100014878003c
:100ac0001e0fe8004e009000a20020001100090057
:100ad0000280d800400798004e0090000000e0001f
:100ae000ecff3a00080037001e0fe9009e00780076
:100af0000e80e80000804000104078003dff0700b5
:100b0000a000200068fe07001e00e000f6ff3c0089
:100b10000080fa00000006000000fa000000eb0070
:100b2000e01688000000eb00c01688000080fa0084
:100b3000000006000200fa00000f7800f01f2100fc
:100b4000804288001e007800904288009042800019
:100b500070428800f0ff070007000700150007003b
:100b600000002800000e8800daa2a8001fe1a800fb
:100b70000080fa00000006000000fa0080428000b9
:100b8000200e8800f0702000400e880000f02f003a
:100b9000a00e880090428000b00e88009042800035
:100ba000c00e880090428000d00e88000080fa00bd
:100bb000000006000000fa00e109200091407800e2
:100bc000f0c8b30000c0600001c6b300014070006f
:100bd0009ee0b700e111200091407800f0ccb30016
:100be00000c060001ee1b7000000eb00a008880014
:100bf00070428000d008880086a0a9008ea0a800be
:100c00001fe1a9000080fa00000006000400fa00bd
:100c1000000f7800110798001e0078007300b900db
:100c20008000780090428000808040001e0090008c
:100c300000804000000040006002b000b00e88005c
:100c40000080fa00000006000400fa00000f78009f
:100c5000110798001e0078007300b900800078002a
:100c600090428000808040001e0090000080400084
:100c700000004000c00e88000080fa00000006005e
:100c80000400fa00000f7800110798001e00780099
:100c90007300b9008000780090428000808040009e
:100ca0001e0090000080400000004000801cb0004a
:100cb000d00e88000080fa00000006000400fa0050
:100cc000000f7800110798001e0078007300b9002b
:100cd0008000780090428000808040001e009000dc
:100ce000008040002007b000704288000080fa00b9
:100cf00000000600809fbe003400f80000c0b30072
:100d0000a00188000000fa000000eb00a0088800a5
:100d1000814280007042800080805000d0088000b6
:100d2000808f500004003a0070428000d008880094
:100d3000daa2a800050037008042800071428000de
:100d400001005000d0088800daa2a90086a0a900fe
:100d50000080fa003400f9004f00be000040060099
:100d60000200fa00881f7800000f780080b0280089
:100d7000cd000700e1000700804078001e007800e9
:100d8000014878001e04e800dc000700004c7800f1
:100d9000b0b02800c40007001e84e800d700070098
:100da000004c78001e00780063044000d300070068
:100db000004c78001e00780064044000cf0007005b
:100dc000004c78001e00780065044000cb0007004e
:100dd000004c78001e00780066044000c700070041
:100de000004c78001e00780067044000c300070034
:100df000004c78001e00780068044000bf00070027
:100e0000004c780040b12800a70007001e007800c1
:100e100069044000b9000700004c78001e0078000b
:100e20006a044000b5000700004c78001e007800fe
:100e30006b044000b1000700004c78001e007800f1
:100e40006c044000ad000700004c78001e007800e4
:100e50006d044000a9000700004c78001e007800d7
:100e60006e044000a5000700004c78001e007800ca
:100e70006f044000a1000700004c78001e007800bd
:100e8000700440009d000700004c78001e007800b0
:100e90007104400099000700004c780000b228005f
:100ea000810007001e0078007204400093000700d4
:100eb000004c78001e007800730440008f0007008b
:100ec000004c78001e007800740440008b0007007e
:100ed000004c78001e007800750440008700070071
:100ee000004c78001e007800760440008300070064
:100ef000004c78001e007800770440007f00070057
:100f0000004c78001e007800780440007b00070049
:100f1000004c78001e00780079044000770007003c
:100f2000004c78004f0478000080fa0000000600b2
:100f30000400fa00100798000000eb00000f780092
:100f4000090037001e007800800078001e00900025
:100f500000804000104078001e0fe80025fe0700ca
:100f60001000200050fd0700100020009e0f100010
:100f7000f4ff3400090037001e007800800078007c
:100f80001e00900000804000104078001e0fe80016
:100f900018fe07001000200043fd0700800020001d
:100fa0009e0f1000f4ff340000ccb3008dfd07004d
:100fb000100020003cfd0700090037001e007800eb
:100fc000800078001e0090000080400010407800f3
:100fd0001e0fe80007fe07001000200032fd07008a
:100fe000100120009e0f1000f4ff340009003700ac
:100ff0001e007800800078001e00900000804000f5
:10100000104078001e0fe800fafd070010002000d5
:1010100025fd0700900120009e0f1000f4ff340012
:101020008038210020fd070010c0b3006dfd0700cf
:10103000100020001cfd07000080fa0000000600e0
:101040000000fa000080fa00000006000000fa002c
:1010500000402800601088000040200070108800c8
:1010600020002000a01088000080fa000000060088
:101070000200fa00000f78000080fa00000006006d
:101080000200fa00004f78001e80fb0080108800ec
:101090000fc2bf00614060000004e000fcff3200ae
:1010a0000080fa00000006000400fa001007980013
:1010b0000000eb00000f7800070037001e007800ea
:1010c000800078001e0090000080400010407800f2
:1010d0001e0fe800eaff07001e007800800078007d
:1010e0001e00900000804000104078000004e000e6
:1010f000f2ff3a000080fa00000006000000fa004b
:101100000ec2bf00614060000004e000fcff32003e
:10111000901080000080fb000080fa0000000600b4
:101120000000fa004e0007000080fa0000000600f0
:101130000000fa00d04180000080fa0000000600a4
:101140000000fa0000408000e10f50000e003a005d
:101150000001eb008000eb000000eb007f000700c7
:10116000d04180000000e800d0418800d1418000db
:1011700010062000808f5000370036001006200037
:10118000d04188003400370010408000e10f50004b
:101190000d003a000001eb008000eb000000eb00c6
:1011a0006e000700d04180000000e900d0418800b7
:1011b000d0418000f30f500027003e004001200086
:1011c000d04188002400370040408000e10f5000eb
:1011d00005003a000001eb008000eb004001200018
:1011e0005e0007001c00370050408000e10f5000f7
:1011f00005003a000001eb008000eb00c0fe2f006c
:10120000560007001400370020408000e10f500016
:1012100005003a000001eb00410120000000eb0056
:101220004e0007000c00370030408000e10f5000f6
:1012300005003a000001eb00c1fe2f000000eb00aa
:1012400046000700040037000001eb008000eb00bf
:101250000000eb00410007000080fa0000000600db
:101260000000fa00b3000700a4ff07001ae8b70067
:101270008520a900a181200091407800f0c6b3002c
:1012800080cf500003003a0010002000004088008a
:1012900027003700a18120009140780000c7b300eb
:1012a00080cf500003003a0010002000104088005a
:1012b0001f003700a18120009140780070c7b30063
:1012c00080cf500003003a0010002000404088000a
:1012d00017003700a18120009140780030c7b3008b
:1012e00080cf500003003a001000200050408800da
:1012f0000f003700a18120009140780010c6b30094
:1013000080cf500003003a001000200020408800e9
:1013100007003700a18120009140780040c6b3004b
:1013200080cf500002003a001000200030408800ba
:10133000d0418000f50f5000030036000000eb00a4
:10134000c0418800030037000000eb00c041880066
:10135000870007000080fa00000006000600fa007f
:10136000000f78001107980022079800c041800004
:10137000e10f500006003a00280007002e019000ff
:101380009e0090001e007800270007001100370023
:10139000614080008040800000805000e041880073
:1013a000714080006040800000805000f041880063
:1013b0008140800060408000008040000042880042
:1013c000704080008000ea00604080000080500093
:1013d00010428800e041800080007800d041800009
:1013e0000afe0700f041800080007800d0418000b4
:1013f00015fe07000042800080007800d041800088
:101400001ffe07001042800080007800d04180005d
:101410002afe07000080fa00000006000000fa0023
:101420000080fa00000006000600fa00000f7800b5
:1014300011079800220798009040800080007800f3
:101440000002eb008001eb000001eb001e007800c1
:101450001300070070408800a040800080007800e2
:101460000002eb008001eb000001eb001e00900089
:101470000b00070080408800b040800080007800aa
:101480000002eb008001eb000001eb002e00900059
:1014900003000700604088000080fa00000006009a
:1014a0000a00fa00000f7800110798002207980040
:1014b00033079800440798001e0090001e0010009b
:1014c000504288006142800050428000008040000d
:1014d0006042880050428000800078002e0090001a
:1014e0000088b900204288006042800080007800b7
:1014f0003e0090000088b90030428800c040800063
:10150000800078004e0090000088b90040428800ba
:1015100021428000304280008080400040428000b4
:1015200000804000e0408800e04080000080fa0039
:10153000000006000000fa000000eb0000408800f8
:101540000000eb00104088000000eb002040880005
:101550000000eb00304088000000eb0040408800b5
:101560000000eb00504088000080fa0000000600f8
:101570000000fa000000eb00604088000000eb0073
:10158000704088000000eb00804088000000eb0005
:0c159000c04088000080fa000000060047
:020000040000fa
:0200000401f009
:04000000f4ff000009
:020000040000fa
:0200000401f009
:04000400ff7f00007a
:020000040000fa
:0200000401f009
:040008007fff000076
:020000040000fa
:0200000401f009
:04001400ffff0000ea
:020000040000fa
:10000800600b0000600b0000600b0000600b00003c
:10001800600b0000600b0000600b0000600b00002c
:10002800600b0000600b0000600b0000600b00001c
:10003800600b0000600b000012020000600b000063
:10004800600b0000600b0000600b0000600b0000fc
:10005800600b0000600b0000600b0000600b0000ec
:10006800600b0000600b0000600b0000600b0000dc
:10007800600b00007a060000600b0000600b0000b7
:10008800600b0000600b0000600b0000600b0000bc
:10009800600b0000600b0000600b0000600b0000ac
:1000a800600b0000600b0000600b0000600b00009c
:1000b800600b0000600b0000600b0000600b00008c
:1000c800600b0000600b0000600b0000600b00007c
:1000d800600b0000600b0000600b0000600b00006c
:1000e800600b0000600b0000600b0000600b00005c
:0800f800600b0000600b00002a
:020000040000fa
:10010800600b0000600b0000600b0000600b00003b
:10011800600b0000600b0000600b0000600b00002b
:10012800600b0000600b0000600b0000600b00001b
:10013800600b0000600b000012020000600b000062
:10014800600b0000600b0000600b0000600b0000fb
:10015800600b0000600b0000600b0000600b0000eb
:10016800600b0000600b0000600b0000600b0000db
:10017800600b00007a060000600b0000600b0000b6
:10018800600b0000600b0000600b0000600b0000bb
:10019800600b0000600b0000600b0000600b0000ab
:1001a800600b0000600b0000600b0000600b00009b
:1001b800600b0000600b0000600b0000600b00008b
:1001c800600b0000600b0000600b0000600b00007b
:1001d800600b0000600b0000600b0000600b00006b
:1001e800600b0000600b0000600b0000600b00005b
:0801f800600b0000600b000029
:020000040000fa
:10159c00576500006c6300006f6d00006520000053
:1015ac00746f000020460000554600004f000000fc
:1015bc005468000072750000737400002052000023
:1015cc0061740000653a000020000000506c0000bf
:1015dc006561000073650000207700006169000000
:1015ec00740000002e2e00002e0000002e2e000095
:1015fc002e2e0000000000004172000072610000fd
:10160c00790000004154000000410000542b000000
:10161c0042410000554400003600000041540000d7
:10162c002b4e0000414d0000454600005546000081
:10163c004f000000415400002b500000494e0000a8
:0c164c00313200003334000000000000c8
:020000040000fa
:10165800540800000400000002000000010000001f
:10166800000000001e0800001a0000000000000032
:101678004e080000060000000000000038080000c6
:101688001600000002000000000014000000000026
:101698000000000000000000000000000000000042
:1016a8000000000000000000000800001e0000000c
:0816b80000000000000000002a
:020000040000fa
:0416c0000000fe0028
:00000001FF
