:020000040000fa
:080000000001040000000000f3
:020000040000fa
:100200000f80200080ff2000000188000000000017
:10021000050007000c00070080010200000000003c
:100220000040da000000fe004440a900c0002000a9
:100230000000e0000300320000002000a001880060
:100240004440a80000000600204c200001002000cf
:100250001600370062004000e080480091018800ed
:100260009001ba0062004000e080480091018800df
:100270009002ba0062004000e08048000002eb00fb
:100280006028e10005003a008301e900070033001f
:10029000038009000059eb00040037006128e100e9
:1002a000010032000082eb00050007009101880088
:1002b0001001ba000200e000e6ff3a00000005006d
:1002c000910188008002780062004000e0804800d0
:1002d0003559ba008301e900080032002559ba00f7
:1002e0008301e900050032000400e000f4ff320061
:1002f00015d9ba008301e900f1ff3a0000000600b9
:100300000000fa00ffff37000200fa00000f78003b
:1003100005e1a800060037000000eb000008880097
:100320000108800020732000808f5000fcff360001
:100330001e0fe9000080eb009e0f1000f6ff3a0050
:1003400005e1a9000000eb00000888000080fa0029
:10035000000006000200fa00000f780005e1a80086
:10036000050037000000eb0000088800000880004e
:10037000e10f5000fdff36001e0fe9000080eb008a
:100380009e0f1000f7ff3a0005e1a9000000eb0006
:10039000000888000080fa00000006000000fa0053
:1003a000ca42a900ca62a900ca82a900caa2a900b9
:1003b000c642a900c662a900c682a900c6a2a900b9
:1003c000ca22a900c622a900ca02a900c602a90021
:1003d0000080fa00000006000000fa0020c0b30010
:1003e0001800070010002000c7ff070080c2b300fc
:1003f0001400070010002000c3ff070080c0b300f6
:100400001000070010002000bfff070060c0b3000d
:100410000c00070010002000bbff0700f0c0b30075
:100420000800070010002000b7ff070010c0b3004d
:100430000400070050002000b3ff07000080fa000e
:10044000000006000200fa00004f7800ca02a9006e
:100450009e80fb0000082000008060004780de00d6
:10046000614060006140600000404000004040008a
:10047000004040000040400000414000a12c20000e
:1004800091407800f0cdb30000c0600002407000e1
:10049000cae2b7009e80fb000004200000806000dc
:1004a0004680de0061406000614060000040400026
:1004b000004040000040400000414000a12c2000ce
:1004c00091407800f0ceb30000c0600002407000a0
:1004d000cae2b7009e80fb0000022000008060009e
:1004e0004580de00614060006140600000404000e7
:1004f0000040400000414000a12c200091407800c5
:1005000070cfb30000c0600002407000cae2b700c4
:100510001e80fb00700060004480de0061406000cf
:10052000614060000040400000414000a12c2000dc
:1005300091407800b0cfb30000c06000024070006e
:10054000cae2b700ca22a8004001200081ff0700cc
:10055000ca22a9001e80fb00680060004380de0004
:100560006140600061406000004040000040400089
:10057000004040000040400000414000a12c20000d
:1005800091407800f0cdb30000c0600002407000e0
:10059000cae2b7001e80fb00640060004280de00fb
:1005a0006140600061406000004040000040400049
:1005b0000040400000414000a12c20009140780004
:1005c000f0ceb30000c0600002407000cae2b70085
:1005d0001e80fb00620060000080d100614060006e
:1005e0006140600000404000004040000041400089
:1005f000a12c20009140780070cfb30000c06000b3
:1006000002407000cae2b7009e40780061c06000fe
:100610006140600061406000614060000040400057
:1006200000414000a12c200091407800b0cfb300e1
:1006300000c0600002407000cae2b700ca22a800f1
:100640004001200043ff0700ca22a9000080fa00f1
:10065000000006000200fa00004f7800ca02a8005d
:100660009e80fb0000082000008060004780de00c4
:100670006140600061406000004040000040400078
:10068000004040000040400000414000a12c2000fc
:1006900091407800f0cdb30000c0600002407000cf
:1006a000cae2b7009e80fb000004200000806000ca
:1006b0004680de0061406000614060000040400014
:1006c000004040000040400000414000a12c2000bc
:1006d00091407800f0ceb30000c06000024070008e
:1006e000cae2b7009e80fb0000022000008060008c
:1006f0004580de00614060006140600000404000d5
:100700000040400000414000a12c200091407800b2
:1007100070cfb30000c0600002407000cae2b700b2
:100720001e80fb00700060004480de0061406000bd
:10073000614060000040400000414000a12c2000ca
:1007400091407800b0cfb30000c06000024070005c
:10075000cae2b700ca22a80040012000fdfe07003f
:10076000ca22a9001e80fb00680060004380de00f2
:100770006140600061406000004040000040400077
:10078000004040000040400000414000a12c2000fb
:1007900091407800f0cdb30000c0600002407000ce
:1007a000cae2b7001e80fb00640060004280de00e9
:1007b0006140600061406000004040000040400037
:1007c0000040400000414000a12c200091407800f2
:1007d000f0ceb30000c0600002407000cae2b70073
:1007e0001e80fb00620060000080d100614060005c
:1007f0006140600000404000004040000041400077
:10080000a12c20009140780070cfb30000c06000a0
:1008100002407000cae2b7009e40780061c06000ec
:100820006140600061406000614060000040400045
:1008300000414000a12c200091407800b0cfb300cf
:1008400000c0600002407000cae2b700ca22a800df
:1008500040012000bffe0700ca22a9000080fa0064
:10086000000006000400fa0010079800a000200015
:10087000a5fe07000000eb00000f7800090037001c
:100880001e007800800078001e009000008040006c
:10089000104078001e0fe8006eff0700a000200047
:1008a00099fe07001e007800800078001e0090006e
:1008b00000804000104078000004e000f0ff3a00a3
:1008c0000080fa00000006000a00fa0040079800c5
:1008d0000e80e800c14b280005000900315878005f
:1008e0006000b1006100b1000000eb00000f780073
:1008f000110037009e0178004e009000a2002000f9
:10090000110009000280d8008000fd0002c3b3007e
:10091000824040000e80e8000080410001487800dd
:100920001e0fe8004e009000a200200011000900f8
:100930000280d800400798004e0090000000e000c0
:10094000ecff3a00080037001e0fe9009e00780017
:100950000e80e80000804000104078003dff070056
:10096000a000200068fe07001e00e000f6ff3c002b
:080970000080fa0000000600ff
:020000040000fa
:0200000401f009
:04000000f4ff000009
:020000040000fa
:0200000401f009
:04000400ff7f00007a
:020000040000fa
:0200000401f009
:040008007fff000076
:020000040000fa
:0200000401f009
:04001400ffff0000ea
:020000040000fa
:10000800c4040000c4040000c4040000c4040000c8
:10001800c4040000c4040000c4040000c4040000b8
:10002800c4040000c4040000c4040000c4040000a8
:10003800c4040000c4040000c4040000c404000098
:10004800c4040000c4040000c4040000c404000088
:10005800c4040000c4040000c4040000c404000078
:10006800c4040000c4040000c4040000c404000068
:10007800c4040000c4040000c4040000c404000058
:10008800c4040000c4040000c4040000c404000048
:10009800c4040000c4040000c4040000c404000038
:1000a800c4040000c4040000c4040000c404000028
:1000b800c4040000c4040000c4040000c404000018
:1000c800c4040000c4040000c4040000c404000008
:1000d800c4040000c4040000c4040000c4040000f8
:1000e800c4040000c4040000c4040000c4040000e8
:0800f800c4040000c404000070
:020000040000fa
:10010800c4040000c4040000c4040000c4040000c7
:10011800c4040000c4040000c4040000c4040000b7
:10012800c4040000c4040000c4040000c4040000a7
:10013800c4040000c4040000c4040000c404000097
:10014800c4040000c4040000c4040000c404000087
:10015800c4040000c4040000c4040000c404000077
:10016800c4040000c4040000c4040000c404000067
:10017800c4040000c4040000c4040000c404000057
:10018800c4040000c4040000c4040000c404000047
:10019800c4040000c4040000c4040000c404000037
:1001a800c4040000c4040000c4040000c404000027
:1001b800c4040000c4040000c4040000c404000017
:1001c800c4040000c4040000c4040000c404000007
:1001d800c4040000c4040000c4040000c4040000f7
:1001e800c4040000c4040000c4040000c4040000e7
:0801f800c4040000c40400006f
:020000040000fa
:0c09780041720000726100007900000074
:020000040000fa
:04098400000000006f
:020000040000fa
:040988000000fe006d
:00000001FF
