:020000040000fa
:080000000001040000000000f3
:020000040000fa
:10020000ef8e200080ff2000000188000000000029
:10021000050007000c000700a60602000000000011
:100220000040da000000fe004440a900801d2000cc
:100230000000e0000300320000002000a001880060
:100240004440a8000000060020e921000100200031
:100250001600370062004000e080480091018800ed
:100260009001ba0062004000e080480091018800df
:100270009002ba0062004000e08048000002eb00fb
:100280006028e10005003a008301e900070033001f
:10029000038009000059eb00040037006128e100e9
:1002a000010032000082eb00050007009101880088
:1002b0001001ba000200e000e6ff3a00000005006d
:1002c000910188008002780062004000e0804800d0
:1002d0003559ba008301e900080032002559ba00f7
:1002e0008301e900050032000400e000f4ff320061
:1002f00015d9ba008301e900f1ff3a0000000600b9
:10030000889fbe008a9fbe00010578000100e000c2
:100310000400350008003c000000e000200032002e
:100320000500370060001000e080180002003b006c
:1003300001f02c001a0037000004be006011b80064
:100340006b0920000982cf00020039000882cf002b
:100350000441b000694252000e00320008003b0028
:1003600082817100610164008904d1000884d30096
:100370008b05e8000442e800f9ff3a000500370069
:100380000804440089844c008b05e9000442e9001c
:10039000fbff3a00870107000af0a70001f0a00068
:1003a0004f05be004f04be000000060003f0a2008f
:1003b000889fbe008a9fbe008c1f7800a3010700a3
:1003c000aa0133006450e1004f0032006420e100d4
:1003d0005200320003826c0007003b000905d00088
:1003e0000306d000820f54000c065d0002003900a5
:1003f00002003200890178000306780085825500ea
:1004000004003d000003fd008103fd008502ea00b9
:100410008b854200840f720002003b0060001000d8
:10042000e08018006011b8000005eb007a28e100b8
:100430000a00390006007800c75ddd00f707b2004a
:10044000878075002d003700828171000a017800d5
:10045000610560008180d1000080d3008502e90041
:10046000f9ff3b00060440008784480002003b007f
:1004700060041400e0841c000988a3000700320017
:100480008a81710082817100610164008904d10058
:100490000884d3008b05e800170037000978a30013
:1004a00013003a000b00e000130034008b05e90054
:1004b0000804440089844c000a4474000978a300ad
:1004c0000d003a000b00e000070034008b05e90046
:1004d0000804440089844c0001003a000b0020000d
:1004e0000978a300f7ff32000001eb00020037009b
:1004f000828171000a0178002e0107000cf0a7002c
:1005000001f0a000620137006420e10002003a001f
:10051000838f6c00620133000801be000200be0040
:100520005b013700889fbe008a9fbe008c1f780049
:10053000460107004d01330003866c006450e10062
:10054000240032006420e100270032006150e10005
:10055000220032006120e100210032008b85420040
:10056000eb07b1000134b800003ab80008044200bb
:1005700089844a00013ab8000030b8008880400001
:1005800009014a0004003300000040008180480057
:10059000020149008b05e900c909dd0083017000f3
:1005a0000100320013002000c814de004814dd00f2
:1005b0004709de001200b200c808de00088470009f
:1005c000fc00070001f0a1000cf0a70001f0a00062
:1005d0002f0137006120e100310132000801be0027
:1005e0000200be00f7ff37006150e100fcff3a0057
:1005f0002b013700889fbe008a9fbe008c1f7800a9
:10060000120107001901330003866c006450e100f9
:100610002e0032006420e100330032006150e1001e
:100620002f0032006120e100310032008585550045
:10063000eb07b00009002000080420000500370087
:100640000804440089844c000a003100060343007a
:1006500087834b000001530081815b00f8ff33006a
:100660000203be000800a0000804440089844c0076
:10067000f6ff3900c639dd00830173000100320046
:10068000130020008904d1000884d3000998a30036
:10069000050032000800a7000300a0008904d10073
:1006a0000884d3008b05e8008904d1000884d300b6
:1006b0000001eb000281d200be00070001f0a100a2
:1006c0000cf0a70001f0a000f10037006420e10069
:1006d000f30032000801be000200be00f7ff370041
:1006e0006120e100ee0032006000b800f3ff370047
:1006f0000000200001f82700f0ff37000001be00d5
:10070000ea0007000470a70003f0a10003f8a300ab
:1007100013003a006509b1001000320009003500ed
:100720006928e100020035000100280000000500f2
:1007300000004000818048008502e900fcff3a008b
:1007400000000600f88f4200050035008100d1004e
:100750000080d3008502e800fcff3a00000006009c
:100760008000eb0000000500811f78000100e00020
:1007700002003d0060001000e08018000300e0006f
:1007800002003d0060011100e0811900dc0007005b
:100790004f00e00002003b0060001000e080180005
:1007a00000000600839f68000100e00002003d0099
:1007b00060001000e08018000300e00002003d002f
:1007c00060011100e0811900d00007004f00e00037
:1007d00002003b0060001000e080180000000600ee
:1007e0000001be00b10007000470a70003f0a100e3
:1007f0006509b100160032000d0035006828e100df
:1008000006003500f0ff2f00f1ff27000300e00095
:1008100013003b000100280000000500000040001c
:10082000818048008502e900fcff3a00080037009b
:10083000f88f420002003c008000eb000000050041
:100840008100d1000080d3008502e800fcff3a005f
:100850000300e00002003b0060001000e080180090
:100860000000060014002000b8003700889fbe007a
:100870008a9fbe008c1f78000004be008b0007001a
:100880000478a30026003a006120e1002500320030
:1008900009f8a30025003a006420e100210032009d
:1008a000f507b1000508a300020032000000400077
:1008b000818048006044b80003102000020020003e
:1008c00000004000818048000805440089854c00f4
:1008d0000a0541008b8549000a0550008b855800a8
:1008e000030033000a00be00020474008384740015
:1008f0008301d1000281d300830f7100f0ff3a0021
:100900008904d1000884d300600149008201780085
:10091000c1adde00fb07b000260007005c00370019
:100920000960a0000800be00590037001202200034
:1009300062478800f0ff2f00f1ff270054003700c6
:10094000889fbe008a9fbe008c1f78003f00070072
:100950001002200002003b0060478800430037007f
:100960008a0062006408e10002003a0060478800e3
:100970004b0037006108e100fcff32000800be00b8
:10098000030478001bff070001f0a1008a000700a4
:1009900008f0a600040037000001be009104240006
:1009a000b0fd200081fe070009f0a70001f0a200c1
:1009b0003700370081002000618055000b003d00aa
:1009c0000b00200061fe2f000100e1001d0034003b
:1009d00082817100610164008904d1000884d30020
:1009e0000000e800faff3a00710020006100640096
:1009f000030070000200600009003200610444003e
:100a0000e0844c000988a500050032008b05e80051
:100a10006808e10002003a008904d1000884d3008c
:100a2000f20f20000258e10005003d00c75ddd0027
:100a3000f907b20089807500080078000000060000
:100a40000bf827008b007800000005000004be00b2
:100a5000160007000003be000405be000200be0031
:100a600012000700844f7500000006000200be005f
:100a70006450e100050036006420e1000200360009
:100a80000968a30001003a000800be000160a00050
:100a90004f0678004f05be004f04be000000060060
:100aa000f0ff2f00f1ff2700f9ff3700c70ade0033
:100ab000f107b200f50fb20008003200e1cf4200aa
:100ac000020032000170a00024000500810f7000b8
:100ad000010032000408050044000500810f700089
:100ae00002003a00140005008502e9000000400001
:100af00081c04800fcff3b000170a00024000500fd
:100b0000020007000400be00000006006022b800da
:100b1000060220000000d0008180d2000482d200b2
:100b20008582d2000000a0000202520083825a0097
:100b300003003b000202420083824a000000a10041
:100b40000603e900f3ff3a0000000600889fbe009c
:100b50008a9fbe00841f7800bcff07004f0078000a
:100b600011003300f0ff2f00838f6c0006003b0064
:100b7000040565000a00a7000800370009f0a60078
:100b80001000200008003700820f5400838f5c00a3
:100b9000030039001000200001003e00000020008a
:100ba00009f0a7000000ea004f05be004f04be0098
:100bb0000000e00000000600889fbe008a9fbe0083
:100bc0008c9fbe000004be00b8ff07000800be00f6
:100bd000890678006420e100080039000400320032
:100be0000160a00012022000624788005300370015
:100bf00091fc2300b0fd20004e0037000006eb0002
:100c000009f0a10003f82300020020000800be0044
:100c100014ff07000600340001f823000000200044
:100c20000801be0073fe07000004be002c00200077
:100c30000800be0093e82300320a230009ff0700e2
:100c4000120034000801be00d1fd2300703d2b00ce
:100c5000d7fd07000005be00b3f32300f27a26009b
:100c60000800be002ffe070003f82300020020004a
:100c7000cefd07000801be00cdfd07000a01be0041
:100c80005cfe07000004be000c06e8000800be0081
:100c900001f0a1000200200003982300f1fe0700ec
:100ca0000800be00160035000801be001dfe07004a
:100cb0000005be0032cd2c0043fb2300bcfd070025
:100cc000809fbe001269280003d52b000a00be00d9
:100cd00014fe0700620f210013ef2b00b4fd070084
:100ce0000a01be000ffe07004f01be0041fe0700d3
:100cf0000801be000bfe07000801be00acfd0700a6
:100d00000c00e0000b0032000c10a70001f0a20064
:100d1000b2fd200093fc23006260e1000400320079
:100d200022a9200063f023000c10a70063f8230021
:100d30009ffd07000df0a70001f0a2004f06be00c6
:100d40004f05be004f04be00000006000200fa007e
:100d50000000370045070700b0458800b045800017
:100d6000000f78001e007800e30f50002b003200c7
:100d70001e007800e30f500007003e001e007800c0
:100d8000e10f5000130032001e007800e10f500008
:100d90001c003e000d0037001e007800e50f5000db
:100da000350032001e007800e50f500023003900a6
:100db0001e007800e60f5000350032001e0078005b
:100dc000e70f500043003200e2ff37005b000700ee
:100dd000e0ff370010c0b3000801070060da290007
:100de0000e020700a0002000b500070000ccb300f1
:100df0000201070060db2900080207000505070063
:100e0000d4ff370010c0b300fc00070070dc2900dd
:100e100002020700df040700ceff370010c0b30056
:100e2000f600070070dd2900fc0107000b05070034
:100e30000e07070012020700c6ff3700d609070099
:100e4000be04070080468800804680000000e8005d
:100e50008046880080468000f40f50000200360073
:100e6000500120008046880080468000b7040700bb
:100e7000c0040700b7ff370010c0b300df00070051
:100e800060de2900e50107001a050700b1ff370001
:100e900010c0b300d900070000df2900df01070000
:100ea000a6040700f601070000ccb300d30007003a
:100eb000ea060700f2010700904680000000e0000b
:100ec000a4ff3a0022050700a60407009046880008
:100ed000a0ff370010c0b300c800070090df290052
:100ee000ce010700950407008046880080468000f8
:100ef0000000e90080468800804680000000e00095
:100f00000a003a000000eb008046880010c0b300e1
:100f1000ba00070000e02900c0010700803e200061
:100f20006700070030002000d406070080468000dc
:100f3000860407008f04070086ff37000000fa00d0
:100f400002020700800c20005d00070050e029002d
:100f5000b2010700401f20005900070090e029005f
:100f6000ae0107008a030700800c20005400070030
:100f700050e02900a9010700b9070700800c2000f4
:100f80004f000700e0e02900a4010700f506070074
:100f9000800c20004a000700e0e029009f010700c4
:100fa00086080700800c20004500070050e029005b
:100fb0009a0107000400070010002000af06070098
:100fc0000080fa00000006000000fa0097c0bf0091
:100fd0007040b30097e0b700011120009140780005
:100fe000f0ccb30000c060000044a00010e1b700e6
:100ff0000000eb00300888000071220060088800c3
:1010000084c0a9008cc0a80011e1a9000080fa00ea
:10101000000006003600f800809fbe00829fbe00e0
:10102000849fbe00869fbe003400f80000c0b3005d
:10103000a00188000000fa0084c0a9000000eb00b5
:10104000300888004b04070090468000e10f5000f4
:1010500013003a00db02a800704680000000e800a0
:10106000704688007146800020032000808f500069
:101070000b003a000000eb00704688000000eb0017
:1010800090468800dbc2bf00614060000004e000c1
:1010900002003200db02a90001003700db02a800d9
:1010a0000080fa003400f9004f03be004f02be007a
:1010b0004f01be004f00be003600f90000400600a0
:1010c0000200fa00000f780005e1a80006003700d2
:1010d0000000eb000008880001088000f0f3210008
:1010e000808f5000fcff36001e0fe9000080eb00ef
:1010f0009e0f1000f6ff3a0005e1a9000000eb008a
:10110000000888000080fa00000006000200fa00d3
:10111000000f780005e1a800050037000000eb0093
:101120000008880000088000e70f5000fdff36002f
:101130001e0fe9000080eb009e0f1000f7ff3a0041
:1011400005e1a9000000eb00000888000080fa001b
:10115000000006000000fa00ca42a900ca62a90005
:10116000ca82a900caa2a900c642a900c662a900f3
:10117000c682a900c6a2a900ca22a900c622a90047
:10118000ca02a900c602a9000080fa0000000600f9
:101190000000fa0020c0b300180007001000200073
:1011a000c7ff070080c2b300140007001000200032
:1011b000c3ff070080c0b30010000700100020002c
:1011c000bfff070060c0b3000c0007001000200044
:1011d000bbff0700f0c0b3000800070010002000ac
:1011e000b7ff070010c0b300040007005000200044
:1011f000b3ff07000080fa00000006000200fa00ba
:10120000004f7800ca02a9009e80fb000008200061
:10121000008060004780de00614060006140600047
:1012200000404000004040000040400000404000be
:1012300000414000a12c200091407800f0cdb30087
:1012400000c0600002407000cae2b7009e80fb0050
:1012500000042000008060004680de0061406000e5
:1012600061406000004040000040400000404000fd
:1012700000414000a12c200091407800f0ceb30046
:1012800000c0600002407000cae2b7009e80fb0010
:1012900000022000008060004580de0061406000a8
:1012a00061406000004040000040400000414000bc
:1012b000a12c20009140780070cfb30000c06000e6
:1012c00002407000cae2b7001e80fb0070006000a0
:1012d0004480de00614060006140600000404000ea
:1012e00000414000a12c200091407800b0cfb30015
:1012f00000c0600002407000cae2b700ca22a80025
:101300004001200081ff0700ca22a9001e80fb00c7
:10131000680060004380de00614060006140600062
:1013200000404000004040000040400000404000bd
:1013300000414000a12c200091407800f0cdb30086
:1013400000c0600002407000cae2b7001e80fb00cf
:10135000640060004280de00614060006140600027
:10136000004040000040400000404000004140007c
:10137000a12c200091407800f0ceb30000c06000a6
:1013800002407000cae2b7001e80fb0062006000ed
:101390000080d1006140600061406000004040007a
:1013a0000040400000414000a12c20009140780006
:1013b00070cfb30000c0600002407000cae2b70006
:1013c0009e40780061c06000614060006140600044
:1013d000614060000040400000414000a12c20001e
:1013e00091407800b0cfb30000c0600002407000b0
:1013f000cae2b700ca22a8004001200043ff07004c
:10140000ca22a9000080fa00000006000200fa00cb
:10141000004f7800ca02a8009e80fb000008200050
:10142000008060004780de00614060006140600035
:1014300000404000004040000040400000404000ac
:1014400000414000a12c200091407800f0cdb30075
:1014500000c0600002407000cae2b7009e80fb003e
:1014600000042000008060004680de0061406000d3
:1014700061406000004040000040400000404000eb
:1014800000414000a12c200091407800f0ceb30034
:1014900000c0600002407000cae2b7009e80fb00fe
:1014a00000022000008060004580de006140600096
:1014b00061406000004040000040400000414000aa
:1014c000a12c20009140780070cfb30000c06000d4
:1014d00002407000cae2b7001e80fb00700060008e
:1014e0004480de00614060006140600000404000d8
:1014f00000414000a12c200091407800b0cfb30003
:1015000000c0600002407000cae2b700ca22a80012
:1015100040012000fdfe0700ca22a9001e80fb003a
:10152000680060004380de00614060006140600050
:1015300000404000004040000040400000404000ab
:1015400000414000a12c200091407800f0cdb30074
:1015500000c0600002407000cae2b7001e80fb00bd
:10156000640060004280de00614060006140600015
:10157000004040000040400000404000004140006a
:10158000a12c200091407800f0ceb30000c0600094
:1015900002407000cae2b7001e80fb0062006000db
:1015a0000080d10061406000614060000040400068
:1015b0000040400000414000a12c200091407800f4
:1015c00070cfb30000c0600002407000cae2b700f4
:1015d0009e40780061c06000614060006140600032
:1015e000614060000040400000414000a12c20000c
:1015f00091407800b0cfb30000c06000024070009e
:10160000cae2b700ca22a80040012000bffe0700be
:10161000ca22a9000080fa00000006000400fa00b7
:1016200010079800a0002000a5fe07000000eb00b6
:10163000000f7800090037001e0078008000780055
:101640001e00900000804000104078001e0fe8004f
:101650006eff07001000200099fe07001e007800b2
:10166000800078001e00900000804000104078004c
:101670000004e000f0ff3a000080fa0000000600dd
:101680000a00fa00400798000e80e80021e12900d6
:1016900005000900315878006000b1006100b10018
:1016a0000000eb00000f7800110037009e01780069
:1016b0004e009000a2002000110009000280d80016
:1016c0008000fd0002c3b300824040000e80e800ad
:1016d00000804100014878001e0fe8004e00900095
:1016e000a2002000110009000280d80040079800e5
:1016f0004e0090000000e000ecff3a0008003700c8
:101700001e0fe9009e0078000e80e8000080400077
:10171000104078003dff07001000200068fe070021
:101720001e00e000f6ff3c000080fa00000006000a
:101730000000fa000000eb00e01688000000eb005b
:10174000c01688000080fa00000006000400fa00bd
:10175000881f7800007122002047880028478000f9
:101760006140b900e6fa0700008fbe000800e00003
:1017700005003d0002002000037824001e00be008a
:101780000bfb0700008fbe0002002000833c2400fa
:101790001e00be0063fb070002002000a3472400d8
:1017a00094fb0700d5fb07003047880030478000d6
:1017b00010478800deff0700070007002f00070022
:1017c000c1e1a800daa2a8001fe1a8004f04780038
:1017d0000080fa00000006000200fa00309c2000a1
:1017e000200e8800f0702000400e880000f02f00ce
:1017f000a00e8800c1a1a900c0c1bf006f40600059
:10180000c0e1b700011c20009140780030cfb30048
:1018100000c06000c0e1b700011c200091407800ca
:10182000c0cfb30000c06000c0e1b700007d200061
:10183000b00e88003047800000004000c00e8800d5
:101840001000200093040700000f78001e007800ad
:101850000000e00003003d009e007800e7804000ab
:10186000010f78009e0078004388de00d00e8800cb
:10187000c1e1a9000080fa00000006000000fa00a3
:10188000e109200091407800f0c8b30000c060007a
:1018900001c6b300014070009ee0b700e1112000d6
:1018a00091407800f0ccb30000c060001ee1b700aa
:1018b0000000eb00a008880010478000d0088800d6
:1018c00086a0a9008ea0a8001fe1a9000080fa0050
:1018d000000006000600fa00000f780011079800cb
:1018e00022079800514780001e0078000088b90048
:1018f0008000780030478000808040001e0090000b
:1019000000814000ae009000800220000088b900f5
:1019100080004100504780000080400000004000ef
:10192000b00e88000080fa00000006000600fa00f1
:10193000000f780011079800220798005147800097
:101940001e0078000088b9008000780030478000d1
:10195000808040001e00900000814000ae0090009a
:10196000800220000088b900000041000000400013
:10197000c00e88000080fa00000006000600fa0091
:10198000000f780011079800220798005147800047
:101990001e0078000088b900800078003047800081
:1019a000808040001e009000008140005047800071
:1019b0006c00b90080017800ae0090008002200029
:1019c0000088b90000804100000041000000400094
:1019d000d00e88000080fa00000006000600fa0021
:1019e000000f7800110798002207980051478000e7
:1019f0001e0078000088b900800078003047800021
:101a0000808040001e009000008140005047800010
:101a10006700b90080017800ae00900080022000cd
:101a20000088b90000804100000041001047880094
:101a30000080fa0000000600809fbe003400f8001d
:101a400000c0b300a00188000000fa000000eb0015
:101a5000a008880021478000104780008080500047
:101a6000d0088000808f500004003a0010478000aa
:101a7000d0088800daa2a8000500370020478000bf
:101a80001147800001005000d0088800daa2a900a8
:101a900086a0a9000080fa003400f9004f00be00c3
:101aa000004006000200fa00881f7800000f78004e
:101ab00080e12900d40007009701070080407800ea
:101ac0001e007800014878001e04e800920107001b
:101ad000004c7800b0e12900cb0007001e84e8002c
:101ae0008d010700004c78001e0078006304400060
:101af00089010700004c78001e0078006404400053
:101b000085010700004c78001e0078006504400045
:101b100081010700004c78001e0078006604400038
:101b20007d010700004c78001e007800670440002b
:101b300079010700004c78001e007800680440001e
:101b400075010700004c780040e22900ae00070054
:101b50001e007800690440006f010700004c780007
:101b60001e0078006a0440006b010700004c7800fa
:101b70001e0078006b04400067010700004c7800ed
:101b80001e0078006c04400063010700004c7800e0
:101b90001e0078006d0440005f010700004c7800d3
:101ba0001e0078006e0440005b010700004c7800c6
:101bb0001e0078006f04400057010700004c7800b9
:101bc0001e0078007004400053010700004c7800ac
:101bd0001e007800710440004f010700004c78009f
:101be00000e32900880007001e007800720440000e
:101bf00049010700004c78001e0078007304400083
:101c000045010700004c78001e0078007404400075
:101c100041010700004c78001e0078007504400068
:101c20003d010700004c78001e007800760440005b
:101c300039010700004c78001e007800770440004e
:101c400035010700004c78001e0078007804400041
:101c500031010700004c78001e0078007904400034
:101c60002d010700004c78004f0478000080fa0036
:101c7000000006000400fa00100798000000eb00c6
:101c8000000f7800090037001e00780080007800ff
:101c90001e00900000804000104078001e0fe800f9
:101ca000dafd07001000200005fd070010002000ed
:101cb0009e0f1000f4ff3400090037001e0078006a
:101cc000800078001e0090000080400010407800e6
:101cd0001e0fe800cdfd070010002000f8fc0700f3
:101ce000800020009e0f1000f4ff340000ccb300f1
:101cf00042fd070010002000f1fc0700090037003a
:101d00001e007800800078001e00900000804000d7
:101d1000104078001e0fe800bcfd070010002000f6
:101d2000e7fc0700100120009e0f1000f4ff3400b4
:101d3000090037001e007800800078001e00900027
:101d400000804000104078001e0fe800affd070043
:101d500010002000dafc0700900120009e0f100008
:101d6000f4ff340080382100d5fc070010c0b30018
:101d700022fd070010002000d1fc07000080fa00bf
:101d8000000006000000fa000080fa0000000600d3
:101d90000000fa0000402800601088000040200089
:101da000701088008109200091407800f0c8b300cd
:101db00000c0600001c3b3000140700098e0b700ac
:101dc0008540a9008d40a9008520a9008d20a9008b
:101dd00090012000a01088000080fa00000006009a
:101de0000200fa00004f78001e80fb00801088007f
:101df0000fc2bf00614060000004e000fcff320041
:101e00000080fa00000006000400fa0010079800a5
:101e10000000eb00000f7800070037001e0078007c
:101e2000800078001e009000008040001040780084
:101e30001e0fe800eaff07001e007800800078000f
:101e40001e00900000804000104078000004e00078
:101e5000f2ff3a000080fa00000006000c00fa00d1
:101e6000500798000000eb00000f78005e00900023
:101e70000000e0001f003d00de0090000080eb004d
:101e80000088b900500798001a0037003000200081
:101e90009e0f100006003a009e0078000e80e800b9
:101ea00080804000e0c2b300804878001e0fe80048
:101eb0009e0178005e009000a20020001100090041
:101ec0000200d8008000fd000043b0008040780090
:101ed0000e80e80000804100014878001e0fe800f5
:101ee0005e009000a2002000110009000200d8004e
:101ef000500798005e009000a20020001100090029
:101f00000200d8008000fd000000e0000a0035005b
:101f10005e0090000000e000dcff3c00060037009f
:101f20009e0078000e80e8008080400000c3b3006f
:101f3000804878001e0fe800600020009e0f10000f
:101f4000f7ff34000e80e800b040900000c3b300fb
:101f500080cf50000a003a008e80e800e0c2b30053
:101f6000b0409800060037001e0fe9009e00780080
:101f70000e80e800008040001040780098ff0700c5
:101f80001e00e000f8ff3c000080fa0000000600a0
:101f90000e00fa00881f780050079800610798002b
:101fa0000000eb00000f78005e009000ee00900053
:101fb000e00f5000e08f58002c003d00de00900044
:101fc0000080eb00000ab800de0090000080eb000b
:101fd0000088b9000501780000014100ee00900082
:101fe0000080eb000088b900000141008202780007
:101ff00054079800650798001c0037003000200047
:102000009e0f100006003a009e0078000e80e80047
:1020100080804000e0c2b300804878001e0fe800d6
:102020001e0478005e009000ee009000a2002000e8
:1020300003002000ccf907000043b0008040780086
:102040000e80e80000004400014878001e0fe80000
:102050005e009000ee009000a2002000030020002f
:10206000d0f9070050079800610798005e009000c3
:10207000ee009000a200200003002000baf9070043
:10208000e00f5000e08f58000c0035005e0090001b
:10209000ee009000e00f5000e08f5800d7ff3c00aa
:1020a000060037009e0078000e80e8008080400027
:1020b00000c3b300804878001e0fe80060002000d5
:1020c0009e0f1000f7ff34000e80e800b040900033
:1020d00000c3b30080cf50000a003a008e80e800b1
:1020e000e0c2b300b0409800060037001e0fe900c0
:1020f0009e0078000e80e8000080400010407800cc
:1021000037ff07001e00e000f8ff3c004f04780096
:102110000080fa00000006000000fa000ec2bf00b6
:10212000614060000004e000fcff3200901080007d
:102130000080fb000080fa00000006000000fa00aa
:10214000604280000080fa00000006000200fa00f1
:10215000000f78001e007800604288000080fa00be
:10216000000006000000fa00d04480000080fa0061
:10217000000006000000fa006022b8000200200003
:10218000031a24006000b8001b0107000080fa0059
:10219000000006000000fa00dfff070094e8b70027
:1021a0004189200091407800e0c6b30080cf500004
:1021b00009003a00300020003002070010c0b300d0
:1021c0000efc0700c0e3290014fd0700401f20009b
:1021d000bbfb07000d0037004189200091407800cb
:1021e00030c6b30080cf500008003a003000200015
:1021f0002202070010c0b30000fc0700d0e4290051
:1022000006fd0700401f2000adfb07000080fa001c
:10221000000006000000fa00bfff070094e8b700c6
:10222000418920009140780080c6b30080cf5000e3
:1022300008003a00200020001002070010c0b30080
:10224000eefb0700b0e52900f4fc0700401f20006a
:102250009bfb07000080fa00000006000000fa0067
:1022600000ccb300e5fb07002003200094fb07002f
:1022700000e72900e9fc0700a7ff070094e8b70082
:10228000200320008efb070060e72900e3fc070025
:10229000401f20008afb0700418920009140780000
:1022a00060c6b30080cf50000c003a00c0e72900a0
:1022b000dafc0700800c200081fb0700a201070068
:1022c000af0107008d01070040002000eb0107006f
:1022d00010c0b300c9fb07000400370000ccb300f6
:1022e000c6fb070010e82900ccfc07000080fa00bc
:1022f000000006000000fa008001070086ff0700ca
:1023000094e8b7008520a900418920009140780019
:10231000f0c6b30080cf50000b003a001000200040
:10232000b0438800604280000000e80060428800fe
:1023300060428000f50f50000300360011e1a80054
:1023400060002000cd0107000080fa0000000600b8
:102350000000fa00690107006fff070094e8b7006a
:102360008520a9004189200091407800f0c6b30083
:1023700080cf50000f003a0010002000b0438800ca
:10238000604280000000e8006042880060428000f7
:10239000f60f50006d0036006142800040062000bc
:1023a000808f50006900360040062000604288009f
:1023b00066003700418920009140780000c7b300d3
:1023c00080cf500010003a0010002000c043880069
:1023d000604280000000e9006042880060428000a6
:1023e000f50f500059003e0011e1a9000000eb007c
:1023f0005042880050012000604288007000200098
:102400009e0107005100370041892000914078006b
:1024100070c7b30080cf50000a003a0010002000bf
:102420001044880090438000a1438000d2cc2c004f
:10243000c3dc2300def7070090438800a143880037
:1024400042003700418920009140780030c7b30036
:1024500080cf50000a003a0010002000204488007d
:1024600090438000a1438000d2cc2c00c3dc230029
:10247000cef7070090438800a1438800330037005f
:10248000418920009140780010c6b30080cf5000f1
:1024900006003a0010002000d0438800b0428000bf
:1024a0000000e800b0428800280037004189200081
:1024b0009140780040c6b30080cf500006003a003b
:1024c00010002000e0438800d04280000000e800b7
:1024d000d04288001d0037004189200091407800db
:1024e000b0c6b30080cf500006003a0010002000b4
:1024f00000448800d04280000000e900d0428800fb
:10250000120037004189200091407800e0c6b300f6
:1025100080cf500006003a0010002000f0438800f1
:10252000b04280000000e900b04288000700370098
:10253000418920009140780060c6b30080cf5000f0
:1025400002003a001000200050428800418920001b
:102550009140780060c6b30080cf50001800320070
:10256000b0438000e10f500015003200c0438000ee
:10257000e10f500012003200f0438000e10f5000e4
:102580000f00320000448000e10f50000c003200c8
:10259000d0438000e10f500009003200e04380008a
:1025a000e10f50000600320010448000e10f50009f
:1025b0000300320020448000e10f500003003a0085
:1025c00010002000d0448800020037000000eb001b
:1025d000d044880090438000a14380000200200086
:1025e00003122400cff707007df80700150107004c
:1025f0000080fa00000006000c00fa00008fbe0008
:102600002207980033079800440798005507980060
:1026100050428000e10f500007003a009d03070080
:102620004e029000de0290002e019000be0190004c
:102630001e00be002f00070070448000814480000f
:10264000324480004344800059f7070064f80700d3
:102650007042880050448000614480003244800011
:102660004344800051f707005df80700804288006e
:1026700030448000414480007244800083448000e4
:102680004af7070056f8070090428800504480003f
:102690006144800001f0a200324480004344800085
:1026a00042f707004ef80700a0428800b2428000bf
:1026b000714280006042800086fc070081428000f9
:1026c000604280000001eb0098fc0700d2428000cd
:1026d0009142800060428000a8fc0700a142800077
:1026e000604280000001eb00bcfc07000080fa00a3
:1026f000000006001800fa006007980071079800b3
:10270000020f9800130f9800240f9800350f9800bf
:10271000f7000700400798005107980000010700e4
:1027200020079800310798006011b8002e00900033
:10273000be0090004bf807000000e00001003500eb
:1027400009003700d0c2b300a5fd07002e0090009d
:10275000be00900022f80700c0fd0700b0c3b30020
:102760009ffd0700060037002e009000be0090007d
:102770001bf80700b9fd0700b0c3b30098fd0700c0
:1027800090438000a1438000020020000312240037
:1027900064f7070012f80700b0fd0700b0c3b300ec
:1027a0008ffd07006000b800504488006144880035
:1027b00092438000a34380006000b800809fbe0069
:1027c0006033b8000202be002e019000be019000ee
:1027d0000e0890009e0890000c000700e487570048
:1027e00070448800814488006000b800304488004c
:1027f00041448800d0c0b30079fd0700a0c0b300f9
:1028000077fd07000080fa00000006001000fa00c3
:10281000008fbe00220798003307980044079800f5
:102820005507980066079800770798002e019000da
:10283000be0190001e00be00dcf607005043880079
:1028400061438800704380008143800052438000d0
:1028500063438000d6f607007043880081438800f8
:1028600050438000614380004e019000de019000e3
:102870002cf70700f0428800014388007043800075
:10288000814380006e019000fe01900025f7070053
:10289000a2702d0033c2230022f7070010438800e6
:1028a0002143880090448000cf80de0094f607002a
:1028b0003eb99700ceb997001af707003043880059
:1028c00041438800f04280000143800012438000b1
:1028d00023438000b6f60700324380004343800064
:1028e000b3f60700b0448800c1448800b0448000bb
:1028f000c14480000080fa00000006000000fa00d9
:102900000000eb00b04388000000eb00c0438800eb
:102910000000eb00d04388000000eb00f04388008b
:102920000000eb00e04388000000eb00004488005a
:102930000000eb00104488000000eb0020448800f9
:102940000080fa00000006000000fa006000b800f5
:1029500030448800414488006000b800504488003a
:10296000614488006000b800704488008144880099
:102970000000eb00904488000080fa000000060090
:102980000000fa000000eb00704288000000eb003d
:10299000804288000000eb00904288000000eb00bd
:1029a000a04288000000eb00b04288000000eb006d
:1029b000c04288000000eb00d04288000000eb001d
:1029c000e04288000080fa00000006000200fa00e1
:1029d000000f78001e007800304688000080fa0062
:1029e000000006000000fa00304680000080fa0077
:1029f000000006000200fa00000f78001e007800b8
:102a0000404688000080fa00000006000000fa003e
:102a1000404680000080fa00000006000200fa0034
:102a2000000f78001e007800504688000080fa00f1
:102a3000000006000000fa00504680000080fa0006
:102a4000000006000200fa00000f78001e00780067
:102a5000604688000080fa00000006000000fa00ce
:102a6000604680000080fa00000006000000fa00c6
:102a7000c04580000080fa00000006000200fa0055
:102a8000000f78001e007800c04588000080fa0022
:102a9000000006000200fa00000f78001e00780017
:102aa0006101b80000e823000012b8006010b9000e
:102ab000050378000003430000e823000098b900f4
:102ac0000003430086027800040078000080fa00ca
:102ad000000006000400fa00008fbe001e00be00c9
:102ae000d0458800e14588000080fa00000006001b
:102af0000000fa00d0458000e14580000080fa0027
:102b0000000006000400fa00008fbe001e00be0098
:102b1000f0458800014688000080fa0000000600a9
:102b20000000fa00f0458000014680000080fa00b5
:102b3000000006000400fa00008fbe001e00be0068
:102b400010468800214688000080fa000000060038
:102b50000000fa0010468000214680000080fa0044
:102b6000000006000200fa000040eb00004f780071
:102b7000b2c0b30011c3b30030c5b300c700070033
:102b80001e4f400082c0b300d1c2b30030c5b300b5
:102b9000c20007001e4f4000a2c0b300c1c2b30074
:102ba00030c5b300bd0007001e4f40001e80fb0073
:102bb0000080fa00000006000a00fa0040079800b2
:102bc0000040eb00004f78000e01e80063c0b30046
:102bd00021c3b30030c5b300210107001e4f4000e0
:102be0000e00e800104090000080fb000000400054
:102bf00000004000000040000000400000004000d5
:102c0000000040000000400000004000800078000c
:102c10000e00e800104078000080fb00008070008b
:102c200080007800f0ff2100808060004e0090005e
:102c3000010878004e0090000081e8000e00e800d6
:102c4000304090000080fb00000040000000400089
:102c50000000400000004000000040000000400074
:102c60000000400000004000800078000e00e800f6
:102c7000204090000080fb00008070008000780001
:102c8000f0ff210000806000000978004e009000f5
:102c9000640140000e00e800504090000080fb00fe
:102ca0000000400000004000000040000000400024
:102cb0000000400000004000000040000000400014
:102cc000800078000e00e800404090000080fb008b
:102cd0000080700080007800f0ff2100008060001c
:102ce000000978001e80fb000080fa00000006004a
:102cf0000000fa000602a80006c2bf0061406000a2
:102d00000004e000fcff3a000080fa00000006002a
:102d10000000fa000622a80006c2bf006240600060
:102d20000004e000fcff3a000080fa00000006000a
:102d30000000fa000642a80006c2bf00644060001e
:102d40000004e000fcff3a000080fa0000000600ea
:102d50000000fa0006a2a9000682a80006c2bf0071
:102d6000704060000004e000fcff3a000080fa00c0
:102d7000000006000000fa0006a2a8000682a800d3
:102d800006c2bf00704060000004e000fcff3a0093
:102d900006a2a9000080fa00000006000200fa0066
:102da00009c2bf008000eb00010f78000004e000c2
:102db0000200350010002000000f78001e0078008f
:102dc0000080fa00000006000200fa00004f7800c0
:102dd0001e40780002e2b70008c2bf0061406000f8
:102de0000004e000fcff3a000080fa00000006004a
:102df0000400fa00004f78001e40780002e2b7009d
:102e000009c2bf000044b2000004e000fcff3a0029
:102e100009c2bf008000eb00110798000004e00029
:102e20000200350010002000100798001e009000de
:102e30000080fa00000006000000fa000662a80008
:102e400008c2bf00624060000004e000fcff3200e6
:102e500000c2bf000080fb000080fa0000000600f6
:102e60000000fa000020280030108800100920001f
:102e7000201088000080fa00000006000000fa0020
:102e800085c0bf000044b2000004e000fcff320037
:102e900085c0a9000080fa00000006000800fa00c2
:102ea0002047980031479800424798000040eb00c7
:102eb000004f78008eff07002e4090000040400039
:102ec000cbff07008040eb00714798000004e00052
:102ed00002003a0010c0b300704798001e4078000e
:102ee000fe40900000c04000004f78003e4090003f
:102ef000bfff07008040eb00614798000004e0003e
:102f000002003a0010c0b300604798001e407800ed
:102f1000ee40900000c04000004f78004e4090000e
:102f2000b3ff07008040eb00514798000004e00029
:102f300002003a0010c0b300504798001e407800cd
:102f4000de40900000c04000004f780078ff07008e
:102f50001e80fb000080fa00000006000c00fa0052
:102f60002047980031479800220798000040eb0066
:102f7000004f78005eff07002e40900000404000a8
:102f80009bff07008040eb00214f98000004e00009
:102f900002003a0010c0b300204f98001e40780095
:102fa000ae48900000c04000004f78003e409000c6
:102fb0008fff07008040eb00114f98000004e000f5
:102fc00002003a0010c0b300104f98001e40780075
:102fd0009e48900000c04000004f78004cff070062
:102fe0002e4090000080fb00000040000004a00084
:102ff0007fff07008040eb00014f98000004e000d5
:1030000002003a0010c0b300004f98001e40780044
:103010008e48900000c04000004f78001e04e00081
:103020000400320042ff07001e80fb0030079800ba
:103030000800370080ff0700804078002e009000d5
:10304000014878004bff070039ff07009e80fb0016
:10305000310798003e0090000080fa000000060052
:103060000e00fa0020479800314798002207980088
:10307000634798000040eb00004f78001cff0700fa
:103080002e4090000040400059ff07008040eb00b8
:10309000414f98000004e00002003a0010c0b30065
:1030a000404f98001e407800ce48900000c040007d
:1030b000004f78003e4090004dff07008040eb003d
:1030c000314f98000004e00002003a0010c0b30045
:1030d000304f98001e407800be48900000c040006d
:1030e000004f78000aff07002e4090000080fb0090
:1030f000000040000004a0003dff07008040eb00fe
:10310000214f98000004e00002003a0010c0b30014
:10311000204f98001e407800ae48900000c040004c
:10312000004f78001e04e0000c00320000ff070092
:103130001e80fb00400798001d0037003eff07007f
:10314000804078002e009000014878002e0090000a
:103150000000e80020079800fdfe07008040eb001b
:10316000714798006e409000e14f50000200360019
:1031700010c0b300704798006e4090000040e90016
:1031800060479800fe4090000104e000ebff3a0029
:1031900029ff0700804078002e0090000148780049
:1031a000f4fe0700e2fe07001e80fb0040079800c7
:1031b0004e0090000080fa00000006000200fa00b5
:1031c0000040eb00004f7800f2c1b30001c2b30031
:1031d00090c6b30031ff07001e4f40001e80fb0069
:1031e0000080fa00000006000600fa0020079800a0
:1031f0000040eb00004f78000e01e80081c2b300f0
:1032000090c6b30055ff07001e4f40000e81e80036
:1032100091c2b30090c6b30050ff07001e4f40009c
:103220002e4090000080fb000000400000004000a5
:10323000000040000000400000004000000040008e
:103240000000400000004000800078001e40900018
:103250000080fb0000807000800078002e0090004d
:10326000010878000e01e800a1c2b30090c6b300c7
:103270003aff07001e4f40000e81e800b1c2b300c4
:1032800090c6b30035ff07001e4f40002e0090008f
:103290000081e8002e4090000080fb00000040000c
:1032a000000040000000400000004000000040001e
:1032b0000000400000004000000040008000780056
:1032c0001e4090000080fb00008070000009780024
:1032d0000e01e800c1c2b30090c6b3001fff070093
:1032e0001e4f40000e81e800d1c2b30090c6b3006b
:1032f0001aff07001e4f40002e009000640140009e
:103300002e4090000080fb000000400000004000c4
:1033100000004000000040000000400000004000ad
:103320000000400000004000800078001e40900037
:103330000080fb0000807000000978001e80fb0008
:103340000080fa00000006000000fa00889fbe001e
:1033500035010700f0000700b0408000c140800048
:10336000a2702d0033c223006ef407000002be00dd
:1033700050418000614180000001be000400be0099
:103380000bf4070082142e00a3f7230065f4070056
:103390000004be00504180006141800002702d0099
:1033a00033ca23005ff407000001be000800be001e
:1033b000fff30700f0418800014288009040800040
:1033c000a1408000a2702d0033c2230055f40700f5
:1033d0000002be0070418000814180000001be00fb
:1033e0000400be00f2f3070082142e00a3f72300ae
:1033f0004cf407000004be00704180008141800051
:1034000002702d0033ca230046f407000001be00fd
:103410000800be00e6f30700104288002142880041
:1034200010428000214280006011b8000df50700b5
:103430000000e0000100350009003700d0c2b300f1
:1034400067fa07001042800021428000e4f4070080
:1034500082fa0700b0c3b30061fa07000600370024
:103460001042800021428000ddf407007bfa070053
:10347000b0c3b3005afa0700d0c0b30058fa07002f
:10348000a0c0b30056fa07004f04be000080fa0047
:10349000000006000200fa00889fbe001000200015
:1034a000000f7800e00007009b000700b04080009c
:1034b000c1408000a2702d0033c2230019f4070020
:1034c0000002be00f0418000014280000001be0009
:1034d0000400be00b6f3070082142e00a3f72300f9
:1034e00010f407000004be005041800061418000dc
:1034f00002702d0033ca23000af407000001be0049
:103500000800be00aaf30700f041880001428800cd
:1035100090408000a1408000a2702d0033c22300a3
:1035200000f407000002be0010428000214280002b
:103530000001be000400be009df3070082142e00af
:10354000a3f72300f7f307000004be0070418000da
:103550008141800002702d0033ca2300f1f307007f
:103560000001be000800be0091f307001042880071
:1035700021428800f04180000142800055fd070093
:1035800010428000214280005efd07004f04be0013
:103590000080fa00000006000000fa00c14680002a
:1035a00030062000808f500059003e00208320000c
:1035b0000dff0700904180000000e000050035008d
:1035c0009141800030408000008040003040880001
:1035d0000700370090418000800078003040800074
:1035e000808040000000eb000080500030408800e8
:1035f000a04180000000e00005003500a1418000ee
:1036000040408000008040004040880007003700b4
:10361000a041800080007800404080008080400011
:103620000000eb000080500040408800b041800066
:103630000000e00005003500b141800050408000ee
:10364000008040005040880007003700b0418000f3
:103650008000780050408000808040000000eb0037
:103660000080500050408800c04680000000e80004
:10367000c0468800c0468000a2002000110009005a
:103680000280d8008000fd000000e00002003a0047
:1036900060e82900e1f70700c146800040062000ed
:1036a000808f50001a003a0030408000c2468000ef
:1036b000110009000280d8000040880040408000ce
:1036c000c2468000110009000280d8001040880026
:1036d00050408000c2468000110009000280d800de
:1036e0002040880018ff070010c0b300c3f6070091
:1036f0001000200072f6070090e82900c7f70700c5
:10370000401f20006ef6070050002000dbfc070081
:103710000080fa00000006000000fa00208320006c
:10372000b1fe0700904180000000e000030035007a
:103730009041800060408800050037009041800083
:10374000800078000000eb0000805000604088009e
:10375000a04180000000e00003003500a04180008f
:103760007040880005003700a0418000800078008c
:103770000000eb000080500070408800b0418000e5
:103780000000e00003003500b04180008040880068
:1037900005003700b0418000800078000000eb0099
:1037a0000080500080408800614080000040800020
:1037b00000805000cf80de00d1f2070092c22500c9
:1037c000f3c0230057f3070090408800a140880011
:1037d000714080001040800000805000cf80de00eb
:1037e000c7f2070092c22500f3c023004df3070083
:1037f000b0408800c14088008140800020408000a7
:1038000000805000cf80de00bdf2070092c225008c
:10381000f3c0230043f30700d0408800e140880054
:103820000080fa00000006001800fa00889fbe0021
:1038300080832000e0fc0700c1418000f0ff2000f1
:10384000808f500016003e00c84180006140b900e2
:10385000abf20700200f9800310f98000800e0003d
:1038600007003d0002002000037824002e0890008d
:10387000be089000cef20700200f9800310f98008c
:103880002e089000be08900042722900f3b7230072
:1038900024f30700f0408800014188001800370039
:1038a000c84180006140b90095f20700000f980000
:1038b000110f98000800e00007003d000200200002
:1038c000037824000e0890009e089000b8f20700cc
:1038d000000f9800110f98000200200003602400e0
:1038e0000e0890009e089000b0f207004272290076
:1038f000f3b723000bf30700f04088000141880074
:10390000d1418000f0ff2000808f500016003e0063
:10391000d84180006140b90079f207006007980043
:10392000710798000800e00007003d000200200039
:10393000037824006e009000fe0090009cf20700c7
:1039400060079800710798006e009000fe009000dc
:1039500042722900f3b72300f2f2070010418800f9
:103960002141880018003700d84180006140b9002b
:1039700063f2070040079800510798000800e00034
:1039800007003d0002002000037824004e00900054
:10399000de00900086f2070040079800510798006b
:1039a00002002000036024004e009000de00900022
:1039b0007ef2070042722900f3b72300d9f2070014
:1039c0001041880021418800e1418000f0ff200083
:1039d000808f500016003e00e84180006140b90031
:1039e00047f2070020079800310798000800e00020
:1039f00007003d0002002000037824002e00900004
:103a0000be0090006af20700200798003107980076
:103a10002e009000be00900042722900f3b72300f0
:103a2000c0f207003041880041418800140037008f
:103a3000e84180006140b90031f20700008fbe000c
:103a40000800e00005003d0002002000037824008b
:103a50001e00be0056f20700008fbe0002002000cc
:103a6000036024001e00be0050f2070042722900cd
:103a7000f3b72300abf207003041880041418800d2
:103a800010418000214180000001be00a5f2070026
:103a90000004be0030418000414180000001be00b2
:103aa000a0f207000001be000800be0040f20700bf
:103ab0006ef307000001be00f0408000014180006d
:103ac00001f0a2009ef3070022ee220053262400fc
:103ad00094f2070050418800614188003041800025
:103ae000414180000001be008ef207000004be00cc
:103af000f0408000014180000001be0089f2070013
:103b0000a2702d0033c2230086f207000001be0020
:103b10000800be0026f2070054f307000001be00b3
:103b2000104180002141800085f3070022ee220031
:103b3000532624007bf207007041880081418800f1
:0c3b40004f04be000080fa0000000600e8
:020000040000fa
:0200000401f009
:04000000f6ff000007
:020000040000fa
:0200000401f009
:04000400ff7f00007a
:020000040000fa
:0200000401f009
:040008007fff000076
:020000040000fa
:0200000401f009
:04001400ffff0000ea
:020000040000fa
:10000800121f0000121f0000121f0000121f000024
:10001800121f0000121f0000121f0000121f000014
:10002800121f0000121f0000121f0000121f000004
:10003800121f0000121f00000a080000121f000013
:10004800121f0000121f0000121f0000121f0000e4
:10005800121f0000121f0000121f0000121f0000d4
:10006800121f0000121f0000121f0000121f0000c4
:10007800121f00001c0d0000121f0000121f0000bc
:10008800121f0000121f0000121f0000121f0000a4
:10009800121f0000121f0000121f0000121f000094
:1000a800121f0000121f0000121f0000121f000084
:1000b800121f0000121f0000121f0000121f000074
:1000c800121f0000121f0000121f0000121f000064
:1000d800121f0000121f0000121f0000121f000054
:1000e800121f0000121f0000121f0000121f000044
:0800f800121f0000121f00009e
:020000040000fa
:10010800121f0000121f0000121f0000121f000023
:10011800121f0000121f0000121f0000121f000013
:10012800121f0000121f0000121f0000121f000003
:10013800121f0000121f00000a080000121f000012
:10014800121f0000121f0000121f0000121f0000e3
:10015800121f0000121f0000121f0000121f0000d3
:10016800121f0000121f0000121f0000121f0000c3
:10017800121f00001c0d0000121f0000121f0000bb
:10018800121f0000121f0000121f0000121f0000a3
:10019800121f0000121f0000121f0000121f000093
:1001a800121f0000121f0000121f0000121f000083
:1001b800121f0000121f0000121f0000121f000073
:1001c800121f0000121f0000121f0000121f000063
:1001d800121f0000121f0000121f0000121f000053
:1001e800121f0000121f0000121f0000121f000043
:0801f800121f0000121f00009d
:020000040000fa
:103b4c00576500006c6300006f6d0000652000007d
:103b5c00746f000020460000554600004f00000026
:103b6c005761000069740000206600006f7200004d
:103b7c00206300006f6e00006e650000637400002f
:103b8c0000430000686f00006f73000065200000a8
:103b9c00636f00006e6e000065630000742100000e
:103bac000050000072650000737300002053000089
:103bbc0074610000727400002121000021000000db
:103bcc0050720000657300007320000055700000f7
:103bdc00210000005468000072750000737400002e
:103bec00203a0000002e00002e2e00002e2e000089
:103bfc002e000000786f00006e670000002e0000a1
:103c0c002e2e0000002e00002e2e00002e00000094
:103c1c002e2e0000000000004172000072610000b6
:103c2c00790000004154000000410000542b0000ba
:103c3c004241000055440000360000004154000091
:103c4c002b4e0000414d000045460000554600003b
:103c5c004f000000415400002b500000494e000062
:103c6c0031320000333400000000000050680000c6
:103c7c006f6e000065200000636f00006e6e000028
:103c8c0065630000746500006421000000500000b2
:103c9c0043200000636f00006e6e0000656300003f
:103cac007465000064210000004200006c75000087
:103cbc00657400006f6f00007468000020630000e2
:103ccc006f6e00006e650000637400006564000098
:103cdc0021000000766100006f2000002000000031
:103cec00717500006120000020000000646300007a
:103cfc0020200000006c00006f6900000000000034
:103d0c002e2e0000007800006f6e0000672000006f
:083d1c00726f00006900000055
:020000040000fa
:103d2400ce0800000a0000000200000000000000ad
:103d34000000000000000000000000009c080000db
:103d44001c00000000000000e8080000040000005f
:103d540002000000e803a00000000000e2080000e8
:103d640006000000000000004a0800002c000000cb
:103d7400020000000000000000000000000000003d
:103d8400000000000000000000000000000000002f
:103d9400000000000000000000000000000000001f
:103da400000000000000000000cdcc00cc3d00006d
:103db400760800002600000000000000b80800009b
:103dc40016000000020000000000000000000000d7
:103dd40000000000000000000000000000000000df
:103de4000000000000000000d80800000a000000e5
:103df400020000000000450072726f0072656400ea
:103e040000000000000800004a000000000000005c
:103e1400ec080000020000000000000000000000a8
:020000040000fa
:043e24000000fe009c
:00000001FF
