:020000040000fa
:080000000001040000000000f3
:020000040000fa
:10020000af8f200080ff2000000188000000000068
:10021000050007000c000700a60602000000000011
:100220000040da000000fe004440a900001f20004a
:100230000000e0000300320000002000a001880060
:100240004440a80000000600e0e321000100200077
:100250001600370062004000e080480091018800ed
:100260009001ba0062004000e080480091018800df
:100270009002ba0062004000e08048000002eb00fb
:100280006028e10005003a008301e900070033001f
:10029000038009000059eb00040037006128e100e9
:1002a000010032000082eb00050007009101880088
:1002b0001001ba000200e000e6ff3a00000005006d
:1002c000910188008002780062004000e0804800d0
:1002d0003559ba008301e900080032002559ba00f7
:1002e0008301e900050032000400e000f4ff320061
:1002f00015d9ba008301e900f1ff3a0000000600b9
:10030000889fbe008a9fbe00010578000100e000c2
:100310000400350008003c000000e000200032002e
:100320000500370060001000e080180002003b006c
:1003300001f02c001a0037000004be006011b80064
:100340006b0920000982cf00020039000882cf002b
:100350000441b000694252000e00320008003b0028
:1003600082817100610164008904d1000884d30096
:100370008b05e8000442e800f9ff3a000500370069
:100380000804440089844c008b05e9000442e9001c
:10039000fbff3a00870107000af0a70001f0a00068
:1003a0004f05be004f04be000000060003f0a2008f
:1003b000889fbe008a9fbe008c1f7800a3010700a3
:1003c000aa0133006450e1004f0032006420e100d4
:1003d0005200320003826c0007003b000905d00088
:1003e0000306d000820f54000c065d0002003900a5
:1003f00002003200890178000306780085825500ea
:1004000004003d000003fd008103fd008502ea00b9
:100410008b854200840f720002003b0060001000d8
:10042000e08018006011b8000005eb007a28e100b8
:100430000a00390006007800c75ddd00f707b2004a
:10044000878075002d003700828171000a017800d5
:10045000610560008180d1000080d3008502e90041
:10046000f9ff3b00060440008784480002003b007f
:1004700060041400e0841c000988a3000700320017
:100480008a81710082817100610164008904d10058
:100490000884d3008b05e800170037000978a30013
:1004a00013003a000b00e000130034008b05e90054
:1004b0000804440089844c000a4474000978a300ad
:1004c0000d003a000b00e000070034008b05e90046
:1004d0000804440089844c0001003a000b0020000d
:1004e0000978a300f7ff32000001eb00020037009b
:1004f000828171000a0178002e0107000cf0a7002c
:1005000001f0a000620137006420e10002003a001f
:10051000838f6c00620133000801be000200be0040
:100520005b013700889fbe008a9fbe008c1f780049
:10053000460107004d01330003866c006450e10062
:10054000240032006420e100270032006150e10005
:10055000220032006120e100210032008b85420040
:10056000eb07b1000134b800003ab80008044200bb
:1005700089844a00013ab8000030b8008880400001
:1005800009014a0004003300000040008180480057
:10059000020149008b05e900c909dd0083017000f3
:1005a0000100320013002000c814de004814dd00f2
:1005b0004709de001200b200c808de00088470009f
:1005c000fc00070001f0a1000cf0a70001f0a00062
:1005d0002f0137006120e100310132000801be0027
:1005e0000200be00f7ff37006150e100fcff3a0057
:1005f0002b013700889fbe008a9fbe008c1f7800a9
:10060000120107001901330003866c006450e100f9
:100610002e0032006420e100330032006150e1001e
:100620002f0032006120e100310032008585550045
:10063000eb07b00009002000080420000500370087
:100640000804440089844c000a003100060343007a
:1006500087834b000001530081815b00f8ff33006a
:100660000203be000800a0000804440089844c0076
:10067000f6ff3900c639dd00830173000100320046
:10068000130020008904d1000884d3000998a30036
:10069000050032000800a7000300a0008904d10073
:1006a0000884d3008b05e8008904d1000884d300b6
:1006b0000001eb000281d200be00070001f0a100a2
:1006c0000cf0a70001f0a000f10037006420e10069
:1006d000f30032000801be000200be00f7ff370041
:1006e0006120e100ee0032006000b800f3ff370047
:1006f0000000200001f82700f0ff37000001be00d5
:10070000ea0007000470a70003f0a10003f8a300ab
:1007100013003a006509b1001000320009003500ed
:100720006928e100020035000100280000000500f2
:1007300000004000818048008502e900fcff3a008b
:1007400000000600f88f4200050035008100d1004e
:100750000080d3008502e800fcff3a00000006009c
:100760008000eb0000000500811f78000100e00020
:1007700002003d0060001000e08018000300e0006f
:1007800002003d0060011100e0811900dc0007005b
:100790004f00e00002003b0060001000e080180005
:1007a00000000600839f68000100e00002003d0099
:1007b00060001000e08018000300e00002003d002f
:1007c00060011100e0811900d00007004f00e00037
:1007d00002003b0060001000e080180000000600ee
:1007e0000001be00b10007000470a70003f0a100e3
:1007f0006509b100160032000d0035006828e100df
:1008000006003500f0ff2f00f1ff27000300e00095
:1008100013003b000100280000000500000040001c
:10082000818048008502e900fcff3a00080037009b
:10083000f88f420002003c008000eb000000050041
:100840008100d1000080d3008502e800fcff3a005f
:100850000300e00002003b0060001000e080180090
:100860000000060014002000b8003700889fbe007a
:100870008a9fbe008c1f78000004be008b0007001a
:100880000478a30026003a006120e1002500320030
:1008900009f8a30025003a006420e100210032009d
:1008a000f507b1000508a300020032000000400077
:1008b000818048006044b80003102000020020003e
:1008c00000004000818048000805440089854c00f4
:1008d0000a0541008b8549000a0550008b855800a8
:1008e000030033000a00be00020474008384740015
:1008f0008301d1000281d300830f7100f0ff3a0021
:100900008904d1000884d300600149008201780085
:10091000c1adde00fb07b000260007005c00370019
:100920000960a0000800be00590037001202200034
:10093000c2478800f0ff2f00f1ff27005400370066
:10094000889fbe008a9fbe008c1f78003f00070072
:100950001002200002003b00c0478800430037001f
:100960008a0062006408e10002003a00c047880083
:100970004b0037006108e100fcff32000800be00b8
:10098000030478001bff070001f0a1008a000700a4
:1009900008f0a600040037000001be009104240006
:1009a000b0fd200081fe070009f0a70001f0a200c1
:1009b0003700370081002000618055000b003d00aa
:1009c0000b00200061fe2f000100e1001d0034003b
:1009d00082817100610164008904d1000884d30020
:1009e0000000e800faff3a00710020006100640096
:1009f000030070000200600009003200610444003e
:100a0000e0844c000988a500050032008b05e80051
:100a10006808e10002003a008904d1000884d3008c
:100a2000f20f20000258e10005003d00c75ddd0027
:100a3000f907b20089807500080078000000060000
:100a40000bf827008b007800000005000004be00b2
:100a5000160007000003be000405be000200be0031
:100a600012000700844f7500000006000200be005f
:100a70006450e100050036006420e1000200360009
:100a80000968a30001003a000800be000160a00050
:100a90004f0678004f05be004f04be000000060060
:100aa000f0ff2f00f1ff2700f9ff3700c70ade0033
:100ab000f107b200f50fb20008003200e1cf4200aa
:100ac000020032000170a00024000500810f7000b8
:100ad000010032000408050044000500810f700089
:100ae00002003a00140005008502e9000000400001
:100af00081c04800fcff3b000170a00024000500fd
:100b0000020007000400be00000006006022b800da
:100b1000060220000000d0008180d2000482d200b2
:100b20008582d2000000a0000202520083825a0097
:100b300003003b000202420083824a000000a10041
:100b40000603e900f3ff3a0000000600889fbe009c
:100b50008a9fbe00841f7800bcff07004f0078000a
:100b600011003300f0ff2f00838f6c0006003b0064
:100b7000040565000a00a7000800370009f0a60078
:100b80001000200008003700820f5400838f5c00a3
:100b9000030039001000200001003e00000020008a
:100ba00009f0a7000000ea004f05be004f04be0098
:100bb0000000e00000000600889fbe008a9fbe0083
:100bc0008c9fbe000004be00b8ff07000800be00f6
:100bd000890678006420e100080039000400320032
:100be0000160a00012022000c247880053003700b5
:100bf00091fc2300b0fd20004e0037000006eb0002
:100c000009f0a10003f82300020020000800be0044
:100c100014ff07000600340001f823000000200044
:100c20000801be0073fe07000004be002c00200077
:100c30000800be0093e82300320a230009ff0700e2
:100c4000120034000801be00d1fd2300703d2b00ce
:100c5000d7fd07000005be00b3f32300f27a26009b
:100c60000800be002ffe070003f82300020020004a
:100c7000cefd07000801be00cdfd07000a01be0041
:100c80005cfe07000004be000c06e8000800be0081
:100c900001f0a1000200200003982300f1fe0700ec
:100ca0000800be00160035000801be001dfe07004a
:100cb0000005be0032cd2c0043fb2300bcfd070025
:100cc000809fbe001269280003d52b000a00be00d9
:100cd00014fe0700620f210013ef2b00b4fd070084
:100ce0000a01be000ffe07004f01be0041fe0700d3
:100cf0000801be000bfe07000801be00acfd0700a6
:100d00000c00e0000b0032000c10a70001f0a20064
:100d1000b2fd200093fc23006260e1000400320079
:100d200022a9200063f023000c10a70063f8230021
:100d30009ffd07000df0a70001f0a2004f06be00c6
:100d40004f05be004f04be00000006000200fa007e
:100d50000000370001070700104688001046800099
:100d6000000f78001e007800e30f50002b003200c7
:100d70001e007800e30f500007003e001e007800c0
:100d8000e10f5000130032001e007800e10f500008
:100d90001c003e000d0037001e007800e50f5000db
:100da000350032001e007800e50f500023003900a6
:100db0001e007800e60f5000350032001e0078005b
:100dc000e70f500043003200e2ff37005b000700ee
:100dd000e0ff370010c0b3002401070060d42900f1
:100de0002a020700a0002000d100070000ccb300b9
:100df0001e01070060d52900240207009b0407009c
:100e0000d4ff370010c0b3001801070070d62900c6
:100e10001e02070075040700ceff370010c0b300a4
:100e20001201070070d7290018020700a10407006b
:100e3000ca0607002e020700c6ff37007609070022
:100e400055040700e0468800e04680000000e80006
:100e5000e0468800e0468000f50f500002003600b2
:100e600060012000e0468800e04680004e04070054
:100e700057040700b7ff370010c0b300fb0007009e
:100e800060d8290001020700b0040700b1ff370055
:100e900010c0b300f500070000d92900fb010700ce
:100ea0003d0407001202070000ccb300ef0007006a
:100eb000a60607000e020700f04680000000e000d2
:100ec000a4ff3a00b50407003d040700f04688007f
:100ed000a0ff370010c0b300e400070090d929003c
:100ee000ea0107002c040700e0468800e046800085
:100ef0000000e900e0468800e04680000000e000d5
:100f00000a003a000000eb00e046880010c0b30081
:100f1000d600070000da2900dc010700803e20002f
:100f2000830007003000200090060700e0468000a4
:100f30001d0407002604070086ff37000000fa00a2
:100f4000a0000700a000200079000700ac00070007
:100f5000a00020007600070050da2900cb0107002e
:100f600000ccb300c100070014020700800c200071
:100f70006f00070010db2900c4010700401f20009c
:100f80006b00070050db2900c001070028030700a1
:100f9000800c20006600070010db2900bb01070061
:100fa0006b070700800c200061000700a0db290010
:100fb000b6010700a7060700800c20005c000700b0
:100fc000a0db2900b101070038080700800c2000d1
:100fd0005700070010db2900ac01070005000700df
:100fe0001a00070010002000600607000080fa00c9
:100ff000000006000000fa0071092000914078000e
:1010000080cfb30000c060006040b30097e0b7003d
:101010000111200091407800f0ccb30000c06000c6
:101020000044a00010e1b7000000eb003008880089
:1010300000e224006008880084c0a9008cc0a800d9
:1010400011e1a9000080fa00000006000000fa008b
:101050002111200091407800f0ccb30000c0600066
:101060000044a00012e1b7000000eb005008880027
:1010700013e1a8000080fa00000006003600f80026
:10108000809fbe00829fbe00849fbe00869fbe00e0
:101090003400f80000c0b300a00188000000fa008e
:1010a00084c0a9000000eb00300888000000eb00bd
:1010b00050088800c6030700f0468000e10f50008a
:1010c00013003a00db02a800d04680000000e800d0
:1010d000d0468800d146800020032000808f500039
:1010e0000b003a000000eb00d04688000000eb0047
:1010f000f0468800dbc2bf00614060000004e000f1
:1011000002003200db02a90001003700db02a80068
:101110000080fa003400f9004f03be004f02be0009
:101120004f01be004f00be003600f900004006002f
:101130000200fa00000f780005e1a8000600370061
:101140000000eb000008880001088000f0e72300a1
:10115000808f5000fcff36001e0fe9000080eb007e
:101160009e0f1000f6ff3a0005e1a9000000eb0019
:10117000000888000080fa00000006000200fa0063
:10118000000f780005e1a800050037000000eb0023
:101190000008880000088000ef0f5000fdff3600b7
:1011a0001e0fe9000080eb009e0f1000f7ff3a00d1
:1011b00005e1a9000000eb00000888000080fa00ab
:1011c000000006000000fa00ca42a900ca62a90095
:1011d000ca82a900caa2a900c642a900c662a90083
:1011e000c682a900c6a2a900ca22a900c622a900d7
:1011f000ca02a900c602a9000080fa000000060089
:101200000000fa0020c0b300180007001000200002
:10121000c7ff070080c2b3001400070010002000c1
:10122000c3ff070080c0b3001000070010002000bb
:10123000bfff070060c0b3000c00070010002000d3
:10124000bbff0700f0c0b30008000700100020003b
:10125000b7ff070010c0b3000400070050002000d3
:10126000b3ff07000080fa00000006000200fa0049
:10127000004f7800ca02a9009e80fb0000082000f1
:10128000008060004780de006140600061406000d7
:10129000004040000040400000404000004040004e
:1012a00000414000a12c200091407800f0cdb30017
:1012b00000c0600002407000cae2b7009e80fb00e0
:1012c00000042000008060004680de006140600075
:1012d000614060000040400000404000004040008d
:1012e00000414000a12c200091407800f0ceb300d6
:1012f00000c0600002407000cae2b7009e80fb00a0
:1013000000022000008060004580de006140600037
:10131000614060000040400000404000004140004b
:10132000a12c20009140780070cfb30000c0600075
:1013300002407000cae2b7001e80fb00700060002f
:101340004480de0061406000614060000040400079
:1013500000414000a12c200091407800b0cfb300a4
:1013600000c0600002407000cae2b700ca22a800b4
:101370004001200081ff0700ca22a9001e80fb0057
:10138000680060004380de006140600061406000f2
:10139000004040000040400000404000004040004d
:1013a00000414000a12c200091407800f0cdb30016
:1013b00000c0600002407000cae2b7001e80fb005f
:1013c000640060004280de006140600061406000b7
:1013d000004040000040400000404000004140000c
:1013e000a12c200091407800f0ceb30000c0600036
:1013f00002407000cae2b7001e80fb00620060007d
:101400000080d10061406000614060000040400009
:101410000040400000414000a12c20009140780095
:1014200070cfb30000c0600002407000cae2b70095
:101430009e40780061c060006140600061406000d3
:10144000614060000040400000414000a12c2000ad
:1014500091407800b0cfb30000c06000024070003f
:10146000cae2b700ca22a8004001200043ff0700db
:10147000ca22a9000080fa00000006000200fa005b
:10148000004f7800ca02a8009e80fb0000082000e0
:10149000008060004780de006140600061406000c5
:1014a000004040000040400000404000004040003c
:1014b00000414000a12c200091407800f0cdb30005
:1014c00000c0600002407000cae2b7009e80fb00ce
:1014d00000042000008060004680de006140600063
:1014e000614060000040400000404000004040007b
:1014f00000414000a12c200091407800f0ceb300c4
:1015000000c0600002407000cae2b7009e80fb008d
:1015100000022000008060004580de006140600025
:101520006140600000404000004040000041400039
:10153000a12c20009140780070cfb30000c0600063
:1015400002407000cae2b7001e80fb00700060001d
:101550004480de0061406000614060000040400067
:1015600000414000a12c200091407800b0cfb30092
:1015700000c0600002407000cae2b700ca22a800a2
:1015800040012000fdfe0700ca22a9001e80fb00ca
:10159000680060004380de006140600061406000e0
:1015a000004040000040400000404000004040003b
:1015b00000414000a12c200091407800f0cdb30004
:1015c00000c0600002407000cae2b7001e80fb004d
:1015d000640060004280de006140600061406000a5
:1015e00000404000004040000040400000414000fa
:1015f000a12c200091407800f0ceb30000c0600024
:1016000002407000cae2b7001e80fb00620060006a
:101610000080d100614060006140600000404000f7
:101620000040400000414000a12c20009140780083
:1016300070cfb30000c0600002407000cae2b70083
:101640009e40780061c060006140600061406000c1
:10165000614060000040400000414000a12c20009b
:1016600091407800b0cfb30000c06000024070002d
:10167000cae2b700ca22a80040012000bffe07004e
:10168000ca22a9000080fa00000006000400fa0047
:1016900010079800a0002000a5fe07000000eb0046
:1016a000000f7800090037001e00780080007800e5
:1016b0001e00900000804000104078001e0fe800df
:1016c0006eff07001000200099fe07001e00780042
:1016d000800078001e0090000080400010407800dc
:1016e0000004e000f0ff3a000080fa00000006006d
:1016f0000a00fa00400798000e80e800e1db2900ac
:1017000005000900315878006000b1006100b100a7
:101710000000eb00000f7800110037009e017800f8
:101720004e009000a2002000110009000280d800a5
:101730008000fd0002c3b300824040000e80e8003c
:1017400000804100014878001e0fe8004e00900024
:10175000a2002000110009000280d8004007980074
:101760004e0090000000e000ecff3a000800370057
:101770001e0fe9009e0078000e80e8000080400007
:10178000104078003dff07001000200068fe0700b1
:101790001e00e000f6ff3c000080fa00000006009a
:1017a0000000fa000000eb00e01688000000eb00eb
:1017b000c01688000080fa00000006000400fa004d
:1017c000881f7800007122008047880088478000c9
:1017d0006140b900cafa0700008fbe000800e000af
:1017e00005003d0002002000037824001e00be001a
:1017f000effa0700008fbe0002002000833c2400a7
:101800001e00be0047fb070002002000a347240083
:1018100078fb0700b9fb07009047880090478000dd
:1018200070478800deff0700070007002900070057
:10183000c1e1a800daa2a8001fe1a8004f047800c7
:101840000080fa00000006000000fa0080478000d7
:101850000000e900200e8800f0702000400e880093
:1018600000f02f00a00e8800c1a1a900c0c1bf00d8
:101870006f406000c0e1b700011c2000914078007b
:1018800030cfb30000c060000024a000c0e1b7006a
:10189000011c200091407800c0cfb30000c0600060
:1018a000c0e1b7009047800000004000b00e880003
:1018b0009047800000004000c00e880090478000e4
:1018c00000004000d00e8800c1e1a9000080fa00ad
:1018d000000006000000fa00e109200091407800b5
:1018e00000c7b30000c070009ee0b700e111200007
:1018f00091407800f0ccb30000c060001ee1b7005a
:101900000000eb00a008880070478000d008880025
:1019100086a0a9008ea0a8001fe1a9000080fa00ff
:10192000000006000600fa00000f7800110798007a
:1019300022079800b14780001e0078000088b90097
:101940008000780090478000808040001e0090005a
:10195000008140002e0090007400b900800041001a
:10196000b04780000080400000004000b00e8800ba
:101970000080fa00000006000600fa00000f780060
:101980001107980022079800b14780001e007800d8
:101990000088b90080007800904780008080400077
:1019a0001e009000008140002e0090007400b900dd
:1019b0000000410000004000c00e88000080fa00d6
:1019c000000006000600fa00000f780011079800da
:1019d00022079800b14780001e0078000088b900f7
:1019e0008000780090478000808040001e009000ba
:1019f00080814000b04780006c00b9000001780091
:101a00002e0090007400b9000000410000804100e9
:101a100000004000d00e88000080fa0000000600a0
:101a20000600fa00000f78001107980022079800be
:101a3000b14780001e0078000088b900800078005f
:101a400090478000808040001e0090008081400010
:101a5000b04780006700b900000178002e009000b8
:101a60007400b90000004100008041007047880008
:101a70000080fa0000000600809fbe003400f800dd
:101a800000c0b300a00188000000fa000000eb00d5
:101a9000a008880081478000704780008080500047
:101aa000d0088000808f500004003a00704780000a
:101ab000d0088800daa2a80005003700804780001f
:101ac0007147800001005000d0088800daa2a90008
:101ad00086a0a9000080fa003400f9004f00be0083
:101ae000004006000200fa00000f780040dc2900e8
:101af0006d00070070dc29006b00070000dd290085
:101b000069000700c0dd2900670007000080fa00b7
:101b1000000006000400fa001007980010c0b3008f
:101b2000d2fd07000000eb00000f7800090037002d
:101b30001e007800800078001e00900000804000a9
:101b4000104078001e0fe8004cfe07001000200037
:101b500077fd0700100020009e0f1000f4ff3400f6
:101b6000090037001e007800800078001e009000f9
:101b700000804000104078001e0fe8003ffe070084
:101b8000100020006afd0700800020009e0f10005a
:101b9000f4ff340000ccb300b4fd070010002000b7
:101ba00063fd0700090037001e0078008000780000
:101bb0001e00900000804000104078001e0fe800da
:101bc0002efe07001000200059fd07001001200024
:101bd0009e0f1000f4ff3400090037001e0078004b
:101be000800078001e0090000080400010407800c7
:101bf0001e0fe80021fe0700100020004cfd07002a
:101c0000900120009e0f1000f4ff340010c0b300bc
:101c100096fd07001000200045fd07000080fa0037
:101c2000000006000000fa000080fa000000060034
:101c30000000fa00004028006010880000402000ea
:101c4000701088008109200091407800f0c8b3002e
:101c500000c0600001c3b3000140700098e0b7000d
:101c60008540a9008d40a9008520a9008d20a900ec
:101c700080002000a01088000080fa00000006000c
:101c80000200fa00004f78001e80fb0080108800e0
:101c90000fc2bf00614060000004e000fcff3200a2
:101ca0000080fa00000006000400fa001007980007
:101cb0000000eb00000f7800070037001e007800de
:101cc000800078001e0090000080400010407800e6
:101cd0001e0fe800eaff07001e0078008000780071
:101ce0001e00900000804000104078000004e000da
:101cf000f2ff3a000080fa00000006000c00fa0033
:101d0000500798000000eb00000f78005e00900084
:101d10000000e00016003d00de0090000080eb00b7
:101d20000088b90050079800110037009e01780024
:101d30005e009000a2002000110009000200d800ff
:101d40008000fd000043b000804078000e80e80075
:101d500000804100014878001e0fe8005e009000fe
:101d6000a2002000110009000200d80050079800ce
:101d70005e009000a2002000110009000200d800bf
:101d80008000fd000000e0000a0035005e009000c9
:101d90000000e000e5ff3c00060037009e007800f0
:101da0000e80e8008080400000c3b30080487800c7
:101db0001e0fe800500020009e0f1000f7ff3400b7
:101dc000060037001e0fe9009e0078000e80e80034
:101dd0000080400010407800a9ff07001e00e000ce
:101de000f8ff3c000080fa00000006000e00fa0038
:101df000881f780050079800610798000000eb00ea
:101e0000000f78005e009000ee009000e00f5000a0
:101e1000e08f58002c003d00de0090000080eb00b9
:101e2000000ab800de0090000080eb000088b900d6
:101e30000501780000014100ee0090000080eb00f9
:101e40000088b90000014100820278005407980020
:101e5000650798001c003700300020009e0f10001e
:101e600006003a009e0078000e80e8008080400066
:101e7000e0c2b300804878001e0fe8001e0478001e
:101e80005e009000ee009000a20020000300200001
:101e900035fa07000043b000804078000e80e8006b
:101ea00000004400014878001e0fe8005e0090002a
:101eb000ee009000a20020000300200039fa070085
:101ec00050079800610798005e009000ee009000b7
:101ed000a20020000300200023fa0700e00f5000ba
:101ee000e08f58000c0035005e009000ee0090007e
:101ef000e00f5000e08f5800d7ff3c00060037008d
:101f00009e0078000e80e8008080400000c3b3008f
:101f1000804878001e0fe800600020009e0f10002f
:101f2000f7ff34000e80e800b040900000c3b3001b
:101f300080cf50000a003a008e80e800e0c2b30073
:101f4000b0409800060037001e0fe9009e007800a0
:101f50000e80e800008040001040780048ff070035
:101f60001e00e000f8ff3c004f0478000080fa00fb
:101f7000000006000000fa000ec2bf0061406000d1
:101f80000004e000fcff3200901080000080fb00a5
:101f90000080fa00000006000000fa0060428000a5
:101fa0000080fa00000006000200fa00000f78002e
:101fb0001e007800604288000080fa0000000600e1
:101fc0000000fa00304580000080fa0000000600a2
:101fd0000000fa006022b8006011b8006000b8008c
:101fe0001e0107000080fa00000006000000fa0051
:101ff000e0ff07009ce8b700c1892000914078000d
:10200000e0c6b30080cf500009003a003000200045
:102010005602070010c0b30094fc070080de2900c0
:102020009afd0700401f200041fc07000d0037000b
:10203000c18920009140780030c6b30080cf5000a5
:1020400008003a00300020004802070010c0b3002a
:1020500086fc070090df29008cfd0700401f200050
:1020600033fc07000080fa00000006000000fa00c0
:10207000c0ff07009ce8b700c189200091407800ac
:1020800080c6b30080cf500008003a002000200036
:102090003602070010c0b30074fc070070e029008e
:1020a0007afd0700401f200021fc07000080fa0095
:1020b000000006000000fa0000ccb3006bfc070033
:1020c000200320001afc0700c0e129006ffd070073
:1020d000a8ff07009ce8b7002003200014fc0700bd
:1020e00020e2290069fd0700401f200010fc0700c6
:1020f000c18920009140780060c6b30080cf5000b5
:102100000c003a00c6010700d9010700b101070021
:10211000400020001502070010c0b30053fc070068
:1021200080e2290059fd0700800c200000fc070018
:102130000400370000ccb3004cfc0700d0e22900bb
:1021400052fd07000080fa00000006000000fa00bf
:10215000a001070087ff07009ce8b7008520a900c1
:10216000c189200091407800f0c6b30080cf5000b4
:1021700008003a0010002000f04388006042800010
:102180000000e8006042880011e1a8006000200023
:10219000f60107000080fa00000006000000fa00c7
:1021a0008c01070073ff07009ce8b7008520a90099
:1021b000c189200091407800f0c6b30080cf500064
:1021c0000f003a0010002000f043880060428000b9
:1021d0000000e8006042880060428000f60f500076
:1021e000760036006142800040062000808f50005b
:1021f0007200360040062000604288006f00370001
:10220000c18920009140780000c7b30080cf500002
:1022100010003a0010002000004488006042800056
:102220000000e9006042880060428000f60f500024
:1022300062003e0011e1a9000000eb00504288005e
:10224000600120006042880070002000c701070084
:102250005a003700c18920009140780070c7b30050
:1022600080cf50000a003a0010002000504488003f
:10227000d0438000e14380000200200003f82300e7
:102280004bf80700d0438800e14388004b0037003b
:10229000c18920009140780030c7b30080cf500042
:1022a0000a003a001000200060448800d0438000fb
:1022b000e14380000200200003f823003bf8070000
:1022c000d0438800e14388003c003700c1892000ea
:1022d0009140780010c6b30080cf500006003a004d
:1022e0001000200010448800b04280000000e80088
:1022f000b042880031003700c18920009140780049
:1023000040c6b30080cf500006003a001000200005
:1023100020448800d04280000000e800d0428800bd
:1023200026003700c189200091407800b0c6b30074
:1023300080cf500006003a00100020004044880082
:10234000d04280000000e900d04288001b00370026
:10235000c189200091407800e0c6b30080cf5000d2
:1023600006003a001000200030448800b04280008f
:102370000000e900b042880010003700c189200049
:102380009140780060c6b30080cf50000b003a0047
:1023900050428000e10f500006003a000000eb00c0
:1023a0005042880011e1a900700020006f01070071
:1023b000020037001000200050428800c189200030
:1023c0009140780060c6b30080cf50001800320002
:1023d000f0438000e10f50001500320000448000ff
:1023e000e10f50001200320030448000e10f500035
:1023f0000f00320040448000e10f50000c0032001a
:1024000010448000e10f5000090032002044800099
:10241000e10f50000600320050448000e10f5000f0
:102420000300320060448000e10f500003003a00d6
:102430001000200030458800020037000000eb004b
:1024400030458800d0438000e1438000e4f8070075
:10245000380107000080fa00000006000c00fa00b6
:10246000008fbe00220798003307980044079800a9
:102470005507980050428000e10f500007003a00d5
:10248000a60307004e029000de0290002e0190008d
:10249000be0190001e00be002f000700b044800067
:1024a000c14480007244800083448000c0f707006c
:1024b000cbf807007042880090448000a14480005f
:1024c0007244800083448000b8f70700c4f8070016
:1024d000804288007044800081448000b2448000c3
:1024e000c3448000b1f70700bdf8070090428800a0
:1024f00090448000a144800001f0a200724480005a
:1025000083448000a9f70700b5f80700a0428800bf
:10251000b2428000714280006042800001fd0700ed
:1025200081428000604280000001eb0012fd070044
:10253000d2428000914280006042800021fd07006d
:10254000a1428000604280000001eb0034fd0700e2
:102550000080fa00000006001800fa0060079800ea
:1025600071079800020f9800130f9800240f98002d
:10257000350f98001a01070040079800510798008e
:10258000230107002007980031079800d0c0b3004e
:10259000bbfd0700a0c0b300b9fd07006000b80094
:1025a00090448800a1448800d2438000e343800027
:1025b0006000b800809fbe006033b8000202be0019
:1025c0002e019000be0190000e0890009e08900021
:1025d00008000700e4875700b0448800c144880021
:1025e0006000b80070448800814488000080fa00d0
:1025f000000006001000fa00008fbe0022079800bd
:10260000330798004407980055079800660798001c
:10261000770798002e019000be0190001e00be00ba
:1026200062f70700504388006143880090438000b0
:10263000a143800052438000634380005cf70700a1
:1026400090438800a143880050438000614380008c
:102650004e019000de019000b2f70700f0428800c2
:102660000143880090438000a14380006e019000e8
:10267000fe019000abf70700a2702d0033c22300cb
:10268000a8f707001043880021438800d044800049
:10269000cf80de001af707003eb99700ceb9970049
:1026a000a0f707003043880041438800f0428000d3
:1026b0000143800012438000234380003cf7070061
:1026c000324380004343800039f70700f04488001c
:1026d00001458800f0448000014580000080fa0038
:1026e000000006001000fa00008fbe0022079800cc
:1026f000330798004407980055079800660798002c
:10270000770798002e019000be0190001e00be00c9
:1027100026f707007043880081438800b04380009b
:10272000c1438000724380008343800020f707008c
:10273000b0438800c143880070438000814380001b
:102740004e019000de01900076f70700f04288000d
:1027500001438800b0438000c14380006e019000b7
:10276000fe0190006ff70700a2702d0033c2230016
:102770006cf707001043880021438800d044800094
:10278000cf80de00def607003eb99700ceb9970095
:1027900064f707003043880041438800f04280001e
:1027a00001438000124380002343800000f70700ac
:1027b0003243800043438000fdf607001045880047
:1027c0002145880010458000214580000080fa00e6
:1027d000000006000000fa000000eb00f043880053
:1027e0000000eb00004488000000eb00104488006b
:1027f0000000eb00304488000000eb00204488001b
:102800000000eb00404488000000eb0050448800ca
:102810000000eb00604488000080fa000000060021
:102820000000fa006000b80070448800814488000d
:102830006000b80090448800a14488006000b8009f
:10284000b0448800c14488000000eb00d0448800f8
:102850006000b80090438800a14388006000b80081
:10286000b0438800c14388000080fa0000000600e1
:102870000000fa000000eb00704288000000eb004e
:10288000804288000000eb00904288000000eb00ce
:10289000a04288000000eb00b04288000000eb007e
:1028a000c04288000000eb00d04288000000eb002e
:1028b000e04288000080fa00000006000200fa00f2
:1028c000000f78001e007800904688000080fa0013
:1028d000000006000000fa00904680000080fa0028
:1028e000000006000200fa00000f78001e007800c9
:1028f000a04688000080fa00000006000000fa00f0
:10290000a04680000080fa00000006000200fa00e5
:10291000000f78001e007800b04688000080fa00a2
:10292000000006000000fa00b04680000080fa00b7
:10293000000006000200fa00000f78001e00780078
:10294000c04688000080fa00000006000000fa007f
:10295000c04680000080fa00000006000000fa0077
:10296000204680000080fa00000006000200fa0005
:10297000000f78001e007800204688000080fa00d2
:10298000000006000200fa00000f78001e00780028
:102990006101b80000e823000012b8006010b9001f
:1029a000050378000003430000e823000098b90005
:1029b0000003430086027800040078000080fa00db
:1029c000000006000400fa00008fbe001e00be00da
:1029d00030468800414688000080fa00000006006a
:1029e0000000fa0030468000414680000080fa0076
:1029f000000006000400fa00008fbe001e00be00aa
:102a000050468800614688000080fa0000000600f9
:102a10000000fa0050468000614680000080fa0005
:102a2000000006000400fa00008fbe001e00be0079
:102a300070468800814688000080fa000000060089
:102a40000000fa0070468000814680000080fa0095
:102a5000000006000200fa000040eb00004f780082
:102a6000b2c0b30011c3b30030c5b300c700070044
:102a70001e4f400082c0b300d1c2b30030c5b300c6
:102a8000c20007001e4f4000a2c0b300c1c2b30085
:102a900030c5b300bd0007001e4f40001e80fb0084
:102aa0000080fa00000006000a00fa0040079800c3
:102ab0000040eb00004f78000e01e80063c0b30057
:102ac00021c3b30030c5b300210107001e4f4000f1
:102ad0000e00e800104090000080fb000000400065
:102ae00000004000000040000000400000004000e6
:102af000000040000000400000004000800078001e
:102b00000e00e800104078000080fb00008070009c
:102b100080007800f0ff2100808060004e0090006f
:102b2000010878004e0090000081e8000e00e800e7
:102b3000304090000080fb0000004000000040009a
:102b40000000400000004000000040000000400085
:102b50000000400000004000800078000e00e80007
:102b6000204090000080fb00008070008000780012
:102b7000f0ff210000806000000978004e00900006
:102b8000640140000e00e800504090000080fb000f
:102b90000000400000004000000040000000400035
:102ba0000000400000004000000040000000400025
:102bb000800078000e00e800404090000080fb009c
:102bc0000080700080007800f0ff2100008060002d
:102bd000000978001e80fb000080fa00000006005b
:102be0000000fa000602a80006c2bf0061406000b3
:102bf0000004e000fcff3a000080fa00000006003c
:102c00000000fa000622a80006c2bf006240600071
:102c10000004e000fcff3a000080fa00000006001b
:102c20000000fa000642a80006c2bf00644060002f
:102c30000004e000fcff3a000080fa0000000600fb
:102c40000000fa0006a2a9000682a80006c2bf0082
:102c5000704060000004e000fcff3a000080fa00d1
:102c6000000006000000fa0006a2a8000682a800e4
:102c700006c2bf00704060000004e000fcff3a00a4
:102c800006a2a9000080fa00000006000200fa0077
:102c900009c2bf008000eb00010f78000004e000d3
:102ca0000200350010002000000f78001e007800a0
:102cb0000080fa00000006000200fa00004f7800d1
:102cc0001e40780002e2b70008c2bf006140600009
:102cd0000004e000fcff3a000080fa00000006005b
:102ce0000400fa00004f78001e40780002e2b700ae
:102cf00009c2bf000044b2000004e000fcff3a003b
:102d000009c2bf008000eb00110798000004e0003a
:102d10000200350010002000100798001e009000ef
:102d20000080fa00000006000000fa000662a80019
:102d300008c2bf00624060000004e000fcff3200f7
:102d400000c2bf000080fb000080fa000000060007
:102d50000000fa0000202800301088001009200030
:102d6000201088000080fa00000006000000fa0031
:102d700085c0bf000044b2000004e000fcff320048
:102d800085c0a9000080fa00000006000800fa00d3
:102d90002047980031479800424798000040eb00d8
:102da000004f78008eff07002e409000004040004a
:102db000cbff07008040eb00714798000004e00063
:102dc00002003a0010c0b300704798001e4078001f
:102dd000fe40900000c04000004f78003e40900050
:102de000bfff07008040eb00614798000004e0004f
:102df00002003a0010c0b300604798001e407800ff
:102e0000ee40900000c04000004f78004e4090001f
:102e1000b3ff07008040eb00514798000004e0003a
:102e200002003a0010c0b300504798001e407800de
:102e3000de40900000c04000004f780078ff07009f
:102e40001e80fb000080fa00000006000c00fa0063
:102e50002047980031479800220798000040eb0077
:102e6000004f78005eff07002e40900000404000b9
:102e70009bff07008040eb00214f98000004e0001a
:102e800002003a0010c0b300204f98001e407800a6
:102e9000ae48900000c04000004f78003e409000d7
:102ea0008fff07008040eb00114f98000004e00006
:102eb00002003a0010c0b300104f98001e40780086
:102ec0009e48900000c04000004f78004cff070073
:102ed0002e4090000080fb00000040000004a00095
:102ee0007fff07008040eb00014f98000004e000e6
:102ef00002003a0010c0b300004f98001e40780056
:102f00008e48900000c04000004f78001e04e00092
:102f10000400320042ff07001e80fb0030079800cb
:102f20000800370080ff0700804078002e009000e6
:102f3000014878004bff070039ff07009e80fb0027
:102f4000310798003e0090000080fa000000060063
:102f50000e00fa0020479800314798002207980099
:102f6000634798000040eb00004f78001cff07000b
:102f70002e4090000040400059ff07008040eb00c9
:102f8000414f98000004e00002003a0010c0b30076
:102f9000404f98001e407800ce48900000c040008e
:102fa000004f78003e4090004dff07008040eb004e
:102fb000314f98000004e00002003a0010c0b30056
:102fc000304f98001e407800be48900000c040007e
:102fd000004f78000aff07002e4090000080fb00a1
:102fe000000040000004a0003dff07008040eb000f
:102ff000214f98000004e00002003a0010c0b30026
:10300000204f98001e407800ae48900000c040005d
:10301000004f78001e04e0000c00320000ff0700a3
:103020001e80fb00400798001d0037003eff070090
:10303000804078002e009000014878002e0090001b
:103040000000e80020079800fdfe07008040eb002c
:10305000714798006e409000e14f5000020036002a
:1030600010c0b300704798006e4090000040e90027
:1030700060479800fe4090000104e000ebff3a003a
:1030800029ff0700804078002e009000014878005a
:10309000f4fe0700e2fe07001e80fb0040079800d8
:1030a0004e0090000080fa00000006000200fa00c6
:1030b0000040eb00004f7800f2c1b30001c2b30042
:1030c00090c6b30031ff07001e4f40001e80fb007a
:1030d0000080fa00000006000600fa0020079800b1
:1030e0000040eb00004f78000e01e80081c2b30001
:1030f00090c6b30055ff07001e4f40000e81e80048
:1031000091c2b30090c6b30050ff07001e4f4000ad
:103110002e4090000080fb000000400000004000b6
:10312000000040000000400000004000000040009f
:103130000000400000004000800078001e40900029
:103140000080fb0000807000800078002e0090005e
:10315000010878000e01e800a1c2b30090c6b300d8
:103160003aff07001e4f40000e81e800b1c2b300d5
:1031700090c6b30035ff07001e4f40002e009000a0
:103180000081e8002e4090000080fb00000040001d
:10319000000040000000400000004000000040002f
:1031a0000000400000004000000040008000780067
:1031b0001e4090000080fb00008070000009780035
:1031c0000e01e800c1c2b30090c6b3001fff0700a4
:1031d0001e4f40000e81e800d1c2b30090c6b3007c
:1031e0001aff07001e4f40002e00900064014000af
:1031f0002e4090000080fb000000400000004000d6
:1032000000004000000040000000400000004000be
:103210000000400000004000800078001e40900048
:103220000080fb0000807000000978001e80fb0019
:103230000080fa00000006000000fa00889fbe002f
:1032400033010700d6000700b0408000c140800075
:10325000a2702d0033c22300b2f407000002be00aa
:1032600050418000614180000001be000400be00aa
:103270004ff4070082142e00a3f72300a9f40700df
:103280000004be00504180006141800002702d00aa
:1032900033ca2300a3f407000001be000800be00eb
:1032a00043f40700f041880001428800904080000c
:1032b000a1408000a2702d0033c2230099f40700c2
:1032c0000002be0070418000814180000001be000c
:1032d0000400be0036f4070082142e00a3f723007a
:1032e00090f407000004be0070418000814180001e
:1032f00002702d0033ca23008af407000001be00cb
:103300000800be002af4070010428800214288000d
:103310004f04be000080fa00000006000000fa0022
:10332000889fbe00fa0007009d000700b0408000a3
:10333000c1408000a2702d0033c2230079f4070041
:103340000002be00f0418000014280000001be008a
:103350000400be0016f4070082142e00a3f7230019
:1033600070f407000004be005041800061418000fd
:1033700002702d0033ca23006af407000001be006a
:103380000800be000af40700f041880001428800ee
:1033900090408000a1408000a2702d0033c2230025
:1033a00060f407000002be0010428000214280004d
:1033b0000001be000400be00fdf3070082142e00d1
:1033c000a3f7230057f407000004be0070418000fb
:1033d0008141800002702d0033ca230051f40700a0
:1033e0000001be000800be00f1f307001042880093
:1033f00021428800f04180000142800071fd0700f9
:1034000010428000214280007afd07004f04be0078
:103410000080fa00000006000000fa00214780004a
:1034200030062000808f50005b003e00208320008b
:1034300029ff0700904180000000e00005003500f2
:103440009141800030408000008040003040880082
:1034500007003700904180008000780030408000f5
:10346000808040000000eb00008050003040880069
:10347000a04180000000e00005003500a14180006f
:103480004040800000804000404088000700370036
:10349000a041800080007800404080008080400093
:1034a0000000eb000080500040408800b0418000e8
:1034b0000000e00005003500b14180005040800070
:1034c000008040005040880007003700b041800075
:1034d0008000780050408000808040000000eb00b9
:1034e0000080500050408800204780000000e80025
:1034f0002047880020478000a2002000110009001a
:103500000280d8008000fd000000e00002003a00c8
:1035100020e329005df807002147800040062000d5
:10352000808f50001c003a0030408000224780000d
:10353000110009000280d80000408800404080004f
:1035400022478000110009000280d8001040880046
:103550005040800022478000110009000280d800fe
:10356000204088000000eb002047880032ff070061
:1035700010c0b3003df7070010002000ecf6070074
:1035800050e3290041f80700401f2000e8f607003b
:1035900050002000f5fc07000080fa000000060043
:1035a0000000fa0020832000cbfe0700904180003d
:1035b0000000e0000300350090418000604088007a
:1035c0000500370090418000800078000000eb008b
:1035d0000080500060408800a04180000000e000b2
:1035e00003003500a04180007040880005003700ce
:1035f000a0418000800078000000eb0000805000b7
:1036000070408800b04180000000e00003003500f9
:10361000b04180008040880005003700b041800044
:10362000800078000000eb0000805000804088009f
:10363000614080000040800000805000cf80de00ac
:103640002ff3070002002000a3472400b5f3070072
:1036500092c22500f3c02300b2f307009040880017
:10366000a140880071408000104080000080500020
:10367000cf80de0022f3070002002000a3472400d1
:10368000a8f3070092c22500f3c02300a5f30700aa
:10369000b0408800c1408800814080002040800008
:1036a00000805000cf80de0015f3070002002000ec
:1036b000a34724009bf3070092c22500f3c0230018
:1036c00098f30700d0408800e140880090408000d7
:1036d000a14080006011b80062f407000000e00023
:1036e0000100350002003700d0c2b30064f90700c2
:1036f00090408000a140800039f40700bbf907002a
:10370000b0c3b3005ef907000080fa0000000600b5
:103710001800fa00889fbe0080832000e2fc0700aa
:10372000c1418000f0ff2000808f500016003e0055
:10373000c84180006140b900f1f20700200f9800f5
:10374000310f98000800e00007003d000200200053
:10375000037824002e089000be08900014f30700a0
:10376000200f9800310f98002e089000be0890009e
:1037700042722900f3b723006af30700f040880083
:103780000141880018003700c84180006140b9003d
:10379000dbf20700000f9800110f98000800e0000e
:1037a00007003d0002002000037824000e0890006e
:1037b0009e089000fef20700000f9800110f98007d
:1037c00002002000036024000e0890009e08900074
:1037d000f6f2070042722900f3b7230051f3070005
:1037e000f040880001418800d1418000f0ff2000b6
:1037f000808f500016003e00d84180006140b90023
:10380000bff2070060079800710798000800e00009
:1038100007003d0002002000037824006e009000a5
:10382000fe009000e2f20700600798007107980020
:103830006e009000fe00900042722900f3b7230052
:1038400038f3070010418800214188001800370034
:10385000d84180006140b900a9f2070040079800f4
:10386000510798000800e00007003d00020020001a
:10387000037824004e009000de009000ccf2070098
:1038800040079800510798000200200003602400c0
:103890004e009000de009000c4f207004272290042
:1038a000f3b723001ff3070010418800214188006f
:1038b000e1418000f0ff2000808f500016003e00a4
:1038c000e84180006140b9008df2070020079800b0
:1038d000310798000800e00007003d0002002000ca
:1038e000037824002e009000be009000b0f2070084
:1038f00020079800310798002e009000be0090002d
:1039000042722900f3b7230006f307003041880014
:103910004141880014003700e84180006140b9004f
:1039200077f20700008fbe000800e00005003d00b0
:1039300002002000037824001e00be009cf2070055
:10394000008fbe0002002000036024001e00be00a5
:1039500096f2070042722900f3b72300f1f2070044
:1039600030418800414188001041800021418000a1
:103970000001be00ebf207000004be0030418000f1
:10398000414180000001be00e6f207000001be00d8
:103990000800be0086f20700b4f307000001be0075
:1039a000f04080000141800001f0a200e4f3070034
:1039b00092fc2c00f3752400daf2070050418800d5
:1039c0006141880030418000414180000001be001b
:1039d000d4f207000004be00f040800001418000e6
:1039e0000001be00cff20700a2702d0033c22300f9
:1039f000ccf207000001be000800be006cf2070018
:103a00009af307000001be001041800021418000b0
:103a1000cbf3070092fc2c00f3752400c1f20700e1
:103a200070418800814188007041800081418000a0
:103a30006011b8008bf307000000e00001003500c2
:103a400009003700d0c2b3008df807007041800034
:103a50008141800062f30700e4f80700b0c3b300bf
:103a600087f8070006003700704180008141800020
:103a70005bf30700ddf80700b0c3b30080f8070070
:0c3a80004f04be000080fa0000000600a9
:020000040000fa
:0200000401f009
:04000000f6ff000007
:020000040000fa
:0200000401f009
:04000400ff7f00007a
:020000040000fa
:0200000401f009
:040008007fff000076
:020000040000fa
:0200000401f009
:04001400ffff0000ea
:020000040000fa
:10000800c41e0000c41e0000c41e0000c41e000060
:10001800c41e0000c41e0000c41e0000c41e000050
:10002800c41e0000c41e0000c41e0000c41e000040
:10003800c41e0000c41e00003e080000c41e0000cc
:10004800c41e0000c41e0000c41e0000c41e000020
:10005800c41e0000c41e0000c41e0000c41e000010
:10006800c41e0000c41e0000c41e0000c41e000000
:10007800c41e00003c0d0000c41e0000c41e000089
:10008800c41e0000c41e0000c41e0000c41e0000e0
:10009800c41e0000c41e0000c41e0000c41e0000d0
:1000a800c41e0000c41e0000c41e0000c41e0000c0
:1000b800c41e0000c41e0000c41e0000c41e0000b0
:1000c800c41e0000c41e0000c41e0000c41e0000a0
:1000d800c41e0000c41e0000c41e0000c41e000090
:1000e800c41e0000c41e0000c41e0000c41e000080
:0800f800c41e0000c41e00003c
:020000040000fa
:10010800c41e0000c41e0000c41e0000c41e00005f
:10011800c41e0000c41e0000c41e0000c41e00004f
:10012800c41e0000c41e0000c41e0000c41e00003f
:10013800c41e0000c41e00003e080000c41e0000cb
:10014800c41e0000c41e0000c41e0000c41e00001f
:10015800c41e0000c41e0000c41e0000c41e00000f
:10016800c41e0000c41e0000c41e0000c41e0000ff
:10017800c41e00003c0d0000c41e0000c41e000088
:10018800c41e0000c41e0000c41e0000c41e0000df
:10019800c41e0000c41e0000c41e0000c41e0000cf
:1001a800c41e0000c41e0000c41e0000c41e0000bf
:1001b800c41e0000c41e0000c41e0000c41e0000af
:1001c800c41e0000c41e0000c41e0000c41e00009f
:1001d800c41e0000c41e0000c41e0000c41e00008f
:1001e800c41e0000c41e0000c41e0000c41e00007f
:0801f800c41e0000c41e00003b
:020000040000fa
:103a8c00576500006c6300006f6d0000652000003e
:103a9c00746f000020460000554600004f000000e7
:103aac005761000069740000206600006f7200000e
:103abc00206300006f6e00006e65000063740000f0
:103acc0000430000686f00006f7300006520000069
:103adc00636f00006e6e00006563000074210000cf
:103aec00005000007265000073730000205300004a
:103afc00746100007274000021210000210000009c
:103b0c0050720000657300007320000055700000b7
:103b1c0021000000546800007275000073740000ee
:103b2c00203a0000002e00002e2e00002e2e000049
:103b3c002e000000786f00006e670000005000003f
:103b4c006c65000061730000652000007761000067
:103b5c0069740000002e00002e2e0000002e0000c4
:103b6c002e2e00002e0000002e2e00000000000063
:103b7c0041720000726100007900000041540000a5
:103b8c0000410000542b000042410000554400004d
:103b9c0036000000415400002b4e0000414d000047
:103bac0045460000554600004f00000041540000ff
:103bbc002b500000494e000031320000333400001d
:103bcc0000000000506800006f6e000065200000cf
:103bdc00636f00006e6e000065630000746500008a
:103bec00642100000050000043200000636f0000bf
:103bfc006e6e0000656300007465000064210000b7
:103c0c00004200006c750000657400006f6f0000ce
:103c1c0074680000206300006f6e00006e65000089
:103c2c0063740000656400002100000076610000f0
:103c3c006f20000020000000717500006120000062
:103c4c00200000006463000020200000006c0000d5
:103c5c006f690000000000002e2e000000780000ac
:103c6c006f6e000067200000726f0000690000009a
:020000040000fa
:103c7c00da0800000a00000002000000000000004a
:103c8c00000000000000000000000000a808000078
:103c9c001c00000000000000f408000004000000fc
:103cac0002000000e803280000000000ee080000fd
:103cbc0006000000000000004a080000340000006c
:103ccc0002000000000000000000000000000000e6
:103cdc0000000000000000000000000000000000d8
:103cec0000000000000000000000000000000000c8
:103cfc0000000000000000000000000000000000b8
:103d0c0000000000000080003f0000007e08000062
:103d1c002a00000000000000c4080000160000008b
:103d2c000200000000000000000000000000000085
:103d3c000000000000000000000000000000000077
:103d4c0000000000e40800000a000000020000006f
:103d5c000000450072726f00726564000000000084
:103d6c00000800004a00000000000000f8080000f5
:0c3d7c0002000000000000000000000039
:020000040000fa
:043d88000000fe0039
:00000001FF
