:020000040000fa
:080000000001040000000000f3
:020000040000fa
:100200002f8f200080ff20000001880000000000e8
:10021000050007000c000700a60602000000000011
:100220000040da000000fe004440a900001f20004a
:100230000000e0000300320000002000a001880060
:100240004440a80000000600c0df2100010020009b
:100250001600370062004000e080480091018800ed
:100260009001ba0062004000e080480091018800df
:100270009002ba0062004000e08048000002eb00fb
:100280006028e10005003a008301e900070033001f
:10029000038009000059eb00040037006128e100e9
:1002a000010032000082eb00050007009101880088
:1002b0001001ba000200e000e6ff3a00000005006d
:1002c000910188008002780062004000e0804800d0
:1002d0003559ba008301e900080032002559ba00f7
:1002e0008301e900050032000400e000f4ff320061
:1002f00015d9ba008301e900f1ff3a0000000600b9
:10030000889fbe008a9fbe00010578000100e000c2
:100310000400350008003c000000e000200032002e
:100320000500370060001000e080180002003b006c
:1003300001f02c001a0037000004be006011b80064
:100340006b0920000982cf00020039000882cf002b
:100350000441b000694252000e00320008003b0028
:1003600082817100610164008904d1000884d30096
:100370008b05e8000442e800f9ff3a000500370069
:100380000804440089844c008b05e9000442e9001c
:10039000fbff3a00870107000af0a70001f0a00068
:1003a0004f05be004f04be000000060003f0a2008f
:1003b000889fbe008a9fbe008c1f7800a3010700a3
:1003c000aa0133006450e1004f0032006420e100d4
:1003d0005200320003826c0007003b000905d00088
:1003e0000306d000820f54000c065d0002003900a5
:1003f00002003200890178000306780085825500ea
:1004000004003d000003fd008103fd008502ea00b9
:100410008b854200840f720002003b0060001000d8
:10042000e08018006011b8000005eb007a28e100b8
:100430000a00390006007800c75ddd00f707b2004a
:10044000878075002d003700828171000a017800d5
:10045000610560008180d1000080d3008502e90041
:10046000f9ff3b00060440008784480002003b007f
:1004700060041400e0841c000988a3000700320017
:100480008a81710082817100610164008904d10058
:100490000884d3008b05e800170037000978a30013
:1004a00013003a000b00e000130034008b05e90054
:1004b0000804440089844c000a4474000978a300ad
:1004c0000d003a000b00e000070034008b05e90046
:1004d0000804440089844c0001003a000b0020000d
:1004e0000978a300f7ff32000001eb00020037009b
:1004f000828171000a0178002e0107000cf0a7002c
:1005000001f0a000620137006420e10002003a001f
:10051000838f6c00620133000801be000200be0040
:100520005b013700889fbe008a9fbe008c1f780049
:10053000460107004d01330003866c006450e10062
:10054000240032006420e100270032006150e10005
:10055000220032006120e100210032008b85420040
:10056000eb07b1000134b800003ab80008044200bb
:1005700089844a00013ab8000030b8008880400001
:1005800009014a0004003300000040008180480057
:10059000020149008b05e900c909dd0083017000f3
:1005a0000100320013002000c814de004814dd00f2
:1005b0004709de001200b200c808de00088470009f
:1005c000fc00070001f0a1000cf0a70001f0a00062
:1005d0002f0137006120e100310132000801be0027
:1005e0000200be00f7ff37006150e100fcff3a0057
:1005f0002b013700889fbe008a9fbe008c1f7800a9
:10060000120107001901330003866c006450e100f9
:100610002e0032006420e100330032006150e1001e
:100620002f0032006120e100310032008585550045
:10063000eb07b00009002000080420000500370087
:100640000804440089844c000a003100060343007a
:1006500087834b000001530081815b00f8ff33006a
:100660000203be000800a0000804440089844c0076
:10067000f6ff3900c639dd00830173000100320046
:10068000130020008904d1000884d3000998a30036
:10069000050032000800a7000300a0008904d10073
:1006a0000884d3008b05e8008904d1000884d300b6
:1006b0000001eb000281d200be00070001f0a100a2
:1006c0000cf0a70001f0a000f10037006420e10069
:1006d000f30032000801be000200be00f7ff370041
:1006e0006120e100ee0032006000b800f3ff370047
:1006f0000000200001f82700f0ff37000001be00d5
:10070000ea0007000470a70003f0a10003f8a300ab
:1007100013003a006509b1001000320009003500ed
:100720006928e100020035000100280000000500f2
:1007300000004000818048008502e900fcff3a008b
:1007400000000600f88f4200050035008100d1004e
:100750000080d3008502e800fcff3a00000006009c
:100760008000eb0000000500811f78000100e00020
:1007700002003d0060001000e08018000300e0006f
:1007800002003d0060011100e0811900dc0007005b
:100790004f00e00002003b0060001000e080180005
:1007a00000000600839f68000100e00002003d0099
:1007b00060001000e08018000300e00002003d002f
:1007c00060011100e0811900d00007004f00e00037
:1007d00002003b0060001000e080180000000600ee
:1007e0000001be00b10007000470a70003f0a100e3
:1007f0006509b100160032000d0035006828e100df
:1008000006003500f0ff2f00f1ff27000300e00095
:1008100013003b000100280000000500000040001c
:10082000818048008502e900fcff3a00080037009b
:10083000f88f420002003c008000eb000000050041
:100840008100d1000080d3008502e800fcff3a005f
:100850000300e00002003b0060001000e080180090
:100860000000060014002000b8003700889fbe007a
:100870008a9fbe008c1f78000004be008b0007001a
:100880000478a30026003a006120e1002500320030
:1008900009f8a30025003a006420e100210032009d
:1008a000f507b1000508a300020032000000400077
:1008b000818048006044b80003102000020020003e
:1008c00000004000818048000805440089854c00f4
:1008d0000a0541008b8549000a0550008b855800a8
:1008e000030033000a00be00020474008384740015
:1008f0008301d1000281d300830f7100f0ff3a0021
:100900008904d1000884d300600149008201780085
:10091000c1adde00fb07b000260007005c00370019
:100920000960a0000800be00590037001202200034
:1009300082478800f0ff2f00f1ff270054003700a6
:10094000889fbe008a9fbe008c1f78003f00070072
:100950001002200002003b0080478800430037005f
:100960008a0062006408e10002003a0080478800c3
:100970004b0037006108e100fcff32000800be00b8
:10098000030478001bff070001f0a1008a000700a4
:1009900008f0a600040037000001be009104240006
:1009a000b0fd200081fe070009f0a70001f0a200c1
:1009b0003700370081002000618055000b003d00aa
:1009c0000b00200061fe2f000100e1001d0034003b
:1009d00082817100610164008904d1000884d30020
:1009e0000000e800faff3a00710020006100640096
:1009f000030070000200600009003200610444003e
:100a0000e0844c000988a500050032008b05e80051
:100a10006808e10002003a008904d1000884d3008c
:100a2000f20f20000258e10005003d00c75ddd0027
:100a3000f907b20089807500080078000000060000
:100a40000bf827008b007800000005000004be00b2
:100a5000160007000003be000405be000200be0031
:100a600012000700844f7500000006000200be005f
:100a70006450e100050036006420e1000200360009
:100a80000968a30001003a000800be000160a00050
:100a90004f0678004f05be004f04be000000060060
:100aa000f0ff2f00f1ff2700f9ff3700c70ade0033
:100ab000f107b200f50fb20008003200e1cf4200aa
:100ac000020032000170a00024000500810f7000b8
:100ad000010032000408050044000500810f700089
:100ae00002003a00140005008502e9000000400001
:100af00081c04800fcff3b000170a00024000500fd
:100b0000020007000400be00000006006022b800da
:100b1000060220000000d0008180d2000482d200b2
:100b20008582d2000000a0000202520083825a0097
:100b300003003b000202420083824a000000a10041
:100b40000603e900f3ff3a0000000600889fbe009c
:100b50008a9fbe00841f7800bcff07004f0078000a
:100b600011003300f0ff2f00838f6c0006003b0064
:100b7000040565000a00a7000800370009f0a60078
:100b80001000200008003700820f5400838f5c00a3
:100b9000030039001000200001003e00000020008a
:100ba00009f0a7000000ea004f05be004f04be0098
:100bb0000000e00000000600889fbe008a9fbe0083
:100bc0008c9fbe000004be00b8ff07000800be00f6
:100bd000890678006420e100080039000400320032
:100be0000160a000120220008247880053003700f5
:100bf00091fc2300b0fd20004e0037000006eb0002
:100c000009f0a10003f82300020020000800be0044
:100c100014ff07000600340001f823000000200044
:100c20000801be0073fe07000004be002c00200077
:100c30000800be0093e82300320a230009ff0700e2
:100c4000120034000801be00d1fd2300703d2b00ce
:100c5000d7fd07000005be00b3f32300f27a26009b
:100c60000800be002ffe070003f82300020020004a
:100c7000cefd07000801be00cdfd07000a01be0041
:100c80005cfe07000004be000c06e8000800be0081
:100c900001f0a1000200200003982300f1fe0700ec
:100ca0000800be00160035000801be001dfe07004a
:100cb0000005be0032cd2c0043fb2300bcfd070025
:100cc000809fbe001269280003d52b000a00be00d9
:100cd00014fe0700620f210013ef2b00b4fd070084
:100ce0000a01be000ffe07004f01be0041fe0700d3
:100cf0000801be000bfe07000801be00acfd0700a6
:100d00000c00e0000b0032000c10a70001f0a20064
:100d1000b2fd200093fc23006260e1000400320079
:100d200022a9200063f023000c10a70063f8230021
:100d30009ffd07000df0a70001f0a2004f06be00c6
:100d40004f05be004f04be00000006000200fa007e
:100d500000003700f4060700c0458800c045800049
:100d6000000f78001e007800e30f50002b003200c7
:100d70001e007800e30f500007003e001e007800c0
:100d8000e10f5000130032001e007800e10f500008
:100d90001c003e000d0037001e007800e50f5000db
:100da000350032001e007800e50f500023003900a6
:100db0001e007800e60f5000350032001e0078005b
:100dc000e70f500043003200e2ff37005b000700ee
:100dd000e0ff370010c0b3002101070040d0290018
:100de00027020700a0002000ce00070000ccb300bf
:100df0001b01070040d1290021020700a9040700b8
:100e0000d4ff370010c0b3001501070050d22900ed
:100e10001b02070083040700ceff370010c0b30099
:100e20000f01070050d3290015020700af04070087
:100e3000bd0607002b020700c6ff37008309070025
:100e40006304070090468800904680000000e80098
:100e50009046880090468000f50f50000200360052
:100e60006001200090468800904680005c040700e6
:100e700065040700b7ff370010c0b300f800070093
:100e800040d42900fe010700be040700b1ff37006f
:100e900010c0b300f2000700e0d42900f8010700f9
:100ea0004b0407000f02070000ccb300ec00070062
:100eb000990607000b020700a04680000000e00032
:100ec000a4ff3a00c30407004b040700a0468800b3
:100ed000a0ff370010c0b300e100070070d5290063
:100ee000e70107003a04070090468800904680001a
:100ef0000000e90090468800904680000000e00075
:100f00000a003a000000eb009046880010c0b300d1
:100f1000d3000700e0d52900d9010700803e20005a
:100f20008000070030002000830607009046800004
:100f30002b0407003404070086ff37000000fa0086
:100f40009d000700a000200076000700a900070010
:100f5000a00020007300070030d62900c801070058
:100f600000ccb300be00070011020700800c200077
:100f70006c000700f0d62900c1010700401f2000c7
:100f80006800070030d72900bd01070025030700ce
:100f9000800c200063000700f0d62900b80107008c
:100fa0005e070700800c20005e00070080d7290044
:100fb000b30107009a060700800c200059000700c3
:100fc00080d72900ae0107002b080700800c200005
:100fd00054000700f0d62900a9010700040007000b
:100fe00010002000540607000080fa0000000600f0
:100ff0000000fa00710920009140780080cfb30012
:1010000000c060006040b30097e0b700011120000d
:1010100091407800f0ccb30000c060000044a00014
:1010200010e1b7000000eb003008880000e2240067
:101030006008880084c0a9008cc0a80011e1a90044
:101040000080fa00000006000000fa0021112000d4
:1010500091407800f0ccb30000c060000044a000d4
:1010600012e1b7000000eb005008880013e1a8006f
:101070000080fa00000006003600f800809fbe00e5
:10108000829fbe00849fbe00869fbe003400f80091
:1010900000c0b300a00188000000fa0084c0a900cd
:1010a0000000eb0030088800d7030700a04680004e
:1010b000e10f500013003a00db02a80080468000d8
:1010c0000000e80080468800814680002003200060
:1010d000808f50000b003a000000eb008046880033
:1010e0000000eb00a0468800dbc2bf00614060004a
:1010f0000004e00002003200db02a900010037001a
:10110000db02a8000080fa003400f9004f03be00a3
:101110004f02be004f01be004f00be003600f90076
:10112000004006000200fa00000f780005e1a80068
:10113000060037000000eb0000088800010880006e
:10114000f0e72300808f5000fcff36001e0fe900ff
:101150000080eb009e0f1000f6ff3a0005e1a900a9
:101160000000eb00000888000080fa000000060084
:101170000200fa00000f780005e1a8000500370022
:101180000000eb000008880000088000ef0f50000e
:10119000fdff36001e0fe9000080eb009e0f1000df
:1011a000f7ff3a0005e1a9000000eb000008880005
:1011b0000080fa00000006000000fa00ca42a90000
:1011c000ca62a900ca82a900caa2a900c642a9008f
:1011d000c662a900c682a900c6a2a900ca22a900a7
:1011e000c622a900ca02a900c602a9000080fa000e
:1011f000000006000000fa0020c0b300180007003d
:1012000010002000c7ff070080c2b30014000700d1
:1012100010002000c3ff070080c0b30010000700cb
:1012200010002000bfff070060c0b3000c000700e3
:1012300010002000bbff0700f0c0b300080007004b
:1012400010002000b7ff070010c0b3000400070023
:1012500050002000b3ff07000080fa0000000600e5
:101260000200fa00004f7800ca02a9009e80fb002d
:1012700000082000008060004780de0061406000c0
:1012800061406000004040000040400000404000dd
:101290000040400000414000a12c20009140780017
:1012a000f0cdb30000c0600002407000cae2b70099
:1012b0009e80fb0000042000008060004680de006d
:1012c000614060006140600000404000004040001c
:1012d0000040400000414000a12c200091407800d7
:1012e000f0ceb30000c0600002407000cae2b70058
:1012f0009e80fb0000022000008060004580de0030
:1013000061406000614060000040400000404000db
:1013100000414000a12c20009140780070cfb30024
:1013200000c0600002407000cae2b7001e80fb00ef
:10133000700060004480de00614060006140600039
:101340000040400000414000a12c20009140780066
:10135000b0cfb30000c0600002407000cae2b70026
:10136000ca22a8004001200081ff0700ca22a9006c
:101370001e80fb00680060004380de00614060006a
:1013800061406000004040000040400000404000dc
:101390000040400000414000a12c20009140780016
:1013a000f0cdb30000c0600002407000cae2b70098
:1013b0001e80fb00640060004280de00614060002f
:1013c000614060000040400000404000004040009c
:1013d00000414000a12c200091407800f0ceb300e5
:1013e00000c0600002407000cae2b7001e80fb002f
:1013f000620060000080d1006140600061406000d8
:10140000004040000040400000414000a12c20006e
:101410009140780070cfb30000c0600002407000bf
:10142000cae2b7009e40780061c060006140600081
:1014300061406000614060000040400000414000a9
:10144000a12c200091407800b0cfb30000c0600014
:1014500002407000cae2b700ca22a8004001200082
:1014600043ff0700ca22a9000080fa00000006001e
:101470000200fa00004f7800ca02a8009e80fb001c
:1014800000082000008060004780de0061406000ae
:1014900061406000004040000040400000404000cb
:1014a0000040400000414000a12c20009140780005
:1014b000f0cdb30000c0600002407000cae2b70087
:1014c0009e80fb0000042000008060004680de005b
:1014d000614060006140600000404000004040000a
:1014e0000040400000414000a12c200091407800c5
:1014f000f0ceb30000c0600002407000cae2b70046
:101500009e80fb0000022000008060004580de001d
:1015100061406000614060000040400000404000c9
:1015200000414000a12c20009140780070cfb30012
:1015300000c0600002407000cae2b7001e80fb00dd
:10154000700060004480de00614060006140600027
:101550000040400000414000a12c20009140780054
:10156000b0cfb30000c0600002407000cae2b70014
:10157000ca22a80040012000fdfe0700ca22a900df
:101580001e80fb00680060004380de006140600058
:1015900061406000004040000040400000404000ca
:1015a0000040400000414000a12c20009140780004
:1015b000f0cdb30000c0600002407000cae2b70086
:1015c0001e80fb00640060004280de00614060001d
:1015d000614060000040400000404000004040008a
:1015e00000414000a12c200091407800f0ceb300d3
:1015f00000c0600002407000cae2b7001e80fb001d
:10160000620060000080d1006140600061406000c5
:10161000004040000040400000414000a12c20005c
:101620009140780070cfb30000c0600002407000ad
:10163000cae2b7009e40780061c06000614060006f
:101640006140600061406000004040000041400097
:10165000a12c200091407800b0cfb30000c0600002
:1016600002407000cae2b700ca22a8004001200070
:10167000bffe0700ca22a9000080fa000000060091
:101680000400fa0010079800a0002000a5fe070043
:101690000000eb00000f7800090037001e00780002
:1016a000800078001e00900000804000104078000c
:1016b0001e0fe8006eff07001000200099fe0700d3
:1016c0001e007800800078001e009000008040001e
:1016d000104078000004e000f0ff3a000080fa00bb
:1016e000000006000a00fa00400798000e80e8009b
:1016f000c1d7290005000900315878006000b10009
:101700006100b1000000eb00000f7800110037000d
:101710009e0178004e009000a200200011000900f8
:101720000280d8008000fd0002c3b3008240400068
:101730000e80e80000804100014878001e0fe8009c
:101740004e009000a2002000110009000280d80085
:10175000400798004e0090000000e000ecff3a00c7
:10176000080037001e0fe9009e0078000e80e80098
:1017700000804000104078003dff0700100020006e
:1017800068fe07001e00e000f6ff3c000080fa0043
:10179000000006000000fa000000eb00e0168800e0
:1017a0000000eb00c01688000080fa000000060070
:1017b0000400fa00881f780000712200604788004a
:1017c000684780006140b900cdfa0700008fbe0075
:1017d0000800e00005003d0002002000037824001e
:1017e0001e00be00f2fa0700008fbe0002002000bb
:1017f000833c24001e00be004afb070002002000bc
:10180000a34724007bfb0700bcfb07007047880050
:101810007047800050478800deff07000700070080
:1018200029000700c1e1a800daa2a8001fe1a80072
:101830004f0478000080fa00000006000000fa0063
:10184000604780000000e900200e8800f070200052
:10185000400e880000f02f00a00e8800c1a1a90052
:10186000c0c1bf006f406000c0e1b700011c200094
:101870009140780030cfb30000c060000024a00089
:10188000c0e1b700011c200091407800c0cfb30038
:1018900000c06000c0e1b700704780000000400059
:1018a000b00e88007047800000004000c00e880025
:1018b0007047800000004000d00e8800c1e1a90000
:1018c0000080fa00000006000000fa00e109200094
:1018d0009140780000c7b30000c070009ee0b700e0
:1018e000e111200091407800f0ccb30000c060000e
:1018f0001ee1b7000000eb00a00888005047800000
:10190000d008880086a0a9008ea0a8001fe1a90029
:101910000080fa00000006000600fa00000f7800c0
:101920001107980022079800414780001e007800a8
:101930000088b900800078007047800080804000f7
:101940001e009000008140002e0090007400b9003d
:1019500080004100404780000080400000004000bf
:10196000b00e88000080fa00000006000600fa00b1
:10197000000f780011079800220798004147800067
:101980001e0078000088b900800078007047800051
:10199000808040001e009000008140002e009000da
:1019a0007400b9000000410000004000c00e880033
:1019b0000080fa00000006000600fa00000f780020
:1019c0001107980022079800414780001e00780008
:1019d0000088b90080007800704780008080400057
:1019e0001e00900080814000404780006c00b900dc
:1019f000000178002e0090007400b9000000410042
:101a00000080410000004000d00e88000080fa00f5
:101a1000000006000600fa00000f78001107980089
:101a200022079800414780001e0078000088b90016
:101a30008000780070478000808040001e00900089
:101a400080814000404780006700b90000017800b5
:101a50002e0090007400b900000041000080410099
:101a6000504788000080fa0000000600809fbe00fa
:101a70003400f80000c0b300a00188000000fa00a4
:101a80000000eb00a00888006147800050478000fc
:101a900080805000d0088000808f500004003a0001
:101aa00050478000d0088800daa2a800050037005f
:101ab000604780005147800001005000d008880036
:101ac000daa2a90086a0a9000080fa003400f9007b
:101ad0004f00be00004006000200fa00000f780030
:101ae00020d829006d00070050d829006b0007009e
:101af000e0d8290069000700a0d929006700070085
:101b00000080fa00000006000400fa0010079800a8
:101b100010c0b300d2fd07000000eb00000f7800fa
:101b2000090037001e007800800078001e00900039
:101b300000804000104078001e0fe8004cfe0700b7
:101b40001000200077fd0700100020009e0f1000fd
:101b5000f4ff3400090037001e0078008000780090
:101b60001e00900000804000104078001e0fe8002a
:101b70003ffe0700100020006afd070080002000e3
:101b80009e0f1000f4ff340000ccb300b4fd07003a
:101b90001000200063fd0700090037001e007800d8
:101ba000800078001e009000008040001040780007
:101bb0001e0fe8002efe07001000200059fd070050
:101bc000100120009e0f1000f4ff340009003700c0
:101bd0001e007800800078001e0090000080400009
:101be000104078001e0fe80021fe070010002000c2
:101bf0004cfd0700900120009e0f1000f4ff340000
:101c000010c0b30096fd07001000200045fd07003e
:101c10000080fa00000006000000fa000080fa00d0
:101c2000000006000000fa00004028006010880054
:101c30000040200070108800810920009140780049
:101c4000f0c8b30000c0600001c3b30001407000e1
:101c500098e0b7008540a9008d40a9008520a90023
:101c60008d20a90080002000a01088000080fa00cc
:101c7000000006000200fa00004f78001e80fb0002
:101c8000801088000fc2bf00614060000004e000c7
:101c9000fcff32000080fa00000006000400fa0099
:101ca000100798000000eb00000f780007003700d5
:101cb0001e007800800078001e0090000080400028
:101cc000104078001e0fe800eaff07001e007800b1
:101cd000800078001e0090000080400010407800d6
:101ce0000004e000f2ff3a000080fa000000060065
:101cf0000c00fa00500798000000eb00000f78007d
:101d00005e0090000000e0001f003d00de0090003b
:101d10000080eb000088b900500798001a003700d7
:101d2000300020009e0f100006003a009e00780050
:101d30000e80e80080804000e0c2b3008048780058
:101d40001e0fe8009e0178005e009000a2002000b7
:101d5000110009000200d8008000fd000043b0001f
:101d6000804078000e80e800008041000148780043
:101d70001e0fe8005e009000a20020001100090084
:101d80000200d800500798005e009000a2002000da
:101d9000110009000200d8008000fd000000e000f2
:101da0000a0035005e0090000000e000dcff3c000f
:101db000060037009e0078000e80e800808040001a
:101dc00000c3b300804878001e0fe80060002000c8
:101dd0009e0f1000f7ff34000e80e800b040900026
:101de00000c3b30080cf50000a003a008e80e800a4
:101df000e0c2b300b0409800060037001e0fe900b3
:101e00009e0078000e80e8000080400010407800be
:101e100098ff07001e00e000f8ff3c000080fa0079
:101e2000000006000e00fa00881f78005007980096
:101e3000610798000000eb00000f78005e00900042
:101e4000ee009000e00f5000e08f58002c003d00a5
:101e5000de0090000080eb00000ab800de00900079
:101e60000080eb000088b900050178000001410006
:101e7000ee0090000080eb000088b90000014100f6
:101e80008202780054079800650798001c0037000c
:101e9000300020009e0f100006003a009e007800df
:101ea0000e80e80080804000e0c2b30080487800e7
:101eb0001e0fe8001e0478005e009000ee00900007
:101ec000a20020000300200027fa07000043b00012
:101ed000804078000e80e80000004400014878004f
:101ee0001e0fe8005e009000ee009000a2002000af
:101ef000030020002bfa07005007980061079800a4
:101f00005e009000ee009000a20020000300200080
:101f100015fa0700e00f5000e08f58000c00350064
:101f20005e009000ee009000e00f5000e08f58003f
:101f3000d7ff3c00060037009e0078000e80e800c6
:101f40008080400000c3b300804878001e0fe80086
:101f5000600020009e0f1000f7ff34000e80e800a4
:101f6000b040900000c3b30080cf50000a003a0098
:101f70008e80e800e0c2b300b04098000600370051
:101f80001e0fe9009e0078000e80e80000804000ef
:101f90001040780037ff07001e00e000f8ff3c000b
:101fa0004f0478000080fa00000006000000fa00ec
:101fb0000ec2bf00614060000004e000fcff320080
:101fc000901080000080fb000080fa0000000600f6
:101fd0000000fa00604280000080fa000000060065
:101fe0000200fa00000f78001e00780060428800ae
:101ff0000080fa00000006000000fa00e0448000c3
:102000000080fa00000006000000fa006022b8001c
:102010006011b8006000b800230107000080fa00da
:10202000000006000000fa00e0ff070096e8b70095
:102030006189200091407800e0c6b30080cf500055
:1020400009003a00300020003b02070010c0b30036
:1020500083fc070060da290089fd0700401f20008b
:1020600030fc07000d0037006189200091407800a6
:1020700030c6b30080cf500008003a003000200086
:102080002d02070010c0b30075fc070070db2900ab
:102090007bfd0700401f200022fc07000080fa00a3
:1020a000000006000000fa00c0ff070096e8b70035
:1020b000618920009140780080c6b30080cf500035
:1020c00008003a00200020001b02070010c0b300e7
:1020d00063fc070050dc290069fd0700401f200059
:1020e00010fc07000080fa00000006000000fa0063
:1020f00000ccb3005afc07002003200009fc0700b5
:10210000a0dd29005efd0700a8ff070096e8b700e4
:102110002003200003fc070000de290058fd070013
:10212000401f2000fffb07006189200091407800dc
:1021300060c6b30080cf50000c003a00b101070028
:10214000be0107009c01070040002000fa010700c3
:1021500010c0b30042fc070060de290048fd070004
:10216000800c2000effb07000400370000ccb30018
:102170003bfc0700b0de290041fd07000080fa00ab
:10218000000006000000fa008b01070087ff07002f
:1021900096e8b7008520a900618920009140780069
:1021a000f0c6b30080cf500008003a0010002000b5
:1021b000c0438800604280000000e8006042880060
:1021c00011e1a80060002000db0107000080fa0098
:1021d000000006000000fa007701070073ff070007
:1021e00096e8b7008520a900618920009140780019
:1021f000f0c6b30080cf50000f003a00100020005e
:10220000c0438800604280000000e800604288000f
:1022100060428000f60f5000760036006142800078
:1022200040062000808f50007200360040062000db
:10223000604288006f00370061892000914078007b
:1022400000c7b30080cf500010003a0010002000fb
:10225000d0438800604280000000e90060428800ae
:1022600060428000f60f500062003e0011e1a900bc
:102270000000eb00504288006001200060428800ae
:1022800070002000ac0107005a003700618920006f
:102290009140780070c7b30080cf50000a003a0028
:1022a000100020002044880090438000a14380005b
:1022b000d2cc2c00c3dc23003df8070090438800fb
:1022c000a14388004b0037006189200091407800cd
:1022d00030c7b30080cf50000a003a001000200041
:1022e0003044880090438000a1438000d2cc2c0071
:1022f000c3dc23002df8070090438800a143880029
:102300003c003700618920009140780010c6b3007e
:1023100080cf500006003a0010002000e043880003
:10232000b04280000000e800b04288003100370071
:10233000618920009140780040c6b30080cf5000f2
:1023400006003a0010002000f0438800d0428000d0
:102350000000e800d0428800260037006189200094
:1023600091407800b0c6b30080cf500006003a001c
:102370001000200010448800d04280000000e900d6
:10238000d04288001b00370061892000914078000e
:10239000e0c6b30080cf500006003a0010002000d5
:1023a00000448800b04280000000e900b04288008c
:1023b00010003700618920009140780060c6b300aa
:1023c00080cf50000b003a0050428000e10f5000d7
:1023d00006003a000000eb005042880011e1a9001d
:1023e0007000200054010700020037001000200098
:1023f00050428800618920009140780060c6b30097
:1024000080cf500018003200c0438000e10f500020
:1024100015003200d0438000e10f5000120032005e
:1024200000448000e10f50000f0032001044800093
:10243000e10f50000c003200e0438000e10f50003b
:1024400009003200f0438000e10f50000600320026
:1024500020448000e10f500003003200304480002f
:10246000e10f500003003a0010002000e044880013
:10247000020037000000eb00e04488009043800039
:10248000a1438000020020000312240025f8070069
:10249000d3f80700b0438800b0438000180107005c
:1024a0000080fa00000006000c00fa00008fbe0059
:1024b00022079800330798004407980055079800b2
:1024c00050428000e10f500007003a00a0030700cf
:1024d0004e029000de0290002e019000be0190009e
:1024e0001e00be002f000700804480009144800041
:1024f0004244800053448000adf70700b8f807005d
:102500007042880060448000714480004244800032
:1025100053448000a5f70700b1f807008042880007
:1025200040448000514480008244800093448000f5
:102530009ef70700aaf807009042880060448000d8
:102540007144800001f0a2004244800053448000a6
:1025500096f70700a2f80700a0428800b242800068
:102560007142800060428000ebfc070081428000e5
:10257000604280000001eb00fcfc0700d2428000ba
:1025800091428000604280000bfd0700a142800064
:10259000604280000001eb001efd07000080fa0091
:1025a000000006001800fa00600798007107980004
:1025b000020f9800130f9800240f9800350f980011
:1025c000fa00070040079800510798000301070030
:1025d00020079800310798006011b8002e00900085
:1025e000be0090009ff807000000e00001003500e9
:1025f00009003700d0c2b3009efd07002e009000f6
:10260000be00900076f80700b9fd070090c0b30047
:1026100098fd0700060037002e009000be009000d5
:102620006ff80700b2fd070090c0b30091fd0700ee
:10263000b00e8000aefd070090c0b3008dfd070016
:10264000d00e8000aafd070090c0b30089fd0700ee
:10265000b0438000a6fd070090c0b30085fd0700d1
:102660006000b80060448800714488009243800094
:10267000a34380006000b800809fbe006033b800b4
:102680000202be002e019000be0190000e089000d4
:102690009e0890000c000700e487570080448800e3
:1026a000914488006000b80040448800514488008c
:1026b000d0c0b3006ffd0700a0c0b3006dfd0700e0
:1026c0000080fa00000006001000fa00008fbe0033
:1026d0002207980033079800440798005507980090
:1026e00066079800770798002e019000be019000c1
:1026f0001e00be002df7070050438800614388008c
:102700007043800081438000524380006343800017
:1027100027f70700704388008143880050438000fa
:10272000614380004e019000de0190007df70700bc
:10273000f04288000143880070438000814380009c
:102740006e019000fe01900076f70700a2702d0048
:1027500033c2230073f70700104388002143880029
:10276000a0448000cf80de00e5f607003eb9970068
:10277000ceb997006bf707003043880041438800cb
:10278000f042800001438000124380002343800018
:1027900007f70700324380004343800004f7070037
:1027a000c0448800d1448800c0448000d1448000e7
:1027b0000080fa00000006000000fa000000eb00b4
:1027c000c04388000000eb00d04388000000eb000d
:1027d000e04388000000eb00004488000000eb00ac
:1027e000f04388000000eb00104488000000eb007c
:1027f000204488000000eb00304488000080fa008c
:10280000000006000000fa006000b80040448800a4
:10281000514488006000b80060448800714488001a
:102820006000b80080448800914488000000eb00fc
:10283000a04488000080fa00000006000000fa00b2
:102840000000eb00704288000000eb00804288002e
:102850000000eb00904288000000eb00a0428800de
:102860000000eb00b04288000000eb00c04288008e
:102870000000eb00d04288000000eb00e04288003e
:102880000080fa00000006000200fa00000f780045
:102890001e007800404688000080fa000000060014
:1028a0000000fa00404680000080fa0000000600a8
:1028b0000200fa00000f78001e00780050468800e1
:1028c0000080fa00000006000000fa005046800078
:1028d0000080fa00000006000200fa00000f7800f5
:1028e0001e007800604688000080fa0000000600a4
:1028f0000000fa00604680000080fa000000060038
:102900000200fa00000f78001e0078007046880070
:102910000080fa00000006000000fa007046800007
:102920000080fa00000006000000fa00d045800098
:102930000080fa00000006000200fa00000f780094
:102940001e007800d04588000080fa0000000600d4
:102950000200fa00000f78001e0078006101b80044
:1029600000e823000012b8006010b90005037800e9
:102970000003430000e823000098b900000343006f
:1029800086027800040078000080fa00000006004b
:102990000400fa00008fbe001e00be00e045880063
:1029a000f14588000080fa00000006000000fa00ef
:1029b000e0458000f14580000080fa00000006003c
:1029c0000400fa00008fbe001e00be000046880012
:1029d000114688000080fa00000006000000fa009e
:1029e00000468000114680000080fa0000000600ca
:1029f0000400fa00008fbe001e00be0020468800c2
:102a0000314688000080fa00000006000000fa004d
:102a100020468000314680000080fa000000060059
:102a20000200fa000040eb00004f7800b2c0b30093
:102a300011c3b30030c5b300c70007001e4f4000ec
:102a400082c0b300d1c2b30030c5b300c2000700da
:102a50001e4f4000a2c0b300c1c2b30030c5b300d6
:102a6000bd0007001e4f40001e80fb000080fa00e2
:102a7000000006000a00fa00400798000040eb0042
:102a8000004f78000e01e80063c0b30021c3b3001b
:102a900030c5b300210107001e4f40000e00e800c2
:102aa000104090000080fb0000004000000040004b
:102ab0000000400000004000000040000000400016
:102ac0000000400000004000800078000e00e80098
:102ad000104078000080fb000080700080007800cb
:102ae000f0ff2100808060004e0090000108780017
:102af0004e0090000081e8000e00e8003040900099
:102b00000080fb000000400000004000000040008a
:102b100000004000000040000000400000004000b5
:102b200000004000800078000e00e8002040900087
:102b30000080fb000080700080007800f0ff210022
:102b400000806000000978004e00900064014000a1
:102b50000e00e800504090000080fb0000004000a4
:102b60000000400000004000000040000000400065
:102b7000000040000000400000004000800078009d
:102b80000e00e800404090000080fb0000807000d4
:102b900080007800f0ff21000080600000097800cc
:102ba0001e80fb000080fa00000006000000fa0012
:102bb0000602a80006c2bf00614060000004e000f9
:102bc000fcff3a000080fa00000006000000fa0056
:102bd0000622a80006c2bf00624060000004e000b8
:102be000fcff3a000080fa00000006000000fa0036
:102bf0000642a80006c2bf00644060000004e00076
:102c0000fcff3a000080fa00000006000000fa0015
:102c100006a2a9000682a80006c2bf00704060009c
:102c20000004e000fcff3a000080fa00000006000b
:102c30000000fa0006a2a8000682a80006c2bf0093
:102c4000704060000004e000fcff3a0006a2a9000a
:102c50000080fa00000006000200fa0009c2bf006e
:102c60008000eb00010f78000004e0000200350056
:102c700010002000000f78001e0078000080fa008d
:102c8000000006000200fa00004f78001e407800a5
:102c900002e2b70008c2bf00614060000004e0002b
:102ca000fcff3a000080fa00000006000400fa0071
:102cb000004f78001e40780002e2b70009c2bf0052
:102cc0000044b2000004e000fcff3a0009c2bf006b
:102cd0008000eb00110798000004e00002003500be
:102ce00010002000100798001e0090000080fa00dd
:102cf000000006000000fa000662a80008c2bf003b
:102d0000624060000004e000fcff320000c2bf002f
:102d10000080fb000080fa00000006000000fa00be
:102d200000202800301088001009200020108800a2
:102d30000080fa00000006000000fa0085c0bf0015
:102d40000044b2000004e000fcff320085c0a9008e
:102d50000080fa00000006000800fa0020479800f2
:102d600031479800424798000040eb00004f780040
:102d70008eff07002e40900000404000cbff070070
:102d80008040eb00714798000004e00002003a0028
:102d900010c0b300704798001e407800fe409000bd
:102da00000c04000004f78003e409000bfff070089
:102db0008040eb00614798000004e00002003a0008
:102dc00010c0b300604798001e407800ee409000ad
:102dd00000c04000004f78004e409000b3ff070055
:102de0008040eb00514798000004e00002003a00e8
:102df00010c0b300504798001e407800de4090009d
:102e000000c04000004f780078ff07001e80fb00e4
:102e10000080fa00000006000c00fa00204798002d
:102e200031479800220798000040eb00004f7800df
:102e30005eff07002e409000004040009bff07000f
:102e40008040eb00214f98000004e00002003a00af
:102e500010c0b300204f98001e407800ae4890008c
:102e600000c04000004f78003e4090008fff0700f8
:102e70008040eb00114f98000004e00002003a008f
:102e800010c0b300104f98001e4078009e4890007c
:102e900000c04000004f78004cff07002e4090001b
:102ea0000080fb00000040000004a0007fff07003e
:102eb0008040eb00014f98000004e00002003a005f
:102ec00010c0b300004f98001e4078008e4890005c
:102ed00000c04000004f78001e04e00004003200f3
:102ee00042ff07001e80fb003007980008003700f3
:102ef00080ff0700804078002e0090000148780095
:102f00004bff070039ff07009e80fb003107980048
:102f10003e0090000080fa00000006000e00fa005b
:102f2000204798003147980022079800634798008f
:102f30000040eb00004f78001cff07002e4090007f
:102f40000040400059ff07008040eb00414f9800cf
:102f50000004e00002003a0010c0b300404f9800a7
:102f60001e407800ce48900000c04000004f78001e
:102f70003e4090004dff07008040eb00314f98002d
:102f80000004e00002003a0010c0b300304f980087
:102f90001e407800be48900000c04000004f7800fe
:102fa0000aff07002e4090000080fb000000400058
:102fb0000004a0003dff07008040eb00214f980077
:102fc0000004e00002003a0010c0b300204f980057
:102fd0001e407800ae48900000c04000004f7800ce
:102fe0001e04e0000c00320000ff07001e80fb0002
:102ff000400798001d0037003eff07008040780022
:103000002e009000014878002e0090000000e8009b
:1030100020079800fdfe07008040eb0071479800f4
:103020006e409000e14f50000200360010c0b30027
:10303000704798006e4090000040e900604798009b
:10304000fe4090000104e000ebff3a0029ff07007a
:10305000804078002e00900001487800f4fe0700c0
:10306000e2fe07001e80fb00400798004e00900023
:103070000080fa00000006000200fa000040eb00a9
:10308000004f7800f2c1b30001c2b30090c6b30094
:1030900031ff07001e4f40001e80fb000080fa0039
:1030a000000006000600fa00200798000040eb0030
:1030b000004f78000e01e80081c2b30090c6b30053
:1030c00055ff07001e4f40000e81e80091c2b3007b
:1030d00090c6b30050ff07001e4f40002e409000e6
:1030e0000080fb00000040000000400000004000a5
:1030f00000004000000040000000400000004000d0
:1031000000004000800078001e4090000080fb001e
:1031100000807000800078002e0090000108780088
:103120000e01e800a1c2b30090c6b3003aff070049
:103130001e4f40000e81e800b1c2b30090c6b3003c
:1031400035ff07001e4f40002e0090000081e80070
:103150002e4090000080fb00000040000000400076
:10316000000040000000400000004000000040005f
:103170000000400000004000800078001e409000e9
:103180000080fb0000807000000978000e01e8005c
:10319000c1c2b30090c6b3001fff07001e4f40001e
:1031a0000e81e800d1c2b30090c6b3001aff070039
:1031b0001e4f40002e009000640140002e40900001
:1031c0000080fb00000040000000400000004000c4
:1031d00000004000000040000000400000004000ef
:1031e00000004000800078001e4090000080fb003e
:1031f00000807000000978001e80fb000080fa004b
:10320000000006000000fa00889fbe00350107009c
:10321000f0000700b0408000c1408000a2702d0087
:1032200033c22300bff407000002be0050418000fb
:10323000614180000001be000400be005cf4070094
:1032400082142e00a3f72300b6f407000004be008a
:10325000504180006141800002702d0033ca23007c
:10326000b0f407000001be000800be0050f40700e3
:10327000f04188000142880090408000a140800019
:10328000a2702d0033c22300a6f407000002be0086
:1032900070418000814180000001be000400be003a
:1032a00043f4070082142e00a3f723009df40700c7
:1032b0000004be00704180008141800002702d003a
:1032c00033ca230097f407000001be000800be00c7
:1032d00037f4070010428800214288001042800025
:1032e000214280006011b8005ef507000000e00098
:1032f0000100350009003700d0c2b3005dfa0700b5
:10330000104280002142800035f5070078fa07005e
:10331000b0c3b30057fa0700060037001042800020
:10332000214280002ef5070071fa0700b0c3b300f8
:1033300050fa0700d0c0b3004efa0700a0c0b30097
:103340004cfa07004f04be000080fa00000006009f
:103350000000fa00889fbe00e20007009d00070001
:10336000b0408000c1408000a2702d0033c2230015
:103370006cf407000002be00f041800001428000b2
:103380000001be000400be0009f4070082142e00f4
:10339000a3f7230063f407000004be00504180003f
:1033a0006141800002702d0033ca23005df40700e4
:1033b0000001be000800be00fdf30700f0418800d8
:1033c0000142880090408000a1408000a2702d0042
:1033d00033c2230053f407000002be0010428000f5
:1033e000214280000001be000400be00f0f307008f
:1033f00082142e00a3f723004af407000004be0045
:10340000704180008141800002702d0033ca23008a
:1034100044f407000001be000800be00e4f307000a
:103420001042880021428800f04180000142800063
:1034300057fd0700104280002142800060fd070018
:103440004f04be000080fa00000006000000fa00f1
:10345000d146800030062000808f50005b003e0087
:10346000208320000fff0700904180000000e00053
:103470000500350091418000304080000080400010
:1034800030408800070037009041800080007800bd
:1034900030408000808040000000eb000080500041
:1034a00030408800a04180000000e00005003500a9
:1034b000a1418000404080000080400040408800e2
:1034c00007003700a0418000800078004040800065
:1034d000808040000000eb000080500040408800e9
:1034e000b04180000000e00005003500b1418000df
:1034f00050408000008040005040880007003700a6
:10350000b041800080007800504080008080400002
:103510000000eb000080500050408800d046800042
:103520000000e800d0468800d0468000a2002000bd
:10353000110009000280d8008000fd000000e000ba
:1035400002003a0000df29004df80700d146800054
:1035500040062000808f50001c003a003040800060
:10356000d2468000110009000280d8000040880087
:1035700040408000d2468000110009000280d8003f
:103580001040880050408000d246800011000900a1
:103590000280d800204088000000eb00d046880060
:1035a00018ff070010c0b3002df70700100020001f
:1035b000dcf6070030df290031f80700401f20004b
:1035c000d8f6070050002000dbfc07000080fa005e
:1035d000000006000000fa0020832000b1fe070072
:1035e000904180000000e000030035009041800021
:1035f000604088000500370090418000800078001e
:103600000000eb000080500060408800a041800076
:103610000000e00003003500a041800070408800f9
:1036200005003700a0418000800078000000eb001a
:103630000080500070408800b04180000000e00031
:1036400003003500b041800080408800050037004d
:10365000b0418000800078000000eb000080500046
:103660008040880061408000004080000080500061
:10367000cf80de0022f3070092c22500f3c02300b2
:10368000a8f3070090408800a140880071408000a6
:103690001040800000805000cf80de0018f307004b
:1036a00092c22500f3c023009ef30700b0408800bb
:1036b000c140880081408000204080000080500090
:1036c000cf80de000ef3070092c22500f3c0230076
:1036d00094f30700d0408800e14088000080fa00a1
:1036e000000006001800fa00889fbe0080832000ba
:1036f000e0fc0700c1418000f0ff2000808f5000f7
:1037000016003e00c84180006140b900fcf207008d
:10371000200f9800310f98000800e00007003d00de
:1037200002002000037824002e089000be089000bc
:103730001ff30700200f9800310f98002e0890000b
:10374000be08900042722900f3b7230075f307000a
:10375000f04088000141880018003700c84180000f
:103760006140b900e6f20700000f9800110f9800c1
:103770000800e00007003d0002002000037824005c
:103780000e0890009e08900009f30700000f9800b3
:10379000110f980002002000036024000e08900022
:1037a0009e08900001f3070042722900f3b723003e
:1037b0005cf30700f040880001418800d14180009f
:1037c000f0ff2000808f500016003e00d84180009e
:1037d0006140b900caf207006007980071079800bd
:1037e0000800e00007003d000200200003782400ec
:1037f0006e009000fe009000edf207006007980058
:10380000710798006e009000fe009000427229003f
:10381000f3b7230043f307001041880021418800db
:1038200018003700d84180006140b900b4f20700a9
:1038300040079800510798000800e00007003d008d
:1038400002002000037824004e009000de0090006b
:10385000d7f20700400798005107980002002000a7
:10386000036024004e009000de009000cff20700bd
:1038700042722900f3b723002af3070010418800a1
:1038800021418800e1418000f0ff2000808f50003e
:1038900016003e00e84180006140b90098f2070040
:1038a00020079800310798000800e00007003d005d
:1038b00002002000037824002e009000be0090003b
:1038c000bbf2070020079800310798002e009000f7
:1038d000be00900042722900f3b7230011f30700e5
:1038e000304188004141880014003700e8418000e1
:1038f0006140b90082f20700008fbe000800e000be
:1039000005003d0002002000037824001e00be00d8
:10391000a7f20700008fbe00020020000360240011
:103920001e00be00a1f2070042722900f3b7230077
:10393000fcf20700304188004141880010418000be
:10394000214180000001be00f6f207000004be0025
:1039500030418000414180000001be00f1f20700cb
:103960000001be000800be0091f20700bff307008f
:103970000001be00f04080000141800001f0a20083
:10398000eff3070022ee220053262400e5f20700a1
:1039900050418800614188003041800041418000f1
:1039a0000001be00dff207000004be00f04080000e
:1039b000014180000001be00daf20700a2702d0074
:1039c00033c22300d7f207000001be000800be008a
:1039d00077f20700a5f307000001be001041800048
:1039e00021418000d6f3070022ee22005326240056
:1039f000ccf2070070418800814188004f04be006e
:083a00000080fa00000006003e
:020000040000fa
:0200000401f009
:04000000f6ff000007
:020000040000fa
:0200000401f009
:04000400ff7f00007a
:020000040000fa
:0200000401f009
:040008007fff000076
:020000040000fa
:0200000401f009
:04001400ffff0000ea
:020000040000fa
:100008007e1e00007e1e00007e1e00007e1e000078
:100018007e1e00007e1e00007e1e00007e1e000068
:100028007e1e00007e1e00007e1e00007e1e000058
:100038007e1e00007e1e00003c0800007e1e0000a0
:100048007e1e00007e1e00007e1e00007e1e000038
:100058007e1e00007e1e00007e1e00007e1e000028
:100068007e1e00007e1e00007e1e00007e1e000018
:100078007e1e0000360d00007e1e00007e1e000061
:100088007e1e00007e1e00007e1e00007e1e0000f8
:100098007e1e00007e1e00007e1e00007e1e0000e8
:1000a8007e1e00007e1e00007e1e00007e1e0000d8
:1000b8007e1e00007e1e00007e1e00007e1e0000c8
:1000c8007e1e00007e1e00007e1e00007e1e0000b8
:1000d8007e1e00007e1e00007e1e00007e1e0000a8
:1000e8007e1e00007e1e00007e1e00007e1e000098
:0800f8007e1e00007e1e0000c8
:020000040000fa
:100108007e1e00007e1e00007e1e00007e1e000077
:100118007e1e00007e1e00007e1e00007e1e000067
:100128007e1e00007e1e00007e1e00007e1e000057
:100138007e1e00007e1e00003c0800007e1e00009f
:100148007e1e00007e1e00007e1e00007e1e000037
:100158007e1e00007e1e00007e1e00007e1e000027
:100168007e1e00007e1e00007e1e00007e1e000017
:100178007e1e0000360d00007e1e00007e1e000060
:100188007e1e00007e1e00007e1e00007e1e0000f7
:100198007e1e00007e1e00007e1e00007e1e0000e7
:1001a8007e1e00007e1e00007e1e00007e1e0000d7
:1001b8007e1e00007e1e00007e1e00007e1e0000c7
:1001c8007e1e00007e1e00007e1e00007e1e0000b7
:1001d8007e1e00007e1e00007e1e00007e1e0000a7
:1001e8007e1e00007e1e00007e1e00007e1e000097
:0801f8007e1e00007e1e0000c7
:020000040000fa
:103a0800576500006c6300006f6d000065200000c2
:103a1800746f000020460000554600004f0000006b
:103a28005761000069740000206600006f72000092
:103a3800206300006f6e00006e6500006374000074
:103a480000430000686f00006f73000065200000ed
:103a5800636f00006e6e0000656300007421000053
:103a680000500000726500007373000020530000ce
:103a78007461000072740000212100002100000020
:103a8800507200006573000073200000557000003c
:103a98002100000054680000727500007374000073
:103aa800203a0000002e00002e2e00002e2e0000ce
:103ab8002e000000786f00006e67000000500000c4
:103ac8006c650000617300006520000077610000ec
:103ad80069740000002e00002e2e0000002e000049
:103ae8002e2e00002e0000002e2e000000000000e8
:103af800417200007261000079000000415400002a
:103b080000410000542b00004241000055440000d1
:103b180036000000415400002b4e0000414d0000cb
:103b280045460000554600004f0000004154000083
:103b38002b500000494e00003132000033340000a1
:103b480000000000506800006f6e00006520000053
:103b5800636f00006e6e000065630000746500000e
:103b6800642100000050000043200000636f000043
:103b78006e6e00006563000074650000642100003b
:103b8800004200006c750000657400006f6f000053
:103b980074680000206300006f6e00006e6500000e
:103ba8006374000065640000210000007661000075
:103bb8006f200000200000007175000061200000e7
:103bc800200000006463000020200000006c00005a
:103bd8006f690000000000002e2e00000078000031
:103be8006f6e000067200000726f0000690000001f
:020000040000fa
:103bf800d00800000a0000000200000000000000d9
:103c08000000000000000000000000009e08000006
:103c18001c00000000000000e4080000060000008e
:103c2800020000000000e80003280000ea08000085
:103c380006000000000000004a0800002e000000f6
:103c4800020000000000000000000000000000006a
:103c5800000000000000000000000000000000005c
:103c6800000000000000000000000000000000004c
:103c780000000000000000000000000020400000dc
:103c88000000000078080000260000000000000086
:103c9800ba08000016000000020000000000000042
:103ca800000000000000000000000000000000000c
:103cb800000000000000000000000000da0800001a
:103cc8000a000000020000000000450072726f0048
:103cd8007265640000000000000800004a0000004f
:103ce80000000000f00800000200000000000000d2
:043cf80000000000c8
:020000040000fa
:043cfc000000fe00c6
:00000001FF
