:020000040000fa
:080000000001040000000000f3
:020000040000fa
:10020000af9c200080ff200000018800000000005b
:10021000050007000c0007005c0a02000000000057
:100220000040da000000fe004440a900001a20004f
:100230000000e0000300320000002000a001880060
:100240004440a8000000060060dc220001002000fd
:100250001600370062004000e080480091018800ed
:100260009001ba0062004000e080480091018800df
:100270009002ba0062004000e08048000002eb00fb
:100280006028e10005003a008301e900070033001f
:10029000038009000059eb00040037006128e100e9
:1002a000010032000082eb00050007009101880088
:1002b0001001ba000200e000e6ff3a00000005006d
:1002c000910188008002780062004000e0804800d0
:1002d0003559ba008301e900080032002559ba00f7
:1002e0008301e900050032000400e000f4ff320061
:1002f00015d9ba008301e900f1ff3a0000000600b9
:10030000811f78000100e00002003d006000100045
:10031000e08018000300e00002003d0060011100d1
:10032000e08119007f0207004f00e00002003b005f
:1003300060001000e080180000000600839f680045
:100340000100e00002003d0060001000e0801800a5
:100350000300e00002003d0060011100e08119008f
:100360007b0107004f00e00002003b00600010002e
:10037000e080180000000600889fbe008a9fbe0033
:10038000010578000100e0000400350008003c0091
:100390000000e0002000320005003700600010007f
:1003a000e080180002003b0001f02c001a0037002a
:1003b0000004be006011b8006b0920000982cf0064
:1003c000020039000882cf000441b00069425200a7
:1003d0000e00320008003b00828171006101640060
:1003e0008904d1000884d3008b05e8000442e800aa
:1003f000f9ff3a00050037000804440089844c00e6
:100400008b05e9000442e900fbff3a0048020700bf
:100410000af0a70001f0a0004f05be004f04be0087
:1004200000000600889fbe008a9fbe008c1f7800d7
:10043000650207006c02330003866c006450e10023
:10044000240032006420e100270032006150e10006
:10045000220032006120e100210032008b85420041
:10046000eb07b1000134b800003ab80008044200bc
:1004700089844a00013ab8000030b8008880400002
:1004800009014a0004003300000040008180480058
:10049000020149008b05e900c909dd0083017000f4
:1004a0000100320013002000c814de004814dd00f3
:1004b0004709de001200b200c808de0008847000a0
:1004c0001b02070001f0a1000cf0a70001f0a00042
:1004d0004e0237006120e100500232000801be00e8
:1004e0000200be00f7ff37006150e100fcff3a0058
:1004f0004a023700889fbe008a9fbe008c1f78008a
:10050000310207003802330003866c006450e100ba
:100510002e0032006420e100330032006150e1001f
:100520002f0032006120e100310032008585550046
:10053000eb07b00009002000080420000500370088
:100540000804440089844c000a003100060343007b
:1005500087834b000001530081815b00f8ff33006b
:100560000203be000800a0000804440089844c0077
:10057000f6ff3900c639dd00830173000100320047
:10058000130020008904d1000884d3000998a30037
:10059000050032000800a7000300a0008904d10074
:1005a0000884d3008b05e8008904d1000884d300b7
:1005b0000001eb000281d200dd01070001f0a10083
:1005c0000cf0a70001f0a000100237006420e10049
:1005d000120232000801be000200be00f7ff370021
:1005e0006120e1000d0232006000b800f3ff370027
:1005f0000000200001f82700f0ff37000001be00d6
:10060000090207000470a70003f0a1006509b1000a
:10061000160032000d0035006828e10006003500a4
:10062000f0ff2f00f1ff27000300e00013003b0064
:100630000100280000000500000040008180480003
:100640008502e900fcff3a0008003700f88f4200fd
:1006500002003c008000eb00000005008100d1009a
:100660000080d3008502e800fcff3a000300e000b0
:1006700002003b0060001000e0801800000006004f
:1006800003f0a200889fbe008a9fbe008c1f7800e6
:10069000cd010700d40133006450e1004f00320067
:1006a0006420e1005200320003826c0007003b002e
:1006b0000905d0000306d000820f54000c065d002f
:1006c0000200390002003200890178000306780038
:1006d0008582550004003d000003fd008103fd00fc
:1006e0008502ea008b854200840f720002003b0005
:1006f00060001000e08018006011b8000005eb00f9
:100700007a28e1000a00390006007800c75ddd00a4
:10071000f707b200878075002d00370082817100d5
:100720000a017800610560008180d1000080d3005b
:100730008502e900f9ff3b00060440008784480079
:1007400002003b0060041400e0841c000988a30040
:10075000070032008a8171008281710061016400aa
:100760008904d1000884d3008b05e8001700370006
:100770000978a30013003a000b00e00013003400d6
:100780008b05e9000804440089844c000a44740085
:100790000978a3000d003a000b00e00007003400c8
:1007a0008b05e9000804440089844c0001003a00ec
:1007b0000b0020000978a300f7ff32000001eb00d6
:1007c00002003700828171000a0178005801070099
:1007d0000cf0a70001f0a0008c0137006420e100bc
:1007e00002003a00838f6c008c0133000801be00c8
:1007f0000200be0085013700f4ff2f009f01370083
:10080000140020009d013700889fbe008a9fbe0013
:100810008c1f78000004be00830107000478a30049
:1008200026003a006120e1002500320009f8a3000b
:1008300025003a006420e10021003200f507b100f4
:100840000508a3000200320000004000818048003b
:100850006044b800031020000200200000004000a7
:10086000818048000805440089854c000a05410044
:100870008b8549000a0550008b8558000300330022
:100880000a00be0002047400838474008301d10056
:100890000281d300830f7100f0ff3a008904d10078
:1008a0000884d3006001490082017800c1adde00f8
:1008b000fb07b0001e010700540137000960a000cb
:1008c0000800be005101370012022000424e88008d
:1008d000f0ff2f00f1ff27004c013700889fbe007a
:1008e0008a9fbe008c1f780037010700100220008d
:1008f00002003b00404e88003b0137008a00620046
:100900006408e10002003a00404e880043013700cd
:100910006108e100fcff32000800be00030478001b
:10092000f4fe070001f0a1006f01070008f0a60027
:10093000040037000001be0091042400b0fd200037
:100940004fff070009f0a70001f0a2002f013700b8
:100950006022b800060220000000d0008180d20092
:100960000482d2008582d2000000a0000202520060
:1009700083825a0003003b000202420083824a0045
:100980000000a1000603e900f3ff3a0000000600a2
:100990000c00fa00889fbe008a9fbe008c9fbe009c
:1009a000090107000206be00840578000200be00af
:1009b00002002000b101070005003a008b02b300dd
:1009c00012002000ad01070001003a00f8856d001b
:1009d0000c01be00c60007000800be009b003200ec
:1009e0000b08a3009e003a000df0a7000be0a0004a
:1009f00009f0a7000bf0a00009f0a1000801be005b
:100a0000bb0007000bf0a6009500320001003c007f
:100a10000bd0a0008acf7500b20033006000b80090
:100a20006250e10099003900a1003e000b28a300ac
:100a3000a2003a000bf8a300060032000b58a300f6
:100a4000a70032000801be00a90007000800be0090
:100a5000940032000800be00af0107000004be0091
:100a6000050578000bf0a7000b30a6000bf0a100e5
:100a70005b079800324f200053f3230060ff07000c
:100a800005003d000800be0012002000af01070075
:100a90000004be000a05e9004a0798006150b90049
:100aa00035fe0700008fbe000c01be005dfe070092
:100ab000d2fe0700300798000100e00002003d0070
:100ac00060001000e0801800f2ff2700820f500045
:100ad000e08f580064003e000c00be00c7fe070017
:100ae00020079800f2072000820f5000e08f580086
:100af00005003c0012f82f00f3ff2f00820f50007a
:100b0000838f580009003d000a00e0000300320016
:100b100001003c000201ea00020578006000b80014
:100b2000200798003a079800190037003e0090000f
:100b30006100b90010fe0700809fbe000c00be00df
:100b40004109dd004811de007208b1004b010700c9
:100b50000005be001e01be0032fe07004f01be00b0
:100b6000c7fe0700809fbe000c00be000a01be0049
:100b7000c3fe07001e01be002afe07004f01be0093
:100b8000c0fe07008221270013f3230025fe070083
:100b90000005be002e0090006100b900f6fd0700c0
:100ba00001f0a2000c01be00b6fe07000006be0068
:100bb0000800be00870107000c01be0019fe0700f7
:100bc0000a01be00affe0700809fbe004a0007007a
:100bd0002e0590000af0a7000a05ea00050037007c
:100be0000800be000801be000efe07000004be00a3
:100bf0000c00be000801be000a00a70009fe0700a5
:100c00000006be000a05d100f5ff3a005e01900023
:100c100002e0a600030037000001be003600070016
:100c200034fe07000004be004f00be00c0010700f4
:100c30000801be00fbfd07003e01900043010700d4
:100c4000de0590000bf0a70001f0a2004f06be00e9
:100c50004f05be004f04be000080fa0000000600f1
:100c600025000700f9ff3700270007006000b800e3
:100c70000bd0a7000bc0a0000be0a7000bc0a20088
:100c80000bc0a70001f82700f0ff37000df8a30004
:100c9000020032001e000700190007000bf8a30035
:100ca000eaff32000b30a70001f0a200e7ff370097
:100cb0000df8a300f9ff3a00f7ff37000801be0066
:100cc0000b000700e6ff320001003c000df0a2001f
:100cd0006000b8000df0a70009000700dbff370037
:100ce0000b000700f1ff2700f0ff2f00d7ff3700b0
:100cf00001000700c2fe370001f8230000000500d4
:100d000001f8270000000500200220000100370044
:100d100010022000404e8800000006000400200061
:100d2000560037000aff07000400be00000006005e
:100d300081002000618055000b003d000b00200069
:100d400061fe2f000100e1001d003400828171006e
:100d5000610164008904d1000884d3000000e80028
:100d6000faff3a0071002000610064000300700087
:100d7000020060000900320061044400e0844c007d
:100d80000988a500050032008b05e8006808e1002d
:100d900002003a008904d1000884d300f20f200039
:100da0000258e10005003d00c75ddd00f907b20013
:100db0008980750008007800000006000bf8270005
:100dc0008b007800000005000004be00160007003c
:100dd0000003be000405be000200be0012000700b2
:100de000844f7500000006000200be006450e10060
:100df000050036006420e100020036000968a30007
:100e000001003a000800be000160a0004f06780013
:100e10004f05be004f04be0000000600f0ff2f008b
:100e2000f1ff2700f9ff3700c70ade00f107b20023
:100e3000f50fb20008003200e1cf4200020032009c
:100e40000170a00024000500810f70000100320035
:100e50000408050044000500810f700002003a00fc
:100e6000140005008502e9000000400081c0480030
:100e7000fcff3b000170a00024000500889fbe001d
:100e80008a9fbe00841f7800cfff07004f007800c4
:100e900011003300f0ff2f00838f6c0006003b0031
:100ea000040565000a00a7000800370009f0a60045
:100eb0001000200008003700820f5400838f5c0070
:100ec000030039001000200001003e000000200057
:100ed00009f0a7000000ea004f05be004f04be0065
:100ee0000000e00000000600889fbe008a9fbe0050
:100ef0008c9fbe000004be00cbff07000800be00b0
:100f0000890678006420e1000800390004003200fe
:100f10000160a00012022000424e880053003700fa
:100f200091fc2300b0fd20004e0037000006eb00ce
:100f300009f0a10003f82300020020000800be0011
:100f40002ffe07000600340001f8230000002000f7
:100f50000801be0067fd07000004be002c00200051
:100f60000800be0093e82300320a230024fe070095
:100f7000120034000801be00d1fd2300703d2b009b
:100f8000c0fd07000005be00b3f32300f27a26007f
:100f90000800be0023fd070003f823000200200024
:100fa000b7fd07000801be00b6fd07000a01be003c
:100fb00050fd07000004be000c06e8000800be005b
:100fc00001f0a10002002000039823000cfe07009e
:100fd0000800be00160035000801be0011fd070024
:100fe0000005be0032cd2c0043fb2300a5fd070009
:100ff000809fbe001269280003d52b000a00be00a6
:1010000008fd0700620f210013ef2b009dfd070074
:101010000a01be0003fd07004f01be0035fd0700b9
:101020000801be00fffc07000801be0095fd070097
:101030000c00e0000b0032000c10a70001f0a20031
:10104000b2fd200093fc23006260e1000400320046
:1010500022a9200063f023000c10a70063f82300ee
:1010600088fd07000df0a70001f0a2004f06be00aa
:101070004f05be004f04be0000000600889fbe0062
:101080008a9fbe000003be0067ff07008505780049
:1010900082815200020020006220e10004003a0038
:1010a000f307b100040035007718e10004003500b3
:1010b0000600be00140037006000b8000f003700c3
:1010c000f50f2000faff2f008502d1000a85d3001a
:1010d0008301e900fcff3b0081846200000465009d
:1010e000890f7400f2ff32008582ea000a85ea0067
:1010f00081846200000465000dff070007f0a7006f
:1011000001f0a0000081eb000200e0004f05be00ee
:101110004f04be00000006000003be0042ff0700af
:101120006220e100020032000600be00050005005a
:10113000e507b100f107b20004f0230084807000dd
:1011400007f0a70001f0a000240005000003be0086
:1011500035ff07006220e100020032000600be00f9
:101160000000060085024100e30f20000328e10093
:1011700005003c00a3fe2f000328e10007003d000e
:101180000500200001003700f50f2000200220009c
:10119000404e88006000b8000800370013002000af
:1011a0008381520005003d008100d1000080d30002
:1011b0008301e800fcff3a0005002000c72add009b
:1011c000f107b2008580700007f0a70001f0a000d1
:1011d00000000600889fbe008a9fbe008c9fbe0054
:1011e000cdff0700850478000005be006420e10003
:1011f00049003e006220e100030032000900350092
:101200000bf8a300440032000bf8a30008003200e2
:1012100010022000404e8800f0ff2f00f1ff270051
:101220003d00370001f82f00000020003a00370091
:101230003d00070012fd07000006be000a00be00c8
:10124000324f200053f323006bfd070006003400eb
:101250000c00be003400070009fd07000006be00b8
:101260000a00be00020037008904e9000c00be003d
:101270002d0007006bfc07002b00070001fd070095
:101280000001be000c00be009afc07000005be0075
:101290000001be0063fc07000006be00a2f32300ad
:1012a000430d2c00f7fc0700809fbe000c00be0021
:1012b000d2e32700d3f02b005afc07004f01be00f9
:1012c0008cfc07000006be000a01be0055fc0700aa
:1012d0000a01be00ebfc07000006be006148b90031
:1012e00025fc07000005be0032082800e3952b000e
:1012f0004cfc07000c01be00e2fc07000006be002b
:101300000a00be000200280013f3230045fc07007a
:101310000c01be00dbfc07004f06be004f05be00ff
:101320004f04be000000060003f023000200050089
:10133000889fbe008a9fbe008c9fbe000004be0036
:10134000b9fe07000800be006420e10048003e002e
:101350005500320072212700132b240026fd0700c0
:1013600047003c000800be00c2ec2800e32c2c0023
:1013700023fd0700470035000800be0001f0a10072
:1013800002002000033823001dfd07004300350044
:101390000800be00b2a32a0083fb230021fc070043
:1013a0000200200003f0230001f0a70003f0a000da
:1013b000b4fc070091fc07000005be00eefb07002f
:1013c00001f0a2000006be000200280013f3230073
:1013d00014fc07000801be00aafc0700809fbe00a5
:1013e0000c00be0032082800e3952b000dfc07001e
:1013f0004f01be00a3fc07000006be000001be00b6
:1014000008fc0700809fbe004241250083b82300ee
:1014100004fc07000200200003e8230099fc0700f9
:101420000c01be00fffb07000006be004f00be001f
:10143000f2f92b00c3d42300fafb070002002000be
:1014400003f023008ffc07000c01be008cfc07009a
:101450000001be000c00be0026fc070002002000b8
:1014600003f0230087fc07006101450037ff0700f8
:101470004f06be004f05be004f04be000000060030
:1014800001f827000000200022022000424e8800c0
:10149000f7ff37006000b800fbff370001f82300ba
:1014a00000002000f2ff370009f8a300f0ff32002f
:1014b0006000b800eeff37000200fa0000003700bd
:1014c000d7080700904c8800904c8000000f7800ef
:1014d0001e007800e30f50002d0032001e0078003f
:1014e000e30f500007003e001e007800e10f50009f
:1014f000130032001e007800e10f50001e003e0075
:101500000d0037001e007800e50f50003600320055
:101510001e007800e50f5000230039001e007800ff
:10152000e60f5000360032001e007800e70f500032
:101530003a003200e2ff37003e000700e0ff3700cc
:1015400010c0b3002701070060cf2a002d0207005a
:10155000a0002000d400070000ccb3002101070048
:1015600060d02a002702070048050700100020006d
:1015700069080700d2ff370010c0b3001901070047
:1015800070d12a001f02070020050700ccff37009a
:1015900010c0b3001301070070d22a00190207001f
:1015a0004c050700c6ff3700980b0700df04070053
:1015b000004d8800004d80000000e800004d8800cc
:1015c000014d800010032000808f50000200340085
:1015d00020032000004d8800004d8000d704070044
:1015e000e7040700b6ff370010c0b300fd00070096
:1015f00050d32a00030207004d050700b0ff370053
:10160000104d80000000e000adff3a0061050700ca
:10161000d0040700104d8800a9ff37001fe1a90082
:10162000c1e1a90011e1a9003000200080080700f5
:10163000a3ff37000000fa00c0000700a000200050
:1016400099000700cc000700a000200096000700ca
:10165000f0d32a00eb01070000ccb300e100070043
:10166000a2020700800c20008f000700b0d42a00df
:10167000e4010700401f20008b000700f0d42a007f
:10168000e0010700b9030700800c20008600070076
:10169000b0d42a00db0107008e090700800c20006f
:1016a0008100070040d52a00d6010700ca080700bc
:1016b000800c20007c00070040d52a00d1010700e3
:1016c0005b0a0700800c200077000700b0d42a00d6
:1016d000cc010700440d0700800c200072000700b9
:1016e000b0d42a00c7010700050007001a00070050
:1016f000100020004e0807000080fa0000000600dd
:101700000000fa00710920009140780080cfb300fa
:1017100000c060006040b30097e0b70001112000f6
:1017200091407800f0ccb30000c060000044a000fd
:1017300010e1b7000000eb003008880000e2240050
:101740006008880084c0a9008cc0a80011e1a9002d
:101750000080fa00000006000000fa0021112000bd
:1017600091407800f0ccb30000c060000044a000bd
:1017700012e1b7000000eb005008880013e1a80058
:101780000080fa00000006003600f800809fbe00ce
:10179000829fbe00849fbe00869fbe003400f8007a
:1017a00000c0b300a00188000000fa0084c0a900b6
:1017b000504d80000000e800504d8800604d8000d2
:1017c0000000e800604d88000000eb003008880051
:1017d0006b040700104d8000e10f500013003a0029
:1017e000db02a800f04c80000000e800f04c88000c
:1017f000f14c800020032000808f50000b003a0045
:101800000000eb00f04c88000000eb00104d880059
:10181000dbc2bf00614060000004e0000200320053
:10182000db02a90001003700db02a800b6070700b1
:101830000000e00012003a00304d80000000e80097
:10184000304d8800314d8000800c2000808f50008a
:101850000d003a000000eb00304d88000000eb0066
:10186000b70707000000eb00bb0707006000b800e7
:101870003c04070070002000ed070700020037005d
:101880000000eb00304d88000080fa003400f900c1
:101890004f03be004f02be004f01be004f00be000e
:1018a0003600f900004006000200fa00000f780040
:1018b00005e1a800060037000000eb0000088800e2
:1018c00001088000f0e72300808f5000fcff360005
:1018d0001e0fe9000080eb009e0f1000f6ff3a009b
:1018e00005e1a9000000eb00000888000080fa0074
:1018f000000006000200fa00000f780005e1a800d1
:10190000050037000000eb00000888000008800098
:10191000ef0f5000fdff36001e0fe9000080eb00c6
:101920009e0f1000f7ff3a0005e1a9000000eb0050
:10193000000888000080fa00000006000000fa009d
:10194000ca42a900ca62a900ca82a900caa2a90003
:10195000c642a900c662a900c682a900c6a2a90003
:10196000ca22a900c622a900ca02a900c602a9006b
:101970000080fa00000006000000fa0020c0b3005a
:101980001800070010002000c7ff070080c2b30046
:101990001400070010002000c3ff070080c0b30040
:1019a0001000070010002000bfff070060c0b30058
:1019b0000c00070010002000bbff0700f0c0b300c0
:1019c0000800070010002000b7ff070010c0b30098
:1019d0000400070050002000b3ff07000080fa0059
:1019e000000006000200fa00004f7800ca02a900b9
:1019f0009e80fb0000082000008060004780de0021
:101a000061406000614060000040400000404000d4
:101a1000004040000040400000414000a12c200058
:101a200091407800f0cdb30000c06000024070002b
:101a3000cae2b7009e80fb00000420000080600026
:101a40004680de0061406000614060000040400070
:101a5000004040000040400000414000a12c200018
:101a600091407800f0ceb30000c0600002407000ea
:101a7000cae2b7009e80fb000002200000806000e8
:101a80004580de0061406000614060000040400031
:101a90000040400000414000a12c2000914078000f
:101aa00070cfb30000c0600002407000cae2b7000f
:101ab0001e80fb00700060004480de00614060001a
:101ac000614060000040400000414000a12c200027
:101ad00091407800b0cfb30000c0600002407000b9
:101ae000cae2b700ca22a8004001200081ff070017
:101af000ca22a9001e80fb00680060004380de004f
:101b000061406000614060000040400000404000d3
:101b1000004040000040400000414000a12c200057
:101b200091407800f0cdb30000c06000024070002a
:101b3000cae2b7001e80fb00640060004280de0045
:101b40006140600061406000004040000040400093
:101b50000040400000414000a12c2000914078004e
:101b6000f0ceb30000c0600002407000cae2b700cf
:101b70001e80fb00620060000080d10061406000b8
:101b800061406000004040000040400000414000d3
:101b9000a12c20009140780070cfb30000c06000fd
:101ba00002407000cae2b7009e40780061c0600049
:101bb00061406000614060006140600000404000a2
:101bc00000414000a12c200091407800b0cfb3002c
:101bd00000c0600002407000cae2b700ca22a8003c
:101be0004001200043ff0700ca22a9000080fa003c
:101bf000000006000200fa00004f7800ca02a800a8
:101c00009e80fb0000082000008060004780de000e
:101c100061406000614060000040400000404000c2
:101c2000004040000040400000414000a12c200046
:101c300091407800f0cdb30000c060000240700019
:101c4000cae2b7009e80fb00000420000080600014
:101c50004680de006140600061406000004040005e
:101c6000004040000040400000414000a12c200006
:101c700091407800f0ceb30000c0600002407000d8
:101c8000cae2b7009e80fb000002200000806000d6
:101c90004580de006140600061406000004040001f
:101ca0000040400000414000a12c200091407800fd
:101cb00070cfb30000c0600002407000cae2b700fd
:101cc0001e80fb00700060004480de006140600008
:101cd000614060000040400000414000a12c200015
:101ce00091407800b0cfb30000c0600002407000a7
:101cf000cae2b700ca22a80040012000fdfe07008a
:101d0000ca22a9001e80fb00680060004380de003c
:101d100061406000614060000040400000404000c1
:101d2000004040000040400000414000a12c200045
:101d300091407800f0cdb30000c060000240700018
:101d4000cae2b7001e80fb00640060004280de0033
:101d50006140600061406000004040000040400081
:101d60000040400000414000a12c2000914078003c
:101d7000f0ceb30000c0600002407000cae2b700bd
:101d80001e80fb00620060000080d10061406000a6
:101d900061406000004040000040400000414000c1
:101da000a12c20009140780070cfb30000c06000eb
:101db00002407000cae2b7009e40780061c0600037
:101dc0006140600061406000614060000040400090
:101dd00000414000a12c200091407800b0cfb3001a
:101de00000c0600002407000cae2b700ca22a8002a
:101df00040012000bffe0700ca22a9000080fa00af
:101e0000000006000400fa0010079800a00020005f
:101e1000a5fe07000000eb00000f78000900370066
:101e20001e007800800078001e00900000804000b6
:101e3000104078001e0fe8006eff07001000200021
:101e400099fe07001e007800800078001e009000b8
:101e500000804000104078000004e000f0ff3a00ed
:101e60000080fa00000006000a00fa00400798000f
:101e70000e80e80081d52a0005000900315878005d
:101e80006000b1006100b1000000eb00000f7800bd
:101e9000110037009e0178004e009000a200200043
:101ea000110009000280d8008000fd0002c3b300c9
:101eb000824040000e80e800008041000148780028
:101ec0001e0fe8004e009000a20020001100090043
:101ed0000280d800400798004e0090000000e0000b
:101ee000ecff3a00080037001e0fe9009e00780062
:101ef0000e80e80000804000104078003dff0700a1
:101f00001000200068fe07001e00e000f6ff3c0005
:101f10000080fa00000006001400fa00100f98007c
:101f20000000eb00000f7800110037009e017800e0
:101f30001e089000a2002000110009000280d800b5
:101f40008000fd0002c3b300824040000e80e80024
:101f500000804100014878001e0fe8001e08900034
:101f6000a2002000110009000280d800100f980084
:101f70001e0890000000e000ecff3a000800370067
:101f80001e0fe9009e0078000e80e80000804000ef
:101f90001040780017ff07001000200042fe0700e5
:101fa0001e00e000f6ff3c000080fa000000060082
:101fb0001600fa00881f7800100f9800210f980073
:101fc0000000eb00000f78001e089000ae089000a3
:101fd000e00f5000e08f580018003d00d0c2b30061
:101fe00004ff0700100020002ffe07001300370039
:101ff0001e0478001e089000ae089000a200200089
:1020000003002000bef807000043b00080407800c5
:102010000e80e80000004400014878001e0fe80030
:102020001e089000ae089000a200200003002000cf
:10203000c2f80700100f9800210f98001e089000aa
:10204000ae089000a200200003002000acf80700ba
:10205000e00f5000e08f58000e0035001e08900081
:10206000ae089000e00f5000e08f5800e0ff3c0009
:10207000080037001e0fe9009e0078000e80e8007f
:102080000080400010407800dafe070010002000b9
:1020900005fe07001e00e000f6ff3c004f0478003c
:1020a0000080fa00000006000000fa000000eb00cb
:1020b000e01688000000eb00c01688000080fa00df
:1020c000000006000200fa00000f78001e007800f1
:1020d000e04d88000080fa00000006000000fa00d1
:1020e000e04d80000080fa00000006000000fa00c9
:1020f00000712200f04d8800f04d8000cf80de009e
:102100009df8070002002000833c2400c5f807006a
:1021100002002000a3472400f6f8070037f9070063
:10212000004e8800004e8000e04d8800deff070072
:102130000600070028000700c1e1a800daa2a800f5
:102140001fe1a8000080fa00000006000000fa006d
:10215000f04d80000000e900200e8800f0702000a3
:10216000400e880000f02f00a00e8800c1a1a90039
:10217000c0c1bf006f406000c0e1b700011c20007b
:102180009140780030cfb30000c060000024a00070
:10219000c0e1b700011c200091407800c0cfb3001f
:1021a00000c06000c0e1b700004e800000004000a9
:1021b000b00e8800004e800000004000c00e880075
:1021c000004e800000004000d00e8800c1e1a90050
:1021d0000080fa00000006000000fa00e10920007b
:1021e0009140780000c7b30000c070009ee0b700c7
:1021f000e111200091407800f0ccb30000c06000f5
:102200000044a0001ee1b7000000eb00a008880019
:10221000e14d80004f08de00010040000080d10049
:10222000d008880086a0a9008ea0a8001fe1a90000
:102230000080fa00000006000600fa00000f780097
:102240001107980022079800214e80001e00780098
:102250000088b90080007800004e80008080400037
:102260001e009000808040002e0090008080400082
:10227000204e80000080400000004000b00e88002a
:102280000080fa00000006000600fa00000f780047
:102290001107980022079800214e80001e00780048
:1022a0000088b90080007800004e800080804000e7
:1022b0001e009000808040002e00900000804000b2
:1022c00000004000c00e88000080fa0000000600f8
:1022d0000600fa00000f7800110798002207980006
:1022e000214e80001e0078000088b9008000780030
:1022f000004e8000808040001e00900080804000e2
:102300002e00900080804000204e80000080400021
:1023100000004000d00e88000080fa000000060097
:102320000600fa00000f78001107980022079800b5
:10233000214e80001e0078000088b90080007800df
:10234000004e8000808040001e0090008080400091
:102350002e00900000814000204e80006700b900f0
:1023600000004100e04d88000080fa0000000600f7
:10237000809fbe00821f78003400f80000c0b300c8
:10238000a00188000000fa000000eb00a00888000f
:10239000f14d80004f08de00010040000080d100b8
:1023a00000017800e14d80004f08de000100400090
:1023b0000080d1000000510080007800d00880002b
:1023c000808f500007003a00e14d80004f08de008a
:1023d000010040000080d100d0088800daa2a800e7
:1023e0000c003700f14d80004f08de000100400076
:1023f0000080d10000017800e14d80004f08de0030
:10240000010040000080d10000005100d008880089
:10241000daa2a90086a0a9000080fa003400f90021
:102420004f0178004f00be00004006000200fa0095
:10243000000f7800e0d52a006a00070010d62a00b5
:1024400068000700a0d62a006600070060d72a00af
:10245000640007000080fa00000006000400fa0093
:102460001007980010c0b3005efd07000000eb00ed
:10247000000f7800090037001e0078008000780007
:102480001e00900000804000104078001e0fe80001
:10249000d8fd07001000200003fd070010002000f9
:1024a0009e0f1000f4ff3400090037001e00780072
:1024b000800078001e0090000080400010407800ee
:1024c0001e0fe800cbfd070010002000f6fc0700ff
:1024d000800020009e0f1000f4ff340000ccb300f9
:1024e00040fd070010002000effc07000900370046
:1024f0001e007800800078001e00900000804000e0
:10250000104078001e0fe800bafd07001000200000
:10251000e5fc0700100120009e0f1000f4ff3400be
:10252000090037001e007800800078001e0090002f
:1025300000804000104078001e0fe800adfd07004d
:1025400010002000d8fc0700900120009e0f100012
:10255000f4ff340010c0b30022fd0700100020007b
:10256000d1fc07000080fa00000006000000fa001d
:102570000040280060108800004020007010880093
:102580008109200091407800f0c8b30000c06000cd
:1025900001c3b3000140700098e0b7008540a90076
:1025a0008d40a9008520a9008d20a9008000200071
:1025b000a01088000080fa00000006000200fa0067
:1025c000004f78001e80fb00801088000fc2bf0003
:1025d000614060000004e000fcff32000080fa006f
:1025e000000006000400fa00100798000000eb004d
:1025f000000f7800070037001e0078008000780088
:102600001e00900000804000104078001e0fe8007f
:10261000eaff07001e007800800078001e0090008e
:1026200000804000104078000004e000f2ff3a0013
:102630000080fa00000006000c00fa005007980025
:102640000000eb00000f78005e0090000000e0004a
:102650001f003d00de0090000080eb000088b90004
:10266000500798001a003700300020009e0f10001d
:1026700006003a009e0078000e80e800808040004e
:10268000e0c2b300804878001e0fe8009e01780089
:102690005e009000a2002000110009000200d80096
:1026a0008000fd000043b000804078000e80e8000c
:1026b00000804100014878001e0fe8005e00900095
:1026c000a2002000110009000200d8005007980065
:1026d0005e009000a2002000110009000200d80056
:1026e0008000fd000000e0000a0035005e00900060
:1026f0000000e000dcff3c00060037009e00780090
:102700000e80e8008080400000c3b300804878005d
:102710001e0fe800600020009e0f1000f7ff34003d
:102720000e80e800b040900000c3b30080cf50009e
:102730000a003a008e80e800e0c2b300b040980082
:10274000060037001e0fe9009e0078000e80e800aa
:10275000008040001040780098ff07001e00e00055
:10276000f8ff3c000080fa00000006000e00fa00ae
:10277000881f780050079800610798000000eb0060
:10278000000f78005e009000ee009000e00f500017
:10279000e08f58002c003d00de0090000080eb0030
:1027a000000ab800de0090000080eb000088b9004d
:1027b0000501780000014100ee0090000080eb0070
:1027c0000088b90000014100820278005407980097
:1027d000650798001c003700300020009e0f100095
:1027e00006003a009e0078000e80e80080804000dd
:1027f000e0c2b300804878001e0fe8001e04780095
:102800005e009000ee009000a20020000300200077
:10281000bbf607000043b000804078000e80e8005f
:1028200000004400014878001e0fe8005e009000a0
:10283000ee009000a200200003002000bff6070079
:1028400050079800610798005e009000ee0090002d
:10285000a200200003002000a9f60700e00f5000ae
:10286000e08f58000c0035005e009000ee009000f4
:10287000e00f5000e08f5800d7ff3c000600370003
:102880009e0078000e80e8008080400000c3b30006
:10289000804878001e0fe800600020009e0f1000a6
:1028a000f7ff34000e80e800b040900000c3b30092
:1028b00080cf50000a003a008e80e800e0c2b300ea
:1028c000b0409800060037001e0fe9009e00780017
:1028d0000e80e800008040001040780037ff0700bd
:1028e0001e00e000f8ff3c004f0478000080fa0072
:1028f000000006000200fa000ec2bf006140600046
:102900000004e00004003200901080000080fb0012
:10291000000f78000200370000022000000f78004e
:102920001e0078000080fa00000006000000fa0097
:10293000104080000080fa00000006000200fa004b
:10294000000f78001e007800104088000080fa0018
:10295000000006000000fa00504780000080fa00e6
:10296000000006000400fa00008fbe001e00be003a
:10297000a0468800b14688000080fa0000000600ea
:102980000000fa00e0458000e10f500009003a0025
:102990000600200007f823000400200005f82b00a3
:1029a0006011b80000002000011a2c004b01070044
:1029b00014003700f0458000e10f500009003a0094
:1029c0000600200007f823000400200005f82b0073
:1029d0006011b80000002000011a24003f01070028
:1029e00008003700d0428000e14280000003be00b2
:1029f0000400200005f82b006011b8006000b8004a
:102a0000360107000080fa00000006000000fa000e
:102a1000b8ff0700d8e8b700818d2000914078000a
:102a2000e0c6b30080cf500009003a00300020001b
:102a30007f03070010c0b300eafb070020d82a007c
:102a4000f0fc0700401f200097fb07000d00370037
:102a5000818d20009140780030c6b30080cf5000b7
:102a600008003a00300020007103070010c0b300d6
:102a7000dcfb070030d92a00e2fc0700401f2000e1
:102a800089fb07000080fa00000006000000fa0041
:102a900098ff0700d8e8b700818d200091407800aa
:102aa00080c6b30080cf500008003a00200020000c
:102ab0005f03070010c0b300cafb070010da2a004a
:102ac000d0fc0700401f200077fb07000080fa00c1
:102ad000000006000000fa0086ff0700d8e8b700f3
:102ae000818d20009140780060c6b30080cf5000f7
:102af00007003a00ea020700f8020700d5020700c3
:102b0000400020004a030700db02a800060037004f
:102b100000ccb300b3fb070060db2a00b9fc070060
:102b20000000eb00504788000080fa00000006001b
:102b30000000fa00c70207006eff0700d8e8b700e0
:102b40008520a900818d200091407800f0c6b30057
:102b500080cf50000d003a00db02a8000000eb001f
:102b6000c042880011e1a800600020003003070087
:102b700090c7b30091fe0700d0c0b3008ffe0700de
:102b8000a0c0b3008dfe0700db02a9000080fa00a0
:102b9000000006000000fa000000eb00de02070063
:102ba00054ff0700d8e8b7008520a900818d2000d8
:102bb00091407800f0c6b30080cf50000c003a007e
:102bc000f0428000014380000200200003f823004f
:102bd000acf60700f0428800014388001000200096
:102be0005047880010002000cb020700b2003700d9
:102bf000818d20009140780000c7b30080cf500045
:102c00000c003a00f04280000143800002002000e6
:102c100003f823009af60700f04288000143880079
:102c2000100020005047880010002000ba02070062
:102c3000a1003700818d20009140780070c7b3005b
:102c400080cf50000f003a008202070010002000e1
:102c500020468800a0428000b1428000d2cc2c00e7
:102c6000c3dc230087f60700a0428800b142880039
:102c7000100020005047880010002000a602070026
:102c80008d003700818d20009140780030c7b3005f
:102c900080cf50000f003a006e02070010002000a5
:102ca00030468800a0428000b1428000d2cc2c0087
:102cb000c3dc230072f60700a0428800b1428800fe
:102cc00010002000504788001000200092020700ea
:102cd00079003700818d20009140780010c6b30044
:102ce00080cf50000f003a005a0207001000200069
:102cf000e04588008042800091428000d2cc2c00c8
:102d0000c3dc23005ff60700804288009142880000
:102d10001000200050478800100020007e020700ad
:102d200065003700818d20009140780040c6b300d7
:102d300080cf50000f003a0046020700100020002c
:102d4000f04588008042800091428000d2cc2c0067
:102d5000c3dc23004af607008042880091428800c5
:102d60001000200050478800100020006a02070071
:102d700051003700818d200091407800e0c6b300fb
:102d800080cf50000e003a0010002000004688005e
:102d9000f042800001438000d2cc2c00c3dc230031
:102da00038f60700f0428800014388001000200038
:102db0005047880010002000570207003e003700ef
:102dc000818d200091407800b0c6b30080cf5000c4
:102dd0000e003a001000200010468800f0428000eb
:102de00001438000d2cc2c00c3dc230024f6070072
:102df000f0428800014388001000200050478800fe
:102e000010002000440207002b003700818d2000b5
:102e10009140780060c6b30080cf50001a003a009d
:102e20001000200050478800100020003a020700e0
:102e3000db02a8003e020700e10f50000d003a003f
:102e40000000eb003e0207000000eb00420207001a
:102e50006000b800c3fe0700700020007402070085
:102e600030c5b300d5fd070030c5b300d3fd070062
:102e70001100370010002000310207001000200070
:102e8000350207000c003700818d2000914078004a
:102e900090c7b30080cf500005003a00100020001a
:102ea00050478800100020001b0207000200370076
:102eb0000000eb00504788006000b80060428800c6
:102ec00071428800f0428000014380002048880061
:102ed000314888000080fa00000006001000fa0067
:102ee000008fbe002207980033079800440798001f
:102ef0005507980066079800770798000c020700ae
:102f0000e10f500009003a00e50407006e0390004d
:102f1000fe0390004e029000de0290002e01900011
:102f2000be0190001e00be005100070080468000d8
:102f3000914680004246800053468000d1f507004c
:102f4000aef5070020408800604680007146800092
:102f50004246800053468000c9f50700a7f50700e8
:102f60003040880040468000514680008246800004
:102f700093468000c2f50700a0f507004040880096
:102f8000604680007146800001f0a2004246800049
:102f900053468000baf5070098f5070050408800b6
:102fa000a0468000b146800002002000a347240014
:102fb00011f607000000e00001003d0004003700aa
:102fc00000002000a1472400a0468800b1468800e8
:102fd000a0468000b14680006011b80008f60700e6
:102fe0000000e00001003400030037006000b8007a
:102ff000a0468800b1468800a0468000b146800007
:103000007ef507000001780021408000104080001c
:1030100089fc0700a0468000b146800077f50700d4
:1030200000017800314080001040800096fc0700cd
:10303000a0468000b146800070f5070000017800ce
:103040004140800010408000a1fc0700a0468000a5
:10305000b146800069f5070000017800514080000a
:1030600010408000aefc07000080fa00000006005f
:103070003000fa00001798001117980022179800e6
:103080003317980044179800551798006617980052
:103090007717980003020700600f9800710f9800df
:1030a0000c020700400f9800510f9800150207000e
:1030b000200f9800310f98001e020700000f9800a3
:1030c000110f980027020700600798007107980009
:1030d000300207004007980051079800e9090700ef
:1030e00020079800310798002e009000be00900045
:1030f000c0478800d14788006e089000fe08900005
:103100004042880051428800f24280000343800020
:1031100000002000010a2400809fbe00829fbe00a4
:1031200006002000871224006e029000fe0290002c
:103130006e099000fe0990000e1090009e10900005
:1031400083000700e88757006046880071468800c2
:103150006000b80080468800914688006000b80092
:10316000404688005146880081010700e10f500069
:1031700002003a000000eb00770107006000b80091
:10318000a0468800b146880040428000514280003d
:103190006011b8009af507000000e000010035005a
:1031a00002003700d0c2b30004fd07004042800097
:1031b0005142800011f507001ffd070090c0b300c9
:1031c000fefc070060428000714280006011b80080
:1031d0008bf507000000e000010035000200370019
:1031e000d0c2b300f5fc070060428000714280004d
:1031f00002f5070010fd070090c0b300effc0700c8
:1032000020488000314880006011b8007cf507003c
:103210000000e0000100350002003700d0c2b3001a
:10322000e6fc0700204880003148800002002000b2
:10323000832c24007bf40700f0f40700fefc070059
:1032400090c0b300ddfc0700d0c0b300dbfc07007a
:10325000a0c0b300d9fc07000080fa0000000600ff
:103260001000fa00008fbe00220798003307980074
:10327000440798005507980066079800770798005c
:103280002e019000be0190001e00be00fcf407005d
:10329000c0408800d14088004041800051418000fa
:1032a000c2408000d3408000f6f40700404188000f
:1032b00051418800c0408000d14080006e019000e4
:1032c000fe01900057f407006040880071408800bc
:1032d00040418000514180003eb99700ceb997002f
:1032e00050f40700a2702d0033c223004df40700f4
:1032f00080408800914088004e019000de019000df
:103300001eb89700aeb8970046f4070001f0a2007f
:10331000a0408800b140880060408000714080007b
:103320008240800093408000d6f40700a2408000d5
:10333000b3408000d3f40700d0468800e1468800ff
:10334000d0468000e14680000080fa0000000600c0
:103350001000fa00008fbe00220798003307980083
:10336000440798005507980066079800770798006b
:103370002e019000be0190001e00be00c0f40700a8
:10338000e0408800f1408800604180007141800089
:10339000e2408000f3408000baf4070060418800fa
:1033a00071418800e0408000f14080006e01900093
:1033b000fe0190001bf40700604088007140880007
:1033c00060418000714180003eb99700ceb99700fe
:1033d00014f40700a2702d0033c2230011f407007b
:1033e00080408800914088004e019000de019000ee
:1033f0001eb89700aeb897000af4070001f0a200cb
:10340000a0408800b140880060408000714080008a
:1034100082408000934080009af40700a240800020
:10342000b340800097f40700f04688000147880009
:10343000f0468000014780000080fa00000006008e
:103440001000fa00008fbe00220798003307980092
:10345000440798005507980066079800770798007a
:103460002e019000be0190001e00be0084f40700f3
:103470000041880011418800804180009141800016
:1034800002418000134180007ef4070080418800e3
:103490009141880000418000114180006e01900040
:1034a000fe019000dff30700604088007140880053
:1034b00080418000914180003eb99700ceb99700cd
:1034c000d8f30700a2702d0033c22300d5f3070004
:1034d00080408800914088004e019000de019000fd
:1034e0001eb89700aeb89700cef3070001f0a20017
:1034f000a0408800b140880060408000714080009a
:1035000082408000934080005ef40700a24080006b
:10351000b34080005bf40700104788002147880013
:1035200010478000214780000080fa00000006005c
:103530001000fa00008fbe002207980033079800a1
:103540004407980055079800660798007707980089
:103550002e019000be0190001e00be0048f407003e
:1035600020418800314188002e009000be0090006c
:10357000c0418800d1418800a0418000b141800055
:1035800022418000334180003ef40700a0418800c2
:10359000b141880020418000314180004e019000ff
:1035a000de0190009ff307006040880071408800b2
:1035b000a0418000b14180006e019000fe019000aa
:1035c00098f30700a2702d0033d2230095f3070073
:1035d0008040880091408800e0418000f1418000f7
:1035e000c2418000d341800025f407003eb9970016
:1035f000ceb997008bf3070002002000831c240043
:1036000088f30700a0408800b1408800c0418000d6
:10361000d1418000e0418800f14188006040800095
:1036200071408000824080009340800015f40700c4
:10363000a2408000b340800012f4070000428800de
:103640001142880000428000114280000080fa0090
:10365000000006000000fa000000eb00c0458800f2
:103660000000eb00d04588000000eb00e04588003a
:103670000000eb00004688000000eb00f0458800e9
:103680000000eb00104688000000eb002046880098
:103690000000eb00304688000080fa0000000600c1
:1036a0000000fa006000b8004046880051468800db
:1036b0006000b80060468800714688006000b8006d
:1036c00080468800914688006000b800a0468800c7
:1036d000b14688000080fa00000006000000fa00f1
:1036e0000000eb00204088000000eb003040880024
:1036f0000000eb00404088000000eb0050408800d4
:103700000080fa00000006000000fa00304e800041
:103710000080fa00000006000200fa00000f7800a6
:103720001e007800304e88000080fa00000006007d
:103730000000fa00a04b80000080fa0000000600a4
:103740000200fa00000f78001e007800a04b8800ed
:103750000080fa00000006000200fa00000f780066
:103760001e007800b04b88000080fa0000000600c0
:103770000000fa00b04b80000080fa000000060054
:103780000200fa00000f78001e007800604b8800ed
:103790000080fa00000006000000fa00604b800084
:1037a0000080fa00000006000200fa00000f780016
:1037b0001e007800704b88000080fa0000000600b0
:1037c0000000fa00704b80000080fa000000060044
:1037d0000200fa00000f78001e007800804b88007d
:1037e0000080fa00000006000000fa00804b800014
:1037f0000080fa00000006000200fa00000f7800c6
:103800001e007800904b88000080fa00000006003f
:103810000000fa00904b80000080fa0000000600d3
:103820000000fa00704a80000080fa0000000600e4
:103830000200fa00000f78001e007800704a88002d
:103840000080fa00000006000200fa00000f780075
:103850001e0078006101b80000e823000012b800e3
:103860006010b900050378000003430000e823005e
:103870000098b90000034300860278000400780035
:103880000080fa00000006000400fa00008fbe006d
:103890001e00be00804a8800914a88000080fa001d
:1038a000000006000000fa00804a8000914a800073
:1038b0000080fa00000006000400fa00008fbe003d
:1038c0001e00be00a04a8800b14a88000080fa00ad
:1038d000000006000000fa00a04a8000b14a800003
:1038e0000080fa00000006000400fa00008fbe000d
:1038f0001e00be00c04a8800d14a88000080fa003d
:10390000000006000000fa00c04a8000d14a800092
:103910000080fa00000006000400fa00008fbe00dc
:103920001e00be00e04a8800f14a88000080fa00cc
:10393000000006000000fa00e04a8000f14a800022
:103940000080fa00000006000400fa00008fbe00ac
:103950001e00be00004b8800114b88000080fa005a
:10396000000006000000fa00004b8000114b8000b0
:103970000080fa00000006000400fa00008fbe007c
:103980001e00be00204b8800314b88000080fa00ea
:10399000000006000000fa00204b8000314b800040
:1039a0000080fa00000006000400fa00008fbe004c
:1039b0001e00be00404b8800514b88000080fa007a
:1039c000000006000000fa00404b8000514b8000d0
:1039d0000080fa00000006000200fa000040eb0040
:1039e000004f7800b2c0b30011c3b30030c5b300bc
:1039f000c70007001e4f400082c0b300d1c2b30011
:103a000030c5b300c20007001e4f4000a2c0b30083
:103a1000c1c2b30030c5b300bd0007001e4f400057
:103a20001e80fb000080fa00000006000a00fa0079
:103a3000400798000040eb00004f78000e01e800be
:103a400063c0b30021c3b30030c5b3002101070038
:103a50001e4f40000e00e800104090000080fb0068
:103a60000000400000004000000040000000400056
:103a70000000400000004000000040000000400046
:103a8000800078000e00e800104078000080fb0005
:103a90000080700080007800f0ff210080806000ce
:103aa0004e009000010878004e0090000081e80070
:103ab0000e00e800304090000080fb000000400055
:103ac00000004000000040000000400000004000f6
:103ad000000040000000400000004000800078002e
:103ae0000e00e800204090000080fb000080700085
:103af00080007800f0ff210000806000000978005d
:103b00004e009000640140000e00e800504090001c
:103b10000080fb000000400000004000000040006a
:103b20000000400000004000000040000000400095
:103b300000004000800078000e00e8004040900047
:103b40000080fb000080700080007800f0ff210002
:103b500000806000000978001e80fb000080fa00f1
:103b6000000006000000fa000602a80006c2bf001e
:103b7000614060000004e000fcff3a000080fa00b1
:103b8000000006000000fa000622a80006c2bf00de
:103b9000624060000004e000fcff3a000080fa0090
:103ba000000006000000fa000642a80006c2bf009e
:103bb000644060000004e000fcff3a000080fa006e
:103bc000000006000000fa0006a2a9000682a80074
:103bd00006c2bf00704060000004e000fcff3a0035
:103be0000080fa00000006000000fa0006a2a8000b
:103bf0000682a80006c2bf00704060000004e0001a
:103c0000fcff3a0006a2a9000080fa0000000600ae
:103c10000200fa0009c2bf008000eb00010f78002b
:103c20000004e0000200350010002000000f7800c2
:103c30001e0078000080fa00000006000200fa0072
:103c4000004f78001e40780002e2b70008c2bf00b3
:103c5000614060000004e000fcff3a000080fa00d0
:103c6000000006000400fa00004f78001e407800b3
:103c700002e2b70009c2bf000044b2000004e00045
:103c8000fcff3a0009c2bf008000eb00110798005a
:103c90000004e0000200350010002000100798002a
:103ca0001e0090000080fa00000006000000fa00ec
:103cb0000662a80008c2bf00624060000004e00085
:103cc000fcff320000c2bf000080fb000080fa0051
:103cd000000006000000fa000020280030108800d4
:103ce00010092000201088000080fa000000060063
:103cf0000000fa0085c0bf000044b2000004e000ec
:103d0000fcff320085c0a9000080fa000000060018
:103d10000800fa0020479800314798004247980071
:103d20000040eb00004f78008eff07002e4090000f
:103d300000404000cbff07008040eb007147980037
:103d40000004e00002003a0010c0b3007047980081
:103d50001e407800fe40900000c04000004f7800f8
:103d60003e409000bfff07008040eb006147980095
:103d70000004e00002003a0010c0b3006047980061
:103d80001e407800ee40900000c04000004f7800d8
:103d90004e409000b3ff07008040eb005147980071
:103da0000004e00002003a0010c0b3005047980041
:103db0001e407800de40900000c04000004f7800b8
:103dc00078ff07001e80fb000080fa00000006005c
:103dd0000c00fa002047980031479800220798000d
:103de0000040eb00004f78005eff07002e4090007f
:103df000004040009bff07008040eb00214f9800ef
:103e00000004e00002003a0010c0b300204f980008
:103e10001e407800ae48900000c04000004f78007f
:103e20003e4090008fff07008040eb00114f98004c
:103e30000004e00002003a0010c0b300104f9800e8
:103e40001e4078009e48900000c04000004f78005f
:103e50004cff07002e4090000080fb000000400057
:103e60000004a0007fff07008040eb00014f980096
:103e70000004e00002003a0010c0b300004f9800b8
:103e80001e4078008e48900000c04000004f78002f
:103e90001e04e0000400320042ff07001e80fb0009
:103ea000300798000800370080ff07008040780046
:103eb0002e009000014878004bff070039ff0700f3
:103ec0009e80fb00310798003e0090000080fa00c1
:103ed000000006000e00fa002047980031479800c5
:103ee00022079800634798000040eb00004f7800dd
:103ef0001cff07002e4090000040400059ff0700c3
:103f00008040eb00414f98000004e00002003a00be
:103f100010c0b300404f98001e407800ce4890007b
:103f200000c04000004f78003e4090004dff070069
:103f30008040eb00314f98000004e00002003a009e
:103f400010c0b300304f98001e407800be4890006b
:103f500000c04000004f78000aff07002e4090008c
:103f60000080fb00000040000004a0003dff0700af
:103f70008040eb00214f98000004e00002003a006e
:103f800010c0b300204f98001e407800ae4890004b
:103f900000c04000004f78001e04e0000c0032001a
:103fa00000ff07001e80fb00400798001d0037003f
:103fb0003eff0700804078002e0090000148780006
:103fc0002e0090000000e80020079800fdfe07008a
:103fd0008040eb00714798006e409000e14f500028
:103fe0000200360010c0b300704798006e40900089
:103ff0000040e90060479800fe4090000104e000a6
:10400000ebff3a0029ff0700804078002e00900067
:1040100001487800f4fe0700e2fe07001e80fb0066
:10402000400798004e0090000080fa000000060053
:104030000200fa000040eb00004f7800f2c1b3002c
:1040400001c2b30090c6b30031ff07001e4f40000d
:104050001e80fb000080fa00000006000600fa0047
:10406000200798000040eb00004f78000e01e800a8
:1040700081c2b30090c6b30055ff07001e4f400039
:104080000e81e80091c2b30090c6b30050ff070054
:104090001e4f40002e4090000080fb0000004000ba
:1040a0000000400000004000000040000000400010
:1040b0000000400000004000000040008000780048
:1040c0001e4090000080fb0000807000800078009f
:1040d0002e009000010878000e01e800a1c2b30094
:1040e00090c6b3003aff07001e4f40000e81e80063
:1040f000b1c2b30090c6b30035ff07001e4f4000a9
:104100002e0090000081e8002e4090000080fb000f
:10411000000040000000400000004000000040009f
:10412000000040000000400000004000000040008f
:10413000800078001e4090000080fb00008070002e
:10414000000978000e01e800c1c2b30090c6b300b8
:104150001fff07001e4f40000e81e800d1c2b300d0
:1041600090c6b3001aff07001e4f40002e009000bb
:10417000640140002e4090000080fb0000004000e1
:10418000000040000000400000004000000040002f
:104190000000400000004000000040008000780067
:1041a0001e4090000080fb00008070000009780035
:1041b0001e80fb000080fa00000006000000fa00ec
:1041c000889fbe0038010700f3000700c04380004d
:1041d000d1438000a2702d0033c2230091f007006c
:1041e0000002be0060448000714480000001be00f7
:1041f0000400be0023f1070082142e00a3f7230061
:1042000088f007000004be00604480007144800014
:1042100002702d0033ca230082f007000001be00a7
:104220000800be0017f1070000458800114588000e
:10423000a0438000b1438000a2702d0033c2230050
:1042400078f007000002be008044800091448000a6
:104250000001be000400be000af1070082142e0017
:10426000a3f723006ff007000004be008044800025
:104270009144800002702d0033ca230069f00700ca
:104280000001be000800be00fef0070020458800c7
:10429000314588004f04be000080fa00000006008f
:1042a0000000fa00889fbe00ff000700ba00070068
:1042b000c0438000d1438000a2702d0033c2230090
:1042c00058f007000002be00004580001145800044
:1042d0000001be000400be00eaf0070082142e00b8
:1042e000a3f723004ff007000004be0060448000e5
:1042f0007144800002702d0033ca230049f007008a
:104300000001be000800be00def007000045880086
:1043100011458800a0438000b1438000a2702d00a9
:1043200033c223003ff007000002be00204580009a
:10433000314580000001be000400be00d1f007003e
:1043400082142e00a3f7230036f007000004be00fd
:10435000804480009144800002702d0033ca230005
:1043600030f007000001be000800be00c5f00700e5
:104370002045880031458800e0438000f1438000fb
:10438000a2702d0033c2230026f007000002be00f9
:1043900040458000514580000001be000400be0081
:1043a000b8f0070082142e00a3f723001df00700c9
:1043b0004045880051458800a0438000b1438000fb
:1043c00055fd0700c0438000d14380005efd07001b
:1043d000e0438000f143800067fd07000045800056
:1043e0001145800028fd07002045800031458000f0
:1043f00031fd070040458000514580003afd07002f
:104400004f04be000080fa00000006000000fa0021
:10441000714d800030062000808f50005c003e000f
:10442000408920000dff0700a04480000000e0004c
:1044300005003500a144800040438000008040001a
:104440004043880007003700a044800080007800c7
:1044500040438000808040000000eb00008050005e
:1044600040438800b04480000000e00005003500b3
:10447000b1448000504380000080400050438800d9
:1044800007003700b044800080007800504380006f
:10449000808040000000eb00008050005043880006
:1044a000c04480000000e00005003500c1448000e9
:1044b00060438000008040006043880007003700b0
:1044c000c04480008000780060438000808040000d
:1044d0000000eb000080500060438800704d8000b9
:1044e0000000e800704d8800704d8000a2002000a0
:1044f000110009000280d8008000fd000000e000eb
:1045000002003a00a0db2a003ef60700714d800051
:1045100040062000808f50001d003a00404380007c
:10452000724d8000110009000280d80010438800fd
:1045300050438000724d8000110009000280d800b5
:104540002043880060438000724d80001100090004
:104550000280d800304388000000eb00704d8800d6
:1045600016ff070000ccb3001ef507001000200066
:10457000cdf40700d0db2a0022f60700db02a900f9
:10458000401f2000c8f4070050002000a8fc0700ce
:104590000080fa00000006000000fa0040892000b8
:1045a000aefe0700a04480000000e00003003500dc
:1045b000a04480007043880005003700a0448000bc
:1045c000800078000000eb000080500070438800fd
:1045d000b04480000000e00003003500b0448000db
:1045e0008043880005003700b044800080007800d8
:1045f0000000eb000080500080438800c044800031
:104600000000e00003003500c044800090438800b3
:1046100005003700c0448000800078000000eb00f7
:104620000080500090438800714380001043800058
:1046300000805000cf80de004fef070092c22500bf
:10464000f3c0230077ef0700a0438800b143880040
:10465000814380002043800000805000cf80de0036
:1046600045ef070092c22500f3c023006def07005d
:10467000c0438800d14388009143800030438000cc
:1046800000805000cf80de003bef070092c2250083
:10469000f3c0230063ef0700e0438800f143880084
:1046a0000080fa00000006001800fa00889fbe0093
:1046b000a0892000ddfc0700d1448000f0ff20002d
:1046c000808f500016003e00d84480006140b90041
:1046d00029ef0700200f9800310f98000800e00034
:1046e00007003d0002002000037824002e089000ff
:1046f000be089000e3ef0700200f9800310f9800ec
:104700002e089000be08900042722900f3b72300e3
:1047100044ef070000448800114488001800370067
:10472000d84480006140b90013ef0700000f9800e3
:10473000110f98000800e00007003d000200200073
:10474000037824000e0890009e089000cdef07002b
:10475000000f9800110f9800020020000360240051
:104760000e0890009e089000c5ef070042722900d5
:10477000f3b723002bef07000044880011448800a2
:10478000e1448000f0ff2000808f500016003e00c2
:10479000e84480006140b900f7ee07006007980028
:1047a000710798000800e00007003d0002002000ab
:1047b000037824006e009000fe009000b1ef070027
:1047c00060079800710798006e009000fe0090004e
:1047d00042722900f3b7230012ef0700204488003b
:1047e0003144880018003700e84480006140b90077
:1047f000e1ee070040079800510798000800e0002c
:1048000007003d0002002000037824004e009000c5
:10481000de0090009bef07004007980051079800ca
:1048200002002000036024004e009000de00900093
:1048300093ef070042722900f3b72300f9ee070057
:104840002044880031448800f1448000f0ff2000bb
:10485000808f500016003e00f84480006140b9008f
:10486000c5ee070020079800310798000800e00017
:1048700007003d0002002000037824002e00900075
:10488000be0090007fef07002007980031079800d6
:104890002e009000be00900042722900f3b7230062
:1048a000e0ee0700404488005144880014003700bf
:1048b000f84480006140b900afee0700008fbe00f1
:1048c0000800e00005003d000200200003782400fd
:1048d0001e00be006bef0700008fbe00020020002c
:1048e000036024001e00be0065ef0700427229002d
:1048f000f3b72300cbee0700404488005144880002
:1049000020448000314480000001be00c5ee070055
:104910000004be0040448000514480000001be00fd
:10492000c0ee07000001be000800be0055ef070002
:10493000b5ef07000001be00004480001144800074
:1049400001f0a200e5ef070022ee2200532624002a
:10495000b4ee070060448800714488004044800041
:10496000514480000001be00aeee07000004be000e
:1049700000448000114480000001be00a9ee070041
:10498000a2702d0033c22300a6ee07000001be0076
:104990000800be003bef07009bef07000001be00d0
:1049a0002044800031448000ccef070022ee22003a
:1049b000532624009bee0700804488009144880021
:1049c0004f04be000080fa00000006000400fa0058
:1049d000889fbe006000b800008fbe0000448000c9
:1049e000114480000001be008eee07000004be00ee
:1049f00020448000314480000001be0089ee0700a1
:104a00000001be000800be001eef07000004be004b
:104a100040448000514480000001be0081ee070048
:104a20000001be000800be0016ef070076ef070089
:104a30000200200003f8230011ef0700d2cc2c0065
:104a4000c311240077ee0700008fbe006045800090
:104a500071458000a2702d0033c2230071ee070063
:104a60000002be0080458000914580000001be002c
:104a70000400be0003ef07000004be001e00be00dd
:104a8000a2702d0033c2230066ee0700a2702d0035
:104a900033c2230063ee070002002000030024005d
:104aa00094ee07000001be000800be00f5ee07000e
:104ab00080458800914588001e00be00a2702d0030
:104ac00033c2230057ee07000002be00604580009d
:104ad000714580000001be000400be00e9ee070041
:104ae00060458800714588008045800091458000c0
:104af000adfb07004f04be000080fa000000060076
:104b00000c00fa00889fbe0020079800310798002b
:104b10004207980053079800a0458000b1458000e7
:104b20004e019000de019000d6ee0700b247210052
:104b3000e3f623003bee07000004be0082c225001e
:104b4000f3d823002e009000be00900035ee070041
:104b50000001be000800be00caee0700a0458800a4
:104b6000b145880000448000114480000001be006f
:104b70002cee07000004be00204480003144800079
:104b80000001be0027ee07000001be000800be00c5
:104b9000bcee07000004be00404480005144800089
:104ba0000001be001fee07000001be000800be00ad
:104bb000b4ee070014ef07000200200003f8230002
:104bc000afee0700d2cc2c00c311240015ee070075
:104bd000008fbe00a0458000b14580004f04be009c
:104be0000080fa00000006001800fa0030002000e3
:104bf000e04888006000b800a0498800b1498800fa
:104c00006000b8008048880091488800e0ca2d0004
:104c100021e42300104a8800214a880063c1b300c0
:104c20000e017800a1cab30070c7b300a9fc070049
:104c30001e4078000080fb000000400000004000a3
:104c40000000400000004000000040000000400064
:104c50000000400000004000800078001e409000ee
:104c60000080fb0000807000f04888002e4090001b
:104c70000080fb00000040000000400000004000f9
:104c80000000400000004000000040000000400024
:104c900000004000800078003e4090000080fb0053
:104ca00000807000004988004e4090000080fb00aa
:104cb00000004000000040000000400000004000f4
:104cc00000004000000040000000400000004000e4
:104cd000800078005e4090000080fb000080700043
:104ce000104988006e4090000080fb0000004000ea
:104cf00000004000000040000000400000004000b4
:104d000000004000000040000000400080007800eb
:104d10007e4090000080fb000080700020498800e9
:104d20000e4890000080fb000000400000004000a2
:104d30000000400000004000000040000000400073
:104d40000000400000004000800078001e489000f5
:104d50000080fb0000807000304988002e489000e1
:104d60000080fb0000004000000040000000400008
:104d70000000400000004000000040000000400033
:104d800000004000800078003e4890000080fb005a
:104d900000807000404988004e4890000080fb0071
:104da0000000400000004000000040000000400003
:104db00000004000000040000000400000004000f3
:104dc000800078005e4890000080fb00008070004a
:104dd000504988006e4890000080fb0000004000b1
:104de00000004000000040000000400000004000c3
:104df00000004000000040000000400080007800fb
:104e00007e4890000080fb000080700060498800b0
:104e10000e5090000080fb000000400000004000a9
:104e20000000400000004000000040000000400082
:104e30000000400000004000800078001e509000fc
:104e40000080fb0000807000704988002e509000a8
:104e50000080fb0000004000000040000000400017
:104e60000000400000004000000040000000400042
:104e700000004000800078003e5090000080fb0061
:104e800000807000804988004e5090000080fb0038
:104e90000000400000004000000040000000400012
:104ea0000000400000004000000040000000400002
:104eb000800078005e5090000080fb000080700051
:104ec00090498800670007005000200076f2070034
:104ed0000000eb00304a88000000eb00004a880028
:104ee00089000700a00120006ff20700860007007c
:104ef000a00120006cf207007402070003003700d5
:104f0000a001200068f207007002070060488000de
:104f1000714880008248800093488000d8ed0700e7
:104f2000b6ed0700300f98003e0890000000e0004a
:104f300003003d003e0890000000ea00300f98009a
:104f40003e089000ea0f5000edff3c0080488000d2
:104f50009148800040488800514888000080fa004d
:104f6000000006000000fa00e04880000000400059
:104f70000000400000004000000040000000400031
:104f8000000040004043b0000041780041cfb30032
:104f900070c7b3005efb07000080fa000000060047
:104fa0000400fa0033c0b3000e01780061cfb300f3
:104fb00070c7b300c7fb07001e4078000080fb00ed
:104fc00001002000c001dd00020020001e40900012
:104fd0000080fb00010020000000400081804800ac
:104fe00000004000818048000000400081804800af
:104ff000000040008180480000004000818048009f
:10500000000040008180480000004000818048008e
:105010000000400081804800000171008181710022
:105020002e4090000080fb00010020000001710074
:1050300081817100e0488000680010000202be001b
:10504000000378000603e900030033008582d100e5
:105050000482d300fbff37000400be000080fa008a
:10506000000006000000fa00e2c2b30041cfb30026
:1050700070c7b30026fb07000080fa00000006009e
:105080000200fa000e01780061cfb30070c7b300d0
:105090004ffb07000e01e80071cfb30070c7b300eb
:1050a0004bfb07001e4078000080fb000100200041
:1050b00000004000818048000000400081804800de
:1050c00000004000818048000000400081804800ce
:1050d00000004000818048000000400081804800be
:1050e00000004000818048000000400081804800ae
:1050f000800078001e4090000080fb00008070005f
:105100000080fa00000006000000fa00030007001b
:10511000270007000080fa00000006000000fa00e7
:10512000304a80000000e000180032009cff0700b9
:1051300091ec0700424a8000534a800051ed07007d
:10514000404a8800514a8800604a80000000e80018
:10515000604a8800004a8000e40f500006003a00d0
:10516000c0ff07000000eb00004a88000000eb00d1
:10517000304a88000c0037007aff0700004a8000a0
:105180000000e800004a880007003700bcff070065
:1051900001002000e0498800f149880071ff070004
:1051a00010002000304a88000080fa00000006004d
:1051b0002c00fa00889fbe00e2498000f34980007d
:1051c0004049800001002000000451008184590002
:1051d000304980006101b8000243b80003c0b90043
:1051e00007027800000242000990b9000002420064
:1051f000840378004139dd004f30de00000071008b
:10520000cfb8de0020179800311798008049800041
:10521000cf80de0000004000818048000000400098
:10522000818048000000400081804800000040006c
:10523000818048000000400081804800000040005c
:10524000818048000000400081804800000040004c
:10525000818048000000400081804800000040003c
:105260008180480000004000818048000002be00ac
:10527000904980006101b9002e109000be1090008e
:1052800002014000838148000400be002bec0700af
:1052900000179800111798002e119000be11900071
:1052a0000e1090009e109000020040008380480085
:1052b000200f9800310f98002e089000be08900033
:1052c00068004000e0804800cc09dd004400de00ba
:1052d00000807100c488de00c0488800d148880082
:1052e000604a80000000e00063013200484a80000c
:1052f000594a8000604a8000cf80de001eec070023
:105300000001be000800be007aec0700bbec0700fd
:10531000c0498800d14988006000b800404a880030
:10532000514a88000000eb00604a88002e09900076
:10533000be09900000062f00f1ff2f000200400080
:1053400083804800000f9800110f9800604980008a
:105350006104b9008e0890000e089000000ab800a1
:105360008e0890001e0890000088b90005017800a2
:10537000000141008e0890001e0890000088b900ce
:1053800000014100820278004428dd004c21de004b
:1053900002017000cca9de000243b80003c0b900ce
:1053a00007027800000242000990b90000024200a2
:1053b000840378004539dd004b30de0000007100c9
:1053c000cbb8de0020179800311798000049800004
:1053d0006103b9000e0890000032b8001e0890006a
:1053e00000b0b90005017800000141000e089000ee
:1053f0000780b9000001410082027800c529dd0064
:105400004b20de0000807100cba8de000017980062
:10541000111798002e119000be1190000e109000f0
:105420009e1090000200400083804800600f9800aa
:10543000710f9800f0488000cf80de00008fbe0022
:105440001e00be00000040008180480000004000b7
:10545000818048000001be006e089000fe089000a8
:105460000200400083804800e24880000202780089
:105470000402e9000300330000004000818048007e
:10548000fbff3700008fbe00220020000300200039
:105490003e004100ae804900ce09dd004200de0042
:1054a00000807100c288de00400f9800510f980004
:1054b000104980006103b9000e0890000032b80066
:1054c0001e08900000b0b9000501780000014100fd
:1054d0000e0890000780b9000001410082027800a8
:1054e0004329dd004d20de0000007100cda8de0064
:1054f0002017980031179800504980006104b900c6
:105500008e0890000e089000000ab8008e089000e7
:105510001e0890000088b9000501780000014100d4
:105520008e0890001e0890000088b900000141001c
:10553000820278004428dd004c21de000201700068
:10554000cca9de000243b80003c0b900070278000e
:10555000000242000990b900000242008403780072
:1055600040b8de00cf80de000017980011179800c9
:105570002e119000be1190000e1090009e10900011
:10558000020040008380480062004000e080480044
:105590004e09dd004200de0000007100c288de001e
:1055a000600f9800710f9800204980006104b800d6
:1055b0006e099000fe099000000028000100200004
:1055c00002004000838048000001be000243b80092
:1055d00003c0b90007027800000242000990b90038
:1055e0000002420084037800c139dd004f30de0044
:1055f00000807100cf38de00400798005107980006
:10560000c0498000d14980000001be004e089000d2
:10561000de0890000004510081845900e2488000b7
:1056200000352c0001002000020278000402e9008d
:10563000030033008180d1000080d300fbff3700de
:105640000001be000243b80003c0b90007027800a1
:10565000000242000990b900000242008403780071
:1056600026079800370798002e009000be00900093
:10567000e00f5000e08f58000a0035002e00900027
:10568000be00900000004000818048004e01900064
:10569000de019000aeec070040179800511798000b
:1056a000090037004e019000de0190002e009000ae
:1056b000be009000a6ec070000004000818048007a
:1056c00040179800511798004e109000de1090007f
:1056d00060079800710798006e009000fe0090002f
:1056e000c88cde004809dd004804de0008047100b3
:1056f0006e009000fe009000c889de00480add00c0
:105700004801de00020172000243b80003c0b90084
:1057100007027800000242000990b900000242002e
:10572000840378002617980037179800ae10900071
:10573000e0bd20000009b8002e1090006000b90004
:105740000302780000024200be109000e0bd20007d
:105750000088b90000024200840178004098de0011
:10576000cf80de002017980031179800ee009000df
:1057700030342e00000ab800ee0090000080eb00ec
:105780000088b9000501780000014100fe0090008a
:1057900030342e000088b9000001410082027800f8
:1057a00040a8de00cf80de00001798001117980097
:1057b0002e119000be1190000e1090009e109000cf
:1057c0000201400083814800f0ec2000010020002d
:1057d0000200400083804800c489de004c0add00de
:1057e0004401de00020172006e009000fe00900095
:1057f0000200400083804800a0498800b149880029
:10580000184a8000294a8000a0498000b1498000e0
:10581000d9ea070002682e00537c240035eb07000c
:105820000801be005aec07000001be000000200085
:1058300001f8230092eb070002a02200d37224009b
:10584000f8ea07006048880071488800a048800096
:10585000b14880004248800053488000664880007c
:10586000774880000002be000600be003500070039
:1058700040488800514888004f04be000080fa006c
:10588000000006000000fa004048800051488000f7
:10589000824880009348800079eb07000080fa007e
:1058a000000006000000fa004048800051488000d7
:1058b0000080fa00000006000000fa008048800026
:1058c000914880000080fa00000006000600fa00ff
:1058d0006000b80010079800210798000000eb0056
:1058e000000f78000b00370007fe070062488000b9
:1058f000734880001e009000ae00900061eb07002e
:105900001007980021079800a0012000e6ef07008b
:105910001e0fe800800120009e0f1000f2ff3400ef
:1059200002002000831c24001e009000ae009000a6
:10593000f0ea070080488800914888000080fa005b
:10594000000006001000fa00889fbe00008fbe0015
:1059500022079800330798004407980055079800dd
:105960000200200003f823004e009000de009000ab
:10597000eaec07000000e00001003a0013003700e5
:105980004e019000de0190000000200001f823008d
:105990003beb07001e01be00a2ea07000004be00a8
:1059a0004e019000de0190002e009000be0090009d
:1059b0009cea07000001be000800be0031eb0700b2
:1059c0006007980071079800030037001e00be00b2
:1059d00060079800710798006e009000fe0090002c
:0c59e0004f04be000080fa00000006002a
:020000040000fa
:0200000401f009
:04000000f6ff000007
:020000040000fa
:0200000401f009
:04000400ff7f00007a
:020000040000fa
:0200000401f009
:040008007fff000076
:020000040000fa
:0200000401f009
:04001400ffff0000ea
:020000040000fa
:10000800b82e0000b82e0000b82e0000b82e000050
:10001800b82e0000b82e0000b82e0000b82e000040
:10002800b82e0000b82e0000b82e0000b82e000030
:10003800b82e0000b82e0000c40b0000b82e000037
:10004800b82e0000b82e0000b82e0000b82e000010
:10005800b82e0000b82e0000b82e0000b82e000000
:10006800b82e0000b82e0000b82e0000b82e0000f0
:10007800b82e0000b8110000b82e0000b82e0000fd
:10008800b82e0000b82e0000b82e0000b82e0000d0
:10009800b82e0000b82e0000b82e0000b82e0000c0
:1000a800b82e0000b82e0000b82e0000b82e0000b0
:1000b800b82e0000b82e0000b82e0000b82e0000a0
:1000c800b82e0000b82e0000b82e0000b82e000090
:1000d800b82e0000b82e0000b82e0000b82e000080
:1000e800b82e0000b82e0000b82e0000b82e000070
:0800f800b82e0000b82e000034
:020000040000fa
:10010800b82e0000b82e0000b82e0000b82e00004f
:10011800b82e0000b82e0000b82e0000b82e00003f
:10012800b82e0000b82e0000b82e0000b82e00002f
:10013800b82e0000b82e0000c40b0000b82e000036
:10014800b82e0000b82e0000b82e0000b82e00000f
:10015800b82e0000b82e0000b82e0000b82e0000ff
:10016800b82e0000b82e0000b82e0000b82e0000ef
:10017800b82e0000b8110000b82e0000b82e0000fc
:10018800b82e0000b82e0000b82e0000b82e0000cf
:10019800b82e0000b82e0000b82e0000b82e0000bf
:1001a800b82e0000b82e0000b82e0000b82e0000af
:1001b800b82e0000b82e0000b82e0000b82e00009f
:1001c800b82e0000b82e0000b82e0000b82e00008f
:1001d800b82e0000b82e0000b82e0000b82e00007f
:1001e800b82e0000b82e0000b82e0000b82e00006f
:0801f800b82e0000b82e000033
:020000040000fa
:1059ec00576500006c6300006f6d000065200000bf
:1059fc00746f000020460000554600004f00000068
:105a0c005761000069740000206600006f7200008e
:105a1c00206300006f6e00006e6500006374000070
:105a2c0000430000686f00006f73000065200000e9
:105a3c00636f00006e6e000065630000742100004f
:105a4c0000500000726500007373000020530000ca
:105a5c0074610000727400002020000000500000ef
:105a6c007265000073730000205500007021000067
