:020000040000fa
:080000000001040000000000f3
:020000040000fa
:100200002f80200080ff20000001880000000000f7
:10021000050007000c000700e401020000000000d8
:100220000040da000000fe004440a9000000200069
:100230000000e0000300320000002000a001880060
:100240004440a80000000600002320000100200018
:100250001600370062004000e080480091018800ed
:100260009001ba0062004000e080480091018800df
:100270009002ba0062004000e08048000002eb00fb
:100280006028e10005003a008301e900070033001f
:10029000038009000059eb00040037006128e100e9
:1002a000010032000082eb00050007009101880088
:1002b0001001ba000200e000e6ff3a00000005006d
:1002c000910188008002780062004000e0804800d0
:1002d0003559ba008301e900080032002559ba00f7
:1002e0008301e900050032000400e000f4ff320061
:1002f00015d9ba008301e900f1ff3a0000000600b9
:10030000801f78003400f80000c0b300a00188000e
:100310000000fa008460a900004080000000e000b6
:1003200002003a0005e1a900050037000000eb00db
:1003300000088800004080000000e90000408800bc
:100340000080fa003400f9004f00780000400600f9
:100350000000fa00510920009140780000c7b30066
:1003600000c0700095e0b700411020009140780077
:10037000f0ccb30000c0600004e1b7000000eb0067
:100380000008880030732000100888008460a900ed
:100390008c60a80005e1a8000080fa0000000600bb
:1003a0000200fa00000f78001e007800004088006c
:1003b000e7ff0700004080000000e000fdff3a007a
:1003c0000080fa00000006000000fa000000eb00c8
:1003d000e016880000ec2f00c0168800110007000e
:1003e00000003700b00e80002003b000b00e88007f
:1003f00040062000eaff0700dd02a80040062000ba
:10040000e7ff0700dd02a900b10e8000200e80008a
:10041000808f5000f3ff3a000000eb00b00e880020
:10042000f0ff37000000fa00f0ff2800200e8800df
:10043000f0702000400e880000f02f00a00e880011
:100440000000eb00b00e8800d0ac2000c00e880089
:1004500000002800000e88000080fa00000006005e
:020000040000fa
:0200000401f009
:04000000f4ff000009
:020000040000fa
:0200000401f009
:04000400ff7f00007a
:020000040000fa
:0200000401f009
:040008007fff000076
:020000040000fa
:0200000401f009
:04001400ffff0000ea
:020000040000fa
:100008003802000038020000380200003802000000
:1000180038020000380200003802000038020000f0
:100028003802000038020000380200008001000099
:1000380038020000380200003802000038020000d0
:1000480038020000380200003802000038020000c0
:1000580038020000380200003802000038020000b0
:1000680038020000380200003802000038020000a0
:100078003802000038020000380200003802000090
:100088003802000038020000380200003802000080
:100098003802000038020000380200003802000070
:1000a8003802000038020000380200003802000060
:1000b8003802000038020000380200003802000050
:1000c8003802000038020000380200003802000040
:1000d8003802000038020000380200003802000030
:1000e8003802000038020000380200003802000020
:0800f80038020000380200008c
:020000040000fa
:1001080038020000380200003802000038020000ff
:1001180038020000380200003802000038020000ef
:100128003802000038020000380200008001000098
:1001380038020000380200003802000038020000cf
:1001480038020000380200003802000038020000bf
:1001580038020000380200003802000038020000af
:10016800380200003802000038020000380200009f
:10017800380200003802000038020000380200008f
:10018800380200003802000038020000380200007f
:10019800380200003802000038020000380200006f
:1001a800380200003802000038020000380200005f
:1001b800380200003802000038020000380200004f
:1001c800380200003802000038020000380200003f
:1001d800380200003802000038020000380200002f
:1001e800380200003802000038020000380200001f
:0801f80038020000380200008b
:020000040000fa
:100460000008000002000000000000000000000082
:020000040000fa
:040470000000fe008a
:00000001FF
