:020000040000fa
:080000000001040000000000f3
:020000040000fa
:10020000cf80200080ff2000000188000000000057
:10021000050007000c000700b20602000000000005
:100220000040da000000fe004440a9000002200067
:100230000000e0000300320000002000a001880060
:100240004440a80000000600c07d200001002000fe
:100250001600370062004000e080480091018800ed
:100260009001ba0062004000e080480091018800df
:100270009002ba0062004000e08048000002eb00fb
:100280006028e10005003a008301e900070033001f
:10029000038009000059eb00040037006128e100e9
:1002a000010032000082eb00050007009101880088
:1002b0001001ba000200e000e6ff3a00000005006d
:1002c000910188008002780062004000e0804800d0
:1002d0003559ba008301e900080032002559ba00f7
:1002e0008301e900050032000400e000f4ff320061
:1002f00015d9ba008301e900f1ff3a0000000600b9
:100300000000fa00000107000a0107002003200096
:100310001701070026010700401f200014010700f5
:100320000000eb00104088000080fa00000006008a
:100330000200fa00000f78000a0037001140800028
:10034000010078001e004000104178000100e80024
:100350001040880002407800d30107001000200000
:1003600003010700104080001e004000104078008c
:100370000004e000f1ff3a000080fa0000000600ef
:100380000a00fa00400798000e80e800c17c2800af
:1003900005000900315878006000b1006100b1002b
:1003a0000000eb00000f7800110037009e0178007c
:1003b0004e009000a2002000110009000280d80029
:1003c0008000fd0002c3b300824040000e80e800c0
:1003d00000804100014878001e0fe8004e009000a8
:1003e000a2002000110009000280d80040079800f8
:1003f0004e0090000000e000ecff3a0008003700db
:100400001e0fe9009e0078000e80e800008040008a
:1004100010407800a401070010002000d40007005d
:100420001e00e000f6ff3c000080fa00000006001d
:100430000200fa00000f780000ccb300f7000700bc
:10044000a0002000ca0007000000eb001040880058
:100450000a00370011408000010078001e004000b3
:10046000104178000100e800104088000240780048
:100470008d010700a0002000bd0007001040800093
:100480001e004000104078000004e000f1ff3a0038
:100490000080fa00000006000400fa00100798002f
:1004a000ca02a8009e0090000008200000806000a2
:1004b0004700de0061406000614060000040400095
:1004c000004040000040400000404000004140002b
:1004d000a12c200091407800f0cdb30000c0600056
:1004e00002407000cae2b7009e00900000042000a5
:1004f000008060004600de006140600061406000f6
:1005000000404000004040000040400000414000ea
:10051000a12c200091407800f0ceb30000c0600014
:1005200002407000cae2b7009e0090000002200066
:10053000008060004500de006140600061406000b6
:10054000004040000040400000414000a12c20003d
:100550009140780070cfb30000c06000024070008e
:10056000cae2b7001e009000700060004400de0088
:100570006140600061406000004040000041400078
:10058000a12c200091407800b0cfb30000c06000e3
:1005900002407000cae2b700ca22a8000000eb00c7
:1005a000000f7800080037000000eb00000f780013
:1005b000010037001e0fe800e00f20009e0f100022
:1005c000fcff36001e0fe800100020009e0f1000f8
:1005d000f5ff3600ca22a9001e00900068006000e6
:1005e0004300de0061406000614060000040400068
:1005f00000404000004040000040400000414000fa
:10060000a12c200091407800f0cdb30000c0600024
:1006100002407000cae2b7001e0090006400600053
:100620004200de0061406000614060000040400028
:10063000004040000040400000414000a12c20004c
:1006400091407800f0ceb30000c06000024070001e
:10065000cae2b7001e009000620060000000d100f6
:100660006140600061406000004040000040400088
:1006700000414000a12c20009140780070cfb300d1
:1006800000c0600002407000cae2b7001e00900087
:100690006140600061406000614060006140600056
:1006a0000040400000414000a12c20009140780013
:1006b000b0cfb30000c0600002407000cae2b700d3
:1006c000ca22a8000000eb00000f780008003700e5
:1006d0000000eb00000f7800010037001e0fe8005b
:1006e000e00f20009e0f1000fcff36001e0fe800f8
:1006f000100020009e0f1000f5ff3600ca22a9004e
:100700000080fa00000006000000fa000000eb0084
:1007100000088800e0012000100888008460a9001b
:1007200000022000200888008c60a8000080fa00e9
:10073000000006000000fa00ca42a900ca62a9002f
:10074000ca82a900caa2a900c642a900c662a9001d
:10075000c682a900c6a2a900ca22a900c622a90071
:10076000ca02a900c602a9000080fa000000060023
:100770000200fa00000f78001e0078007e00b90029
:10078000100888000000eb000040880005e1a80088
:10079000004080000000e000fdff320005e1a900fc
:1007a0000000eb00000888000080fa00000006004e
:1007b0000000fa0020c0b30018000700100020005d
:1007c000ebff070080c2b3001400070010002000f8
:1007d000e7ff070080c0b3001000070010002000f2
:1007e000e3ff070060c0b3000c000700100020000a
:1007f000dfff0700f0c0b300080007001000200072
:10080000dbff070010c0b300040007005000200009
:10081000d7ff07000080fa00000006000400fa007d
:1008200020479800ca02a9002e4090008080fb005b
:1008300000082000008060004780de00614060000a
:100840006140600000404000004040000040400027
:100850000040400000414000a12c20009140780061
:10086000f0cdb30000c0600002407000cae2b700e3
:100870002e4090008080fb0000042000008060007b
:100880004680de0061406000614060000040400042
:10089000004040000040400000414000a12c2000ea
:1008a00091407800f0ceb30000c0600002407000bc
:1008b000cae2b7002e4090008080fb0000022000ba
:1008c000008060004580de006140600061406000a3
:1008d000004040000040400000414000a12c2000aa
:1008e0009140780070cfb30000c0600002407000fb
:1008f000cae2b7002e4090000080fb00700060004c
:100900004480de00614060006140600000404000c3
:1009100000414000a12c200091407800b0cfb300ee
:1009200000c0600002407000cae2b700ca22a800fe
:100930000000eb00000f7800080037000000eb001b
:10094000000f7800010037001e0fe800e00f2000c4
:100950009e0f1000fcff36001e0fe8001000200064
:100960009e0f1000f5ff3600ca22a9002e4090000d
:100970000080fb00680060004380de006140600092
:1009800061406000004040000040400000404000e6
:100990000040400000414000a12c20009140780020
:1009a000f0cdb30000c0600002407000cae2b700a2
:1009b0002e4090000080fb00640060004280de005a
:1009c0006140600061406000004040000040400025
:1009d0000040400000414000a12c200091407800e0
:1009e000f0ceb30000c0600002407000cae2b70061
:1009f0002e4090000080fb00620060000080d1006b
:100a000061406000614060000040400000404000e4
:100a100000414000a12c20009140780070cfb3002d
:100a200000c0600002407000cae2b7002e40900093
:100a300061406000614060006140600061406000b2
:100a40000040400000414000a12c2000914078006f
:100a5000b0cfb30000c0600002407000cae2b7002f
:100a6000ca22a8000000eb00000f78000800370041
:100a70000000eb00000f7800010037001e0fe800b7
:100a8000e00f20009e0f1000fcff36001e0fe80054
:100a9000100020009e0f1000f5ff3600ca22a900aa
:100aa0000080fa00000006000400fa0020479800c9
:100ab000ca02a8002e4090008080fb0000082000a1
:100ac000008060004780de0061406000614060009f
:100ad0000040400000404000004040000040400016
:100ae00000414000a12c200091407800f0cdb300df
:100af00000c0600002407000cae2b7002e409000c3
:100b00008080fb0000042000008060004680de0042
:100b100061406000614060000040400000404000d3
:100b20000040400000414000a12c2000914078008e
:100b3000f0ceb30000c0600002407000cae2b7000f
:100b40002e4090008080fb000002200000806000aa
:100b50004580de0061406000614060000040400070
:100b60000040400000414000a12c2000914078004e
:100b700070cfb30000c0600002407000cae2b7004e
:100b80002e4090000080fb00700060004480de007a
:100b90006140600061406000004040000041400052
:100ba000a12c200091407800b0cfb30000c06000bd
:100bb00002407000cae2b700ca22a8000000eb00a1
:100bc000000f7800080037000000eb00000f7800ed
:100bd000010037001e0fe800e00f20009e0f1000fc
:100be000fcff36001e0fe800100020009e0f1000d2
:100bf000f5ff3600ca22a9002e4090000080fb00bd
:100c0000680060004380de00614060006140600079
:100c100000404000004040000040400000404000d4
:100c200000414000a12c200091407800f0cdb3009d
:100c300000c0600002407000cae2b7002e40900081
:100c40000080fb00640060004280de0061406000c4
:100c50006140600000404000004040000040400013
:100c600000414000a12c200091407800f0ceb3005c
:100c700000c0600002407000cae2b7002e40900041
:100c80000080fb00620060000080d10061406000d5
:100c900061406000004040000040400000414000d2
:100ca000a12c20009140780070cfb30000c06000fc
:100cb00002407000cae2b7002e4090006140600020
:100cc00061406000614060006140600000404000a1
:100cd00000414000a12c200091407800b0cfb3002b
:100ce00000c0600002407000cae2b700ca22a8003b
:100cf0000000eb00000f7800080037000000eb0058
:100d0000000f7800010037001e0fe800e00f200000
:100d10009e0f1000fcff36001e0fe80010002000a0
:100d20009e0f1000f5ff3600ca22a9000080fa00cd
:100d300000000600801f78003400f80000c0b300f7
:100d4000a00188000000fa008460a90010002000c3
:100d5000004088000080fa003400f9004f0078005d
:100d6000004006000000fa000e00070029000700fe
:100d70001500070062fd07000000eb00304088000e
:100d8000dd02a800803e200065000700dd02a9000a
:100d9000803e200062000700207d280064fd0700df
:100da000f7ff37000000fa000000eb00e0168800b3
:100db0000000eb00c01688001000200030168800ec
:100dc0000080fa00000006000000fa00e0ff2f009b
:100dd00040158800000e2000001588000000eb0080
:100de000101588000000eb00301588000000eb00b3
:100df0005015880030102000201588008560a9005b
:100e00008d60a800a1e2a800a042a8000080fa001e
:100e1000000006000000fa0000202100200e8800db
:100e2000200e8000300e8800f0702000400e8800f8
:100e300000f02f00a00e880060e62000b00e8800b1
:100e4000a0592100c00e880000002800000e880074
:100e50000080fa00000006003600f800809fbe0007
:100e6000829fbe003400f80000c0b300a0018800db
:100e70000000fa00001480000000d100204088002b
:100e8000204080006600b90080017800204080008a
:100e90006600b90052002000110009000280d8004d
:100ea0008080410060e6200000804000b00e880095
:100eb0008560a9000080fa003400f9004f01be00ef
:100ec0004f00be003600f900004006000000fa00a6
:100ed000710920009140780080cfb30000c060000d
:100ee0006040b30097e0b700011120009140780006
:100ef000f0ccb30000c0600010e1b7000000eb00d0
:100f000030088800307320006008880084c0a90081
:100f10008cc0a80011e1a8000080fa0000000600c3
:100f20000200fa00000f78001e00780040408800a0
:100f3000e6ff0700404080000000e000fdff3a00af
:100f40000080fa0000000600801f78003400f800de
:100f500000c0b300a00188000000fa0084c0a9000e
:100f6000404080000000e00002003a0011e1a900ca
:100f7000050037000000eb0030088800404080008a
:100f80000000e900404088000080fa003400f900c9
:080f90004f007800004006004c
:020000040000fa
:0200000401f009
:04000000f4ff000009
:020000040000fa
:0200000401f009
:04000400ff7f00007a
:020000040000fa
:0200000401f009
:040008007fff000076
:020000040000fa
:0200000401f009
:04001400ffff0000ea
:020000040000fa
:10000800e4070000e4070000e4070000e40700003c
:10001800e4070000e4070000e4070000e40700002c
:10002800e4070000e4070000e40700009a06000067
:10003800e4070000e4070000a4070000e40700004c
:10004800e4070000e4070000e40700002c070000b4
:10005800e4070000e4070000e4070000e4070000ec
:10006800e4070000e4070000e4070000e4070000dc
:10007800e4070000e4070000e4070000e4070000cc
:10008800e4070000e4070000e4070000e4070000bc
:10009800e4070000e4070000e4070000e4070000ac
:1000a800e4070000e4070000e4070000e40700009c
:1000b800e4070000e4070000e4070000e40700008c
:1000c800e4070000e4070000e4070000e40700007c
:1000d800e4070000e4070000e4070000e40700006c
:1000e800e4070000e4070000e4070000e40700005c
:0800f800e4070000e40700002a
:020000040000fa
:10010800e4070000e4070000e4070000e40700003b
:10011800e4070000e4070000e4070000e40700002b
:10012800e4070000e4070000e40700009a06000066
:10013800e4070000e4070000a4070000e40700004b
:10014800e4070000e4070000e40700002c070000b3
:10015800e4070000e4070000e4070000e4070000eb
:10016800e4070000e4070000e4070000e4070000db
:10017800e4070000e4070000e4070000e4070000cb
:10018800e4070000e4070000e4070000e4070000bb
:10019800e4070000e4070000e4070000e4070000ab
:1001a800e4070000e4070000e4070000e40700009b
:1001b800e4070000e4070000e4070000e40700008b
:1001c800e4070000e4070000e4070000e40700007b
:1001d800e4070000e4070000e4070000e40700006b
:1001e800e4070000e4070000e4070000e40700005b
:0801f800e4070000e407000029
:020000040000fa
:100f98004172000072610000790000006463000083
:100fa800207200006f69000021210000210000006c
:020000040000fa
:100fb800000800000c000000000000000000000015
:020000040000fa
:040fc8000000fe0027
:00000001FF
