:020000040000fa
:080000000001040000000000f3
:020000040000fa
:100200002f80200080ff20000001880000000000f7
:10021000050007000c00070080010200000000003c
:100220000040da000000fe004440a9000000200069
:100230000000e0000300320000002000a001880060
:100240004440a800000006006021200001002000ba
:100250001600370062004000e080480091018800ed
:100260009001ba0062004000e080480091018800df
:100270009002ba0062004000e08048000002eb00fb
:100280006028e10005003a008301e900070033001f
:10029000038009000059eb00040037006128e100e9
:1002a000010032000082eb00050007009101880088
:1002b0001001ba000200e000e6ff3a00000005006d
:1002c000910188008002780062004000e0804800d0
:1002d0003559ba008301e900080032002559ba00f7
:1002e0008301e900050032000400e000f4ff320061
:1002f00015d9ba008301e900f1ff3a0000000600b9
:100300000000fa0005000700200007000c000700ad
:10031000c08f2000b00e8800fdff37000000fa00fb
:100320000000eb00e016880000fc2f00c0168800db
:1003300010002000301688000080fa00000006003f
:100340000000fa00e0ff2f004015880000062000a2
:10035000001588000000eb00101588000000eb007d
:10036000301588000000eb00501588003010200088
:10037000201588008560a9008d60a800a1e2a80072
:10038000a042a8000080fa00000006000000fa0069
:10039000f00f2700200e8800200e8000300e88000d
:1003a000f0702000400e880000f02f00a00e8800a2
:1003b00000962000b00e880040062000c00e880085
:1003c00040062000d00e880000f02000500e88006b
:1003d00000002800000e88000080fa0000000600df
:1003e000801f78003400f80000c0b300a00188002e
:1003f0000000fa00001480000000d10000408800d6
:1004000000408000b00e880000408000c00e8800d0
:1004100000408000d00e88008560a9000080fa00ae
:0c0420003400f9004f0078000040060096
:020000040000fa
:0200000401f009
:04000000f1ff00000c
:020000040000fa
:0200000401f009
:04000400ff7f00007a
:020000040000fa
:0200000401f009
:040008007fff000076
:020000040000fa
:0200000401f009
:04001400ffff0000ea
:020000040000fa
:100008001e0200001e0200001e0200001e02000068
:100018001e0200001e0200001e0200001e02000058
:100028001e0200001e0200001e0200001e02000048
:100038001e0200001e0200001e0200001e02000038
:100048001e0200001e0200001e020000f001000057
:100058001e0200001e0200001e0200001e02000018
:100068001e0200001e0200001e0200001e02000008
:100078001e0200001e0200001e0200001e020000f8
:100088001e0200001e0200001e0200001e020000e8
:100098001e0200001e0200001e0200001e020000d8
:1000a8001e0200001e0200001e0200001e020000c8
:1000b8001e0200001e0200001e0200001e020000b8
:1000c8001e0200001e0200001e0200001e020000a8
:1000d8001e0200001e0200001e0200001e02000098
:1000e8001e0200001e0200001e0200001e02000088
:0800f8001e0200001e020000c0
:020000040000fa
:100108001e0200001e0200001e0200001e02000067
:100118001e0200001e0200001e0200001e02000057
:100128001e0200001e0200001e0200001e02000047
:100138001e0200001e0200001e0200001e02000037
:100148001e0200001e0200001e020000f001000056
:100158001e0200001e0200001e0200001e02000017
:100168001e0200001e0200001e0200001e02000007
:100178001e0200001e0200001e0200001e020000f7
:100188001e0200001e0200001e0200001e020000e7
:100198001e0200001e0200001e0200001e020000d7
:1001a8001e0200001e0200001e0200001e020000c7
:1001b8001e0200001e0200001e0200001e020000b7
:1001c8001e0200001e0200001e0200001e020000a7
:1001d8001e0200001e0200001e0200001e02000097
:1001e8001e0200001e0200001e0200001e02000087
:0801f8001e0200001e020000bf
:020000040000fa
:10042c0000080000020000000000000000000000b6
:020000040000fa
:04043c000000fe00be
:00000001FF
