:020000040000fa
:080000000001040000000000f3
:020000040000fa
:100200000f82200080ff2000000188000000000015
:10021000050007000c00070080010200000000003c
:100220000040da000000fe004440a900c0002000a9
:100230000000e0000300320000002000a001880060
:100240004440a80000000600207d2000010020009e
:100250001600370062004000e080480091018800ed
:100260009001ba0062004000e080480091018800df
:100270009002ba0062004000e08048000002eb00fb
:100280006028e10005003a008301e900070033001f
:10029000038009000059eb00040037006128e100e9
:1002a000010032000082eb00050007009101880088
:1002b0001001ba000200e000e6ff3a00000005006d
:1002c000910188008002780062004000e0804800d0
:1002d0003559ba008301e900080032002559ba00f7
:1002e0008301e900050032000400e000f4ff320061
:1002f00015d9ba008301e900f1ff3a0000000600b9
:100300000c00fa0009000700dd02a900d902a900cb
:10031000803e200039000700dd02a800803e20005a
:1003200036000700dd02a900f9ff37000000fa00df
:10033000b300070050002000300007000d00070048
:10034000500020002d00070084010700500020000d
:100350002a0007009901070050002000270007002d
:10036000a501070050002000240007000080fa00cb
:10037000000006000200fa000040eb00004f780089
:10038000a2c0b30011c3b30030c5b300ab00070077
:100390001e4f400082c0b300d1c2b30030c5b300cd
:1003a000a60007001e4f4000a2c0b300c1c2b300a8
:1003b00030c5b300a10007001e4f40001e80fb00a7
:1003c0000080fa00000006000400fa001007980000
:1003d0000040eb00004f78001e01900063c0b300a6
:1003e00021c3b30030c5b300050107001e4f400014
:1003f0001e80fb000080fa00000006000200fa00e8
:10040000000f780005e1a800060037000000eb00af
:10041000000888000108800020732000808f5000b1
:10042000fcff36001e0fe9000080eb009e0f10005d
:10043000f6ff3a0005e1a9000000eb000008880083
:100440000080fa00000006000200fa00000f7800a9
:1004500005e1a800050037000000eb000008880057
:1004600000088000e10f5000fdff36001e0fe9007c
:100470000080eb009e0f1000f7ff3a0005e1a90095
:100480000000eb00000888000080fa000000060071
:100490000000fa000602a80006c2bf00614060002a
:1004a0000004e000fcff3a000080fa0000000600b3
:1004b0000000fa000622a80006c2bf0062406000e9
:1004c0000004e000fcff3a000080fa000000060093
:1004d0000000fa000642a80006c2bf0064406000a7
:1004e0000004e000fcff3a000080fa000000060073
:1004f0000000fa0006a2a9000682a80006c2bf00fa
:10050000704060000004e000fcff3a000080fa0048
:10051000000006000000fa0006a2a8000682a8005b
:1005200006c2bf00704060000004e000fcff3a001b
:1005300006a2a9000080fa00000006000200fa00ee
:1005400009c2bf008000eb00010f78000004e0004a
:100550000200350010002000000f78001e00780017
:100560000080fa00000006000200fa00004f780048
:100570001e40780002e2b70008c2bf006140600080
:100580000004e000fcff3a000080fa0000000600d2
:100590000400fa00004f78001e40780002e2b70025
:1005a00009c2bf000044b2000004e000fcff3a00b2
:1005b00009c2bf008000eb00110798000004e000b2
:1005c0000200350010002000100798001e00900067
:1005d0000080fa00000006000000fa000662a80091
:1005e00008c2bf00624060000004e000fcff32006f
:1005f00000c2bf000080fb000080fa00000006007f
:100600000000fa00002028003010880000012000bf
:10061000201088000080fa00000006000000fa00a8
:1006200085c0bf000044b2000004e000fcff3200bf
:1006300085c0a9000080fa00000006000800fa004a
:100640002047980031479800424798000040eb004f
:10065000004f78008eff07002e40900000404000c1
:10066000cbff07008040eb00714798000004e000da
:1006700002003a0010c0b300704798001e40780096
:10068000fe40900000c04000004f78003e409000c7
:10069000bfff07008040eb00614798000004e000c6
:1006a00002003a0010c0b300604798001e40780076
:1006b000ee40900000c04000004f78004e40900097
:1006c000b3ff07008040eb00514798000004e000b2
:1006d00002003a0010c0b300504798001e40780056
:1006e000de40900000c04000004f780078ff070017
:1006f0001e80fb000080fa00000006000c00fa00db
:100700002047980031479800220798000040eb00ee
:10071000004f78005eff07002e4090000040400030
:100720009bff07008040eb00214f98000004e00091
:1007300002003a0010c0b300204f98001e4078001d
:10074000ae48900000c04000004f78003e4090004e
:100750008fff07008040eb00114f98000004e0007d
:1007600002003a0010c0b300104f98001e407800fd
:100770009e48900000c04000004f78004cff0700ea
:100780002e4090000080fb00000040000004a0000c
:100790007fff07008040eb00014f98000004e0005d
:1007a00002003a0010c0b300004f98001e407800cd
:1007b0008e48900000c04000004f78001e04e0000a
:1007c0000400320042ff07001e80fb003007980043
:1007d0000800370080ff0700804078002e0090005e
:1007e000014878004bff070039ff07009e80fb009f
:1007f000310798003e0090000080fa0000000600db
:100800000e00fa0020479800314798002207980010
:10081000634798000040eb00004f78001cff070082
:100820002e4090000040400059ff07008040eb0040
:10083000414f98000004e00002003a0010c0b300ed
:10084000404f98001e407800ce48900000c0400005
:10085000004f78003e4090004dff07008040eb00c5
:10086000314f98000004e00002003a0010c0b300cd
:10087000304f98001e407800be48900000c04000f5
:10088000004f78000aff07002e4090000080fb0018
:10089000000040000004a0003dff07008040eb0086
:1008a000214f98000004e00002003a0010c0b3009d
:1008b000204f98001e407800ae48900000c04000d5
:1008c000004f78001e04e0000c00320000ff07001b
:1008d0001e80fb00400798001d0037003eff070008
:1008e000804078002e009000014878002e00900093
:1008f0000000e80020079800fdfe07008040eb00a4
:10090000714798006e409000e14f500002003600a1
:1009100010c0b300704798006e4090000040e9009e
:1009200060479800fe4090000104e000ebff3a00b1
:1009300029ff0700804078002e00900001487800d1
:10094000f4fe0700e2fe07001e80fb00400798004f
:100950004e0090000080fa00000006000200fa003d
:100960000040eb00004f7800f2c0b30001c2b300ba
:1009700080c6b30031ff07001e4f40001e80fb0001
:100980000080fa00000006000400fa00100798003a
:100990000040eb00004f78001e01900063c0b300e0
:1009a00081c2b30080c6b30095ff07001e4f400010
:1009b0001e80fb000080fa00000006000000fa0024
:1009c000ca42a900ca62a900ca82a900caa2a90093
:1009d000c642a900c662a900c682a900c6a2a90093
:1009e000ca22a900c622a900ca02a900c602a900fb
:1009f0000080fa00000006000000fa0020c0b300ea
:100a000018000700100020007cfe070080c2b30021
:100a1000140007001000200078fe070080c0b3001b
:100a2000100007001000200074fe070060c0b30033
:100a30000c0007001000200070fe0700f0c0b3009b
:100a400008000700100020006cfe070010c0b30073
:100a5000040007005000200068fe07000080fa0034
:100a6000000006000200fa00004f7800ca02a90048
:100a70009e80fb0000082000008060004780de00b0
:100a80006140600061406000004040000040400064
:100a9000004040000040400000414000a12c2000e8
:100aa00091407800f0cdb30000c0600002407000bb
:100ab000cae2b7009e80fb000004200000806000b6
:100ac0004680de0061406000614060000040400000
:100ad000004040000040400000414000a12c2000a8
:100ae00091407800f0ceb30000c06000024070007a
:100af000cae2b7009e80fb00000220000080600078
:100b00004580de00614060006140600000404000c0
:100b10000040400000414000a12c2000914078009e
:100b200070cfb30000c0600002407000cae2b7009e
:100b30001e80fb00700060004480de0061406000a9
:100b4000614060000040400000414000a12c2000b6
:100b500091407800b0cfb30000c060000240700048
:100b6000cae2b700ca22a8004001200036fe0700f2
:100b7000ca22a9001e80fb00680060004380de00de
:100b80006140600061406000004040000040400063
:100b9000004040000040400000414000a12c2000e7
:100ba00091407800f0cdb30000c0600002407000ba
:100bb000cae2b7001e80fb00640060004280de00d5
:100bc0006140600061406000004040000040400023
:100bd0000040400000414000a12c200091407800de
:100be000f0ceb30000c0600002407000cae2b7005f
:100bf0001e80fb00620060000080d1006140600048
:100c00006140600000404000004040000041400062
:100c1000a12c20009140780070cfb30000c060008c
:100c200002407000cae2b7009e40780061c06000d8
:100c30006140600061406000614060000040400031
:100c400000414000a12c200091407800b0cfb300bb
:100c500000c0600002407000cae2b700ca22a800cb
:100c600040012000f8fd0700ca22a9000080fa0018
:100c7000000006000200fa00004f7800ca02a80037
:100c80009e80fb0000082000008060004780de009e
:100c90006140600061406000004040000040400052
:100ca000004040000040400000414000a12c2000d6
:100cb00091407800f0cdb30000c0600002407000a9
:100cc000cae2b7009e80fb000004200000806000a4
:100cd0004680de00614060006140600000404000ee
:100ce000004040000040400000414000a12c200096
:100cf00091407800f0ceb30000c060000240700068
:100d0000cae2b7009e80fb00000220000080600065
:100d10004580de00614060006140600000404000ae
:100d20000040400000414000a12c2000914078008c
:100d300070cfb30000c0600002407000cae2b7008c
:100d40001e80fb00700060004480de006140600097
:100d5000614060000040400000414000a12c2000a4
:100d600091407800b0cfb30000c060000240700036
:100d7000cae2b700ca22a80040012000b2fd070065
:100d8000ca22a9001e80fb00680060004380de00cc
:100d90006140600061406000004040000040400051
:100da000004040000040400000414000a12c2000d5
:100db00091407800f0cdb30000c0600002407000a8
:100dc000cae2b7001e80fb00640060004280de00c3
:100dd0006140600061406000004040000040400011
:100de0000040400000414000a12c200091407800cc
:100df000f0ceb30000c0600002407000cae2b7004d
:100e00001e80fb00620060000080d1006140600035
:100e10006140600000404000004040000041400050
:100e2000a12c20009140780070cfb30000c060007a
:100e300002407000cae2b7009e40780061c06000c6
:100e4000614060006140600061406000004040001f
:100e500000414000a12c200091407800b0cfb300a9
:100e600000c0600002407000cae2b700ca22a800b9
:100e70004001200074fd0700ca22a9000080fa008a
:100e8000000006000400fa0010079800a0002000ef
:100e90005afd07000000eb00000f78000900370042
:100ea0001e007800800078001e0090000080400046
:100eb000104078001e0fe8006eff0700a000200021
:100ec0004efd07001e007800800078001e00900094
:100ed00000804000104078000004e000f0ff3a007d
:100ee0000080fa00000006000a00fa00400798009f
:100ef0000e80e800c17c2800050009003158780008
:100f00006000b1006100b1000000eb00000f78004c
:100f1000110037009e0178004e009000a2002000d2
:100f2000110009000280d8008000fd0002c3b30058
:100f3000824040000e80e8000080410001487800b7
:100f40001e0fe8004e009000a200200011000900d2
:100f50000280d800400798004e0090000000e0009a
:100f6000ecff3a00080037001e0fe9009e007800f1
:100f70000e80e80000804000104078003dff070030
:100f8000a00020001dfd07001e00e000f6ff3c0051
:080f90000080fa0000000600d9
:020000040000fa
:0200000401f009
:04000000f4ff000009
:020000040000fa
:0200000401f009
:04000400ff7f00007a
:020000040000fa
:0200000401f009
:040008007fff000076
:020000040000fa
:0200000401f009
:04001400ffff0000ea
:020000040000fa
:10000800e4070000e4070000e4070000e40700003c
:10001800e4070000e4070000e4070000e40700002c
:10002800e4070000e4070000e4070000e40700001c
:10003800e4070000e4070000e4070000e40700000c
:10004800e4070000e4070000e4070000e4070000fc
:10005800e4070000e4070000e4070000e4070000ec
:10006800e4070000e4070000e4070000e4070000dc
:10007800e4070000e4070000e4070000e4070000cc
:10008800e4070000e4070000e4070000e4070000bc
:10009800e4070000e4070000e4070000e4070000ac
:1000a800e4070000e4070000e4070000e40700009c
:1000b800e4070000e4070000e4070000e40700008c
:1000c800e4070000e4070000e4070000e40700007c
:1000d800e4070000e4070000e4070000e40700006c
:1000e800e4070000e4070000e4070000e40700005c
:0800f800e4070000e40700002a
:020000040000fa
:10010800e4070000e4070000e4070000e40700003b
:10011800e4070000e4070000e4070000e40700002b
:10012800e4070000e4070000e4070000e40700001b
:10013800e4070000e4070000e4070000e40700000b
:10014800e4070000e4070000e4070000e4070000fb
:10015800e4070000e4070000e4070000e4070000eb
:10016800e4070000e4070000e4070000e4070000db
:10017800e4070000e4070000e4070000e4070000cb
:10018800e4070000e4070000e4070000e4070000bb
:10019800e4070000e4070000e4070000e4070000ab
:1001a800e4070000e4070000e4070000e40700009b
:1001b800e4070000e4070000e4070000e40700008b
:1001c800e4070000e4070000e4070000e40700007b
:1001d800e4070000e4070000e4070000e40700006b
:1001e800e4070000e4070000e4070000e40700005b
:0801f800e4070000e407000029
:020000040000fa
:0c0f98004172000072610000790000004e
:020000040000fa
:100fa4001c080000040000000200000061626300ed
:100fb40000000000000800001c0000000000000009
:040fc4000000000029
:020000040000fa
:040fc8000000fe0027
:00000001FF
